:1000000080314A28053008007E1480310B1F0928F2
:100010000A2848282100111E0E280F281B2820001E
:10002000111E132814281B28210066088A00650861
:100030000A00803148282100911E1F2820282C28E2
:100040002000911E242825282C28210064088A00DD
:1000500063080A00803148282100921D3028312889
:100060003D282000921D352836283D2821006A08A9
:100070008A0069080A00803148282100911D412822
:10008000422848282000911D46284728482836281D
:100090007E10090080314C2821009531C82580311F
:1000A000EF00C53084008830850040308600013084
:1000B00087001E308731FA278031FD012000E901D9
:1000C000EA01EB01EC01A0308400003085004F30E4
:1000D0009631512680312030840001308500203057
:1000E0009631512680317E1020008031772897315B
:1000F000A92780318B170B179631C52680314E30DA
:100100008F31742780312200E001DF01DE013D30B4
:100110002000AE009830AF008730B0009830B100BA
:10012000BB30B2009830B3003C30B4009830B5001A
:100130008D313325803115302000E8004B30E70049
:10014000BE30890BA128E70BA128E80BA1280000ED
:100150003D302000AE009830AF007530B0009830D0
:10016000B1003C30B2009830B300BB30B4009830DE
:10017000B5008D313325803103302000E800083090
:10018000E7007730890BC228E70BC228E80BC228AA
:1001900060302000E7006708C3005E308D31D9254C
:1001A00080318931CD21803146302000AE00993038
:1001B000AF00E530B0009830B1003C30B20098306C
:1001C000B3003C30B4009830B5008D313325803118
:1001D0002200E001E00A003097310F278031003023
:1001E00097311C2780310130973129278031033026
:1001F0002000E8000830E7007730890BFD28E70B86
:10020000FD28E80BFD2801309731362780319531E4
:10021000F925803100309631F52680310030973154
:100220000227803111302000E8003C30E700CB305D
:10023000890B1829E70B1829E80B18290030893198
:1002400084218031003A03192629272928294729A2
:100250002200E00146302000C3009930C400603025
:10026000E7006708C5005F30E8006808C6008E3107
:100270008D26803160302000E7006708CB005F30BA
:10028000E8006808CC005E308C31E6248031220022
:10029000600803194C294D29A1294E302000AE00D9
:1002A0009930AF00EA30B0009830B1003C30B20075
:1002B0009830B3003C30B4009830B5008D31332510
:1002C00080319531F125803100309631F52680312D
:1002D000013097310227803111302000E8003C3096
:1002E000E700CB30890B7229E70B7229E80B7229E2
:1002F0000130893184218031003A03198029812914
:100300008229A1292200E0014E302000C30099304B
:10031000C4006030E7006708C5005F30E800680887
:10032000C6008E318D26803160302000E7006708DE
:10033000CB005F30E8006808CC005E308C31E624EA
:100340008031220060080319A629A729FB2956300D
:100350002000AE009930AF00EA30B0009830B10014
:100360003C30B2009830B3003C30B4009830B50057
:100370008D31332580319531F12580310130963131
:10038000F52680310030973102278031113020006E
:10039000E8003C30E700CB30890BCC29E70BCC29B7
:1003A000E80BCC290030893184218031003A0319CF
:1003B000DA29DB29DC29FB292200E0015630200064
:1003C000C3009930C4006030E7006708C5005F30A3
:1003D000E8006808C6008E318D268031603020002C
:1003E000E7006708CB005F30E8006808CC005E30AB
:1003F0008C31E6248031220060080319002A012A8A
:10040000552A5E302000AE009930AF00EA30B000CF
:100410009830B1003C30B2009830B3003C30B400AA
:100420009830B5008D31332580319531F9258031F3
:1004300000309631F5268031003097310227803127
:1004400011302000E8003C30E700CB30890B262A31
:10045000E70B262AE80B262A0030893184218031D7
:10046000003A0319342A352A362A552A2200E00197
:1004700056302000C3009930C4006030E7006708A0
:10048000C5005F30E8006808C6008E318D268031D7
:1004900060302000E7006708CB005F30E8006808A4
:1004A000CC005E308C31E6248031220060080319D4
:1004B0005A2A5B2AAF2A66302000AE009930AF007E
:1004C000EA30B0009830B1003C30B2009830B30050
:1004D0003C30B4009830B5008D31332580319531F2
:1004E000F525803100309631F52680310130973185
:1004F0000227803111302000E8003C30E700CB308B
:10050000890B802AE70B802AE80B802A0130893189
:1005100084218031003A03198E2A8F2A902AAF2A2B
:100520002200E00166302000C3009930C400603032
:10053000E7006708C5005F30E8006808C6008E3134
:100540008D26803160302000E7006708CB005F30E7
:10055000E8006808CC005E308C31E624803122004F
:1005600060080319B42AB52A092B6E302000AE00AA
:100570009930AF00EA30B0009830B1003C30B200A2
:100580009830B3003C30B4009830B5008D3133253D
:1005900080319531F525803101309631F526803155
:1005A000003097310227803111302000E8003C30C4
:1005B000E700CB30890BDA2AE70BDA2AE80BDA2AD4
:1005C0000030893184218031003A0319E82AE92A70
:1005D000EA2A092B2200E0016E302000C300993086
:1005E000C4006030E7006708C5005F30E8006808B5
:1005F000C6008E318D26803160302000E70067080C
:10060000CB005F30E8006808CC005E308C31E62417
:1006100080312200600803190E2B0F2B632B7630DC
:100620002000AE009930AF00EA30B0009830B10041
:100630003C30B2009830B3003C30B4009830B50084
:100640008D31332580319531F92580310030963157
:10065000F52680310030973102278031113020009B
:10066000E8003C30E700CB30890B342BE70B342B10
:10067000E80B342B0030893184218031003A031992
:10068000422B432B442B632B2200E00176302000C9
:10069000C3009930C4006030E7006708C5005F30D0
:1006A000E8006808C6008E318D2680316030200059
:1006B000E7006708CB005F30E8006808CC005E30D8
:1006C0008C31E6248031220060080319682B692BE5
:1006D000C02B7E302000AE009930AF008E30B000CD
:1006E0009930B1003C30B2009830B3003C30B400D7
:1006F0009830B5008D313325803100309731362761
:1007000080319531F92580319631092680310030CC
:1007100097310227803111302000E8003C30E7009B
:10072000CB30890B912BE70B912BE80B912B0030F1
:10073000893184218031003A03199F2BA02BA12BF2
:10074000C02B2200E0017E302000C3009930C4009D
:100750006030E7006708C5005F30E8006808C60041
:100760008E318D26803160302000E7006708CB0095
:100770005F30E8006808CC005E308C31E6248031C0
:10078000220060080319C52BC62B192C86302000C7
:10079000AE009930AF008E30B0009930B1003C30DF
:1007A000B2009830B3003C30B4009830B5008D31C1
:1007B000332580319531F125803196310126803104
:1007C000013097310227803111302000E8003C30A1
:1007D000E700CB30890BEA2BE70BEA2BE80BEA2B7F
:1007E0000130893184218031003A0319F82BF92B2B
:1007F000FA2B192C2200E00186302000C30099302A
:10080000C4006030E7006708C5005F30E800680892
:10081000C6008E318D26803160302000E7006708E9
:10082000CB005F30E8006808CC005E308C31E624F5
:1008300080312200600803191E2C1F2C722CFE3000
:100840002000AE009830AF008E30B0009930B1007B
:100850003C30B2009830B3003C30B4009830B50062
:100860008D31332580319531F1258031963109263E
:100870008031003097310227803111302000E800AC
:100880003C30E700CB30890B432CE70B432CE80BC3
:10089000432C0030893184218031003A0319512CD6
:1008A000522C532C722C2200E001FE302000C30099
:1008B0009830C4006030E7006708C5005F30E8008A
:1008C0006808C6008E318D26803160302000E70038
:1008D0006708CB005F30E8006808CC005E308C31E0
:1008E000E6248031220060080319772C782CCB2C69
:1008F00007302000AE009930AF008E30B000993044
:10090000B1003C30B2009830B3003C30B4009830B5
:10091000B5008D31332580319531F92580319631FF
:1009200009268031003097310227803111302000B4
:10093000E8003C30E700CB30890B9C2CE70B9C2C6B
:10094000E80B9C2C0030893184218031003A031956
:10095000AA2CAB2CAC2CCB2C2200E00107302000C1
:10096000C3009930C4006030E7006708C5005F30FD
:10097000E8006808C6008E318D2680316030200086
:10098000E7006708CB005F30E8006808CC005E3005
:100990008C31E6248031220060080319D02CD12C40
:1009A000242D10302000AE009930AF008E30B00002
:1009B0009930B1003C30B2009830B3003C30B40004
:1009C0009830B5008D31332580319531F525803152
:1009D000963109268031003097310227803111305D
:1009E0002000E8003C30E700CB30890BF52CE70B0A
:1009F000F52CE80BF52C0030893184218031003A48
:100A00000319032D042D052D242D2200E0011030A3
:100A10002000C3009930C4006030E7006708C500BB
:100A20005F30E8006808C6008E318D268031603066
:100A30002000E7006708CB005F30E8006808CC00C2
:100A40005E308C31E6248031220060080319292DA4
:100A50002A2D7D2D19302000AE009930AF008E3048
:100A6000B0009930B1003C30B2009830B3003C3057
:100A7000B4009830B5008D31332580319531F5259E
:100A8000803196310526803101309731022780313F
:100A900011302000E8003C30E700CB30890B4E2DB0
:100AA000E70B4E2DE80B4E2D01308931842180312A
:100AB000003A03195C2D5D2D5E2D7D2D2200E00195
:100AC00019302000C3009930C4006030E700670887
:100AD000C5005F30E8006808C6008E318D26803181
:100AE00060302000E7006708CB005F30E80068084E
:100AF000CC005E308C31E62480312200600803197E
:100B0000822D832DD62D22302000AE009930AF00EB
:100B10008E30B0009930B1003C30B2009830B30054
:100B20003C30B4009830B5008D313325803195319B
:100B3000F525803196310926803100309731022722
:100B4000803111302000E8003C30E700CB30890BC9
:100B5000A72DE70BA72DE80BA72D003089318421A5
:100B60008031003A0319B52DB62DB72DD62D2200B0
:100B7000E00122302000C3009930C4006030E7005B
:100B80006708C5005F30E8006808C6008E318D2612
:100B9000803160302000E7006708CB005F30E8005C
:100BA0006808CC005E308C31E62480312200600879
:100BB0000319DB2DDC2D2F2E2B302000AE009930B9
:100BC000AF008E30B0009930B1003C30B2009830A8
:100BD000B3003C30B4009830B5008D3133258031FE
:100BE0009531F925803196310526803100309731D5
:100BF0000227803111302000E8003C30E700CB3084
:100C0000890B002EE70B002EE80B002E00308931F7
:100C100084218031003A03190E2E0F2E102E2F2E14
:100C20002200E0012B302000C3009930C400603066
:100C3000E7006708C5005F30E8006808C6008E312D
:100C40008D26803160302000E7006708CB005F30E0
:100C5000E8006808CC005E308C31E6248031220048
:100C600060080319342E352E992E34302000AE0042
:100C70009930AF009930B0009830B1003C30B200EC
:100C80009830B3005030B4009830B5008D31332522
:100C9000803101309731362780319531F52580310B
:100CA00001309631F52680310030973102278031AE
:100CB00011302000E8003C30E700CB30890B5E2E7D
:100CC000E70B5E2EE80B5E2E6B302000BF009030ED
:100CD000C00088310020803122005E088E31FC2661
:100CE00080312000E70067082200DF005F08031D55
:100CF0007A2E7B2E992EE00156302000C3009930C9
:100D0000C4006030E7006708C5005F30E80068088D
:100D1000C6008E318D26803160302000E7006708E4
:100D2000CB005F30E8006808CC005E308C31E624F0
:100D300080312200600803199E2E9F2EFF2E3D3029
:100D40002000AE009930AF00AA30B0009830B1005A
:100D50003C30B2009830B3005030B4009830B50049
:100D60008D31332580319531F52580310130963133
:100D7000F526803101309731022780311130200073
:100D8000E8003C30E700CB30890BC42EE70BC42EC3
:100D9000E80BC42E4A302000BF009030C0008831DC
:100DA0000020803122005E088E31FC268031200038
:100DB000E70067082200DF005F08031DE02EE12E38
:100DC000FF2EE0013D302000C3009930C4006030A8
:100DD000E7006708C5005F30E8006808C6008E318C
:100DE0008D26803160302000E7006708CB005F303F
:100DF000E8006808CC005E308C31E62480312200A7
:100E000060080319042F052FA828F2302000AE0037
:100E10009830AF006C30B0009830B100CA30B200EA
:100E20009830B3001530B4009830B5008D313325BB
:100E30008031013097310F2780319631652680311E
:100E40008931632180315E302000C3000130C4004D
:100E50006030C5000130C6008E312F2680316030F1
:100E60002000C3000130C4005F30C5000130C6005F
:100E70005E30C7000130C8008B31612380312930DA
:100E80002000E8009630E7007F30890B452FE70B04
:100E9000452FE80B452FA82880314A282000B600AE
:100EA0002E0886008701403FB000413FB100300866
:100EB0008400310885001200253A031D602F612F40
:100EC000D62F2E0886008701013081074131031893
:100ED000810A2100D701D801DB01DC01FF30D900F4
:100EE000FF30DA0020002E0886008701403FB00066
:100EF000413FB100300884003108850012006E3A8D
:100F0000031D832F842FA32F2E0886008701013015
:100F1000810741310318810A2F0886008701403F6D
:100F200084008501810A0008B0003008B50035084A
:100F30008600870121005508C03F5608C13F2000A8
:100F4000AE01AF01F92F2E0886008701403FB000A7
:100F5000413FB10030088400310885001200253A75
:100F6000031DB32FB42FCD2F2E088600870101302B
:100F7000810741310318810A2530A6000030A700FF
:100F80003608B0003008A8008B31CF2387310130FC
:100F90002000AE000030AF00F92F2E088600870138
:100FA0000130810741310318810A9F2F2E088600E6
:100FB0008701403FB000413FB10030088400310854
:100FC00085000008B200B3013208A6003308A7006C
:100FD0003608B4003408A8008B31CF2387312000B5
:100FE0002E08860087010130810741310318810AEC
:100FF000C72F0800FE0012001E00FE0BFB2F00345E
:1010000041302000C1004108C2004008B8003F083C
:10101000B7004230C1004108B90000308B313023A5
:10102000883108002000A60021006C082000A500DF
:101030002508A604260804389731BC2788312000EB
:101040002608FB399731BC2788314230890B262886
:10105000003208002000A8002100EC012000280830
:10106000F03988311220883120002808A700033089
:10107000A735FF3E031D38282735F0398831122067
:10108000883108002000A8002100EC01EC0A2000B3
:101090002808F03988311220883120002808A7005C
:1010A0000330A735FF3E031D51282735F03988311D
:1010B00012208831080023001908F00020006B0876
:1010C000C53E86008701700881000130F00070087D
:1010D000EB0708306B02031C6E286F287028EB01A9
:1010E0000130F0007008E90708002000A700270879
:1010F000A5002508A60080280130A5002508A7071F
:101100002708860087010108031D872888287C2876
:1011100026082702A300A401A31BA40308002000A3
:10112000A400A30124080319962897289D288F1B43
:101130009A289B289D28A301A30A2408031DA128FF
:10114000A228A8288F1FA528A628A828A301A30A9B
:10115000230808002000A400A30124080319B128D3
:10116000B228B8280F19B528B628B828A301A30AB1
:101170002408031DBC28BD28C3280F1DC028C12872
:10118000C328A301A30A230808002D343E342034C9
:101190004534523452344534553452343A34203480
:1011A000003400340034003400340034003400349F
:1011B00000340D340A340034003400340034003478
:1011C000003400340034220090018F018C018D0125
:1011D0008E010830210090008C01EF308D00BF306F
:1011E0008E00FF308F0023008F013F308D00900173
:1011F0003C308C00240090018D01210095172200C5
:101200009D0108002000AC01AD01152929082C071B
:1012100084002A082D3D850000088831422089314C
:1012200001302000AC070030AD3D29082C078400B8
:101230002A082D3D85001200031D1F29202906299B
:101240000800083021006E020318272928294029A8
:101250007D08CD3E86008701010823009A000130F9
:10126000F0007008FD0708307D02031C3829392979
:101270003A29FD010130F00070082100EE074129F4
:10128000111208002000AF002908AD002808AC00AA
:101290002F08AA002A08AE002E0886008701AE0A91
:1012A0002D08AB002C08AA00AC0A0319AD0A2A08C5
:1012B00084002B0885000008C03F8908031D6129B0
:1012C00062294C29080020302000BF009030C00067
:1012D0008831002089312000C401C5018931CD2128
:1012E000893101302000C4070030C53D4508803AEF
:1012F000C30080304302031D7F2902304402031CD7
:10130000822983296E2908002000A400A301240853
:1013100003198B298C2996290F1C8F29902996292E
:101320008F1C932994299629A301A30A2408031D3D
:101330009A299B29A5290F189E299F29A5298F182D
:10134000A229A329A529A301A30A23080800F400C0
:10135000700871040319AD29AE29BF297435A03E68
:10136000860087017008C03F7108C13F7208F30012
:101370007408AC3E8600870173088100CC2974355F
:10138000A03E86008701C930C03F1530C13F7408B8
:10139000AC3E86008701810108002000A801A90158
:1013A0008A311F2289310B302000A7002630A60089
:1013B0005D30890BD929A60BD929A70BD929003271
:1013C00001302000A8070030A93D2908803AA60076
:1013D00080302602031DEE2902302802031CF12969
:1013E000F229D029080021003C100230FA007A08C6
:1013F000BB00022A9631212689311E2A96312626E3
:1014000089311E2A2E08FA007A08F9000430A03E1D
:1014100086008701413F8A00403F0A008A31FB0075
:10142000FC017C08003A0319162AFE297B08023ABF
:101430000319FA29013A0319FA29FE2908002000A4
:10144000A401A50122000D1606302000A3003030B3
:10145000890B282AA30B282A000022000D1206302F
:101460002000A3003030890B332AA30B332A00005D
:1014700001302000A4070030A53D2508803AA300D4
:1014800080302302031D462A32302402031C492ADD
:101490004A2A222A08002000A40021006E0803190D
:1014A000522A532A4D2A111A562A572A5C2A2000FA
:1014B000240823009A00742A111220002408A30093
:1014C0006C08CD3E86008701230881000130A3000F
:1014D0002308EC0708306C02031C6F2A702A712A5B
:1014E000EC0101302100EE0221001116080020005D
:1014F000690803197C2A7D2A772A6A08BD3E86007E
:1015000087010108A30023082100ED0020006A08DC
:10151000C53E860087010108A3002308A40001300E
:10152000A3002308EA0708306A02031C982A992AB4
:101530009A2AEA012100911201302000E9022100DB
:1015400091162000240808009531DA258A312100FF
:101550003C1CAB2AAC2ABA2A96313F268A31003A83
:101560000319B32AB42ABA2A0F302000A000200899
:101570002100BA0021003A082000A000A101A035F6
:10158000A10D0030200784009030213D8500013FEF
:101590008A00003F0A008A312000A20022082100B0
:1015A000BA0008002100BC15E22A963121268A31B2
:1015B000002B9531D7258A310330002B9631262612
:1015C0008A31002B2C08FA007A08F90021088A00D9
:1015D00020080A008A31FB00FC017C08003A03194C
:1015E000F22ADE2A7B08013A0319DE2A033A03199C
:1015F000D52A013A0319D52A073A0319D92ADE2A2E
:1016000008002000AC001C2B2908BF3E88312A208E
:101610008B312F2B2908933E88312A208B312F2B99
:101620002908D33E88312A208B312F2B29087F3E71
:1016300088312A208B312F2B2C08AA00AB012B08D4
:10164000003A0319242B162B2A08023A0319042BFB
:10165000013A03190A2B073A0319102B162B08001D
:101660002000BC003808BE003708BD002100D501AD
:10167000D6014E2B3D30BA003A08AE003908BB0007
:101680003B08AF003C0887314E278B3120002E08E5
:101690002100D50720002F082100D63D20003D085D
:1016A00084003E0885001200031D572B582B3A2B4F
:1016B000210056082000B800210055082000B7007E
:1016C0000800200047088600480887000108031D1D
:1016D0006A2B6B2B722B0030BF009830C000883112
:1016E00000208B31200043088600440887008101D8
:1016F000450886004608870081014708860048089B
:1017000087008101003097310F278B3100309731EE
:101710001C278B310030973129278B319631652674
:101720008B31080020006B08BD3E860087018101D7
:1017300023001D1D9C2B9D2BA92B20006B08BD3E5B
:10174000860087018114210062088A0061080A006E
:101750008B3123009D1CAD2BAE2BBA2B20006B08C8
:10176000BD3E860087010115210060088A005F08E0
:101770000A008B3120006B08BD3E860087010108FE
:101780000319C32BC42BCB2B21005E088A005D08F4
:101790000A008B31CE2B88315B208B310800200072
:1017A00028080319D42BD52BDA2B2808031DD92B95
:1017B000DA2BDF2B260896315E268B310F2C28087A
:1017C000033E86008701160001040319E82BE92B6C
:1017D000062C2808033E86008701403FA900413FB0
:1017E000AA00280A86008701403FAB00413FAC00B9
:1017F0002C08803AAD002A08803A2D02031D022CE5
:1018000029082B020318052C062C0F2C2000280A6F
:10181000860087010130810741310318810A0800E1
:101820009531D4258C31FA002100370886008701D4
:101830007A0881000130FA007A08B7070130B8024F
:101840000030B93B380839040319272C282C2D2CDB
:101850009531E9258C310530552CBC15372C963146
:1018600035268C31552C963130268C31552C2C0850
:10187000FA007A08F90021088A0020080A008C3151
:10188000FB00FC017C08003A0319472C332C7B0831
:10189000013A0319332C033A03192F2C013A031987
:1018A0002F2C073A0319332C332C080021009112F6
:1018B00092302000A3000B30A4009631A0268C317A
:1018C0002100111221302000A3000930A40096311C
:1018D000A9268C31083023009F0090309D002430D1
:1018E0009E0040309B0003309C00C7302000A300C6
:1018F0001530A40096318E268C31E1302000A300F3
:101900001530A400963197268C31DD302000A300DD
:101910001530A400963185268C312100ED01200080
:10192000EC01FD010830A50025082100EE00200093
:10193000EB01EA01E9012100911608002000A8014D
:10194000A9012000AA01AB018A311F228C310B3082
:101950002000A7002630A6005D30890BAD2CA60B19
:10196000AD2CA70BAD2C003201302000AA070030AF
:10197000AB3D2B08803AA60080302602031DC22C06
:1019800004302A02031CC52CC62CA42C0B302000CA
:10199000A7002630A6005D30890BCC2CA60BCC2CE2
:1019A000A70BCC2C003201302000A8070030A93D45
:1019B0002908803AA60080302602031DE12C04305D
:1019C0002802031CE42CE52CA12C08002000D300E5
:1019D00053088600013087000108CD00CE014D0874
:1019E000C3004E08C4004B08860001308700010880
:1019F000CF00D0014F08C5005008C6008E312F26F9
:101A00008C3120004B088600013087000108CD0092
:101A1000CE014D08C3004E08C4004C0886000130BA
:101A200087000108CF00D0014F08C5005008C6004C
:101A300053088600013087000108D100D201510807
:101A4000C7005208C8008B3161238C312930200037
:101A5000CE009630CD007F30890B2C2DCD0B2C2D58
:101A6000CE0B2C2D08009631B2268D3106308831F0
:101A70002A208D3102302000B7000430B600BA3081
:101A8000890B402DB60B402DB70B402D00002000D8
:101A9000A901A90A01308B3101238D3120002F08C3
:101AA000AA002E08A900893102218D312000A90148
:101AB000A90A02308B3101238D3120003108AA00A0
:101AC0003008A900893102218D312000A901A90A1D
:101AD00003308B3101238D3120003308AA003208F6
:101AE000A900893102218D312000A901A90A043001
:101AF0008B3101238D3120003508AA003408A9005C
:101B0000893102218D31080096313F268D31003A0E
:101B100003198B2D8C2DBC2D992D963117268D31C7
:101B2000D82D96311C268D31D82D963126268D3113
:101B3000D82D21002F08FA007A08F9000630A03EBF
:101B400086008701413F8A00403F0A008D31FB003B
:101B5000FC017C08003A0319AE2D952D7B08013A53
:101B60000319952D033A03198D2D013A0319912D6F
:101B7000073A0319952D952D21003C101730A03EF2
:101B800086008701403F84008501810A0008963164
:101B90000D268D3101302100B8020030B93B3808E4
:101BA0003904031DD42DD52DD72D0630D82D033063
:101BB00008002000C800C701292E0F19E02DE12DD3
:101BC000F02D8B30BF009030C000883100208D3167
:101BD0002000C701C70A480886000130870081013C
:101BE00069080319F42DF52D292E8A3177228D31BC
:101BF0002000C4004408C6001C2ED830BF00983016
:101C0000C000883100208D31200048088600013056
:101C100087008101810A02302000C5000430C40021
:101C2000BA30890B112EC40B112EC50B112E0000DA
:101C30002000C701C70A292E4608C400C50145086F
:101C4000003A0319242E292E4408313A0319FD2D98
:101C5000292E470803192D2E2E2EDD2D08002000D9
:101C6000CA01872E0F19352E362E4A2E0030BF009E
:101C70009830C000883100208E312000CA01CA0A85
:101C8000430886004408870081014508860046080D
:101C900087008101690803194E2E4F2E872E8A3145
:101CA00077228E312000C7004708C9007A2E2A30DB
:101CB000BF009830C000883100208E3120004308DA
:101CC0008600440887008101450886004608870091
:101CD000810102302000C8000430C700BA30890BEF
:101CE0006F2EC70B6F2EC80B6F2E00002000CA018D
:101CF000CA0A872E4908C700C8014808003A0319D4
:101D0000822E872E4708343A0319572E872E4A0809
:101D100003198B2E8C2E322E0800403086000130A5
:101D20008700483084000030850014302000C70050
:101D300016001A00C70B982E543086000130870019
:101D40005C308400003085000A30C70016001A009D
:101D5000C70BA62E013097311C278E3101309731E9
:101D600029278E31003097310F278E319631652625
:101D70008E3120004408AF004308AE006330B0004D
:101D80009830B1001530B2009830B3003C30B40048
:101D90009830B5008D3133258E3120004408B100D4
:101DA0004308B00048309731D1278E312000C7005A
:101DB0004708E6005C30B0000030B100660897319B
:101DC000D1278E312000BF000030C00088310020B4
:101DD0008E318C319E248E3120000F1DF02EF12E7D
:101DE000EC2E4508860001308700810146088600F8
:101DF00001308700810108002000A800A901AA0184
:101E000028080319042F052F4B2F462F69080319A3
:101E10000A2F0B2F462F8A3177228E312000A50002
:101E20002508A700362F02302000A6000430A500A8
:101E3000BA30890B192FA50B192FA60B192F0000EB
:101E40002000A901A90AAA01AA0A462F02302000EF
:101E5000A6000430A500BA30890B2C2FA50B2C2F1F
:101E6000A60B2C2F00002000A901232F2708A50076
:101E7000A6012608003A03193E2F462F2508323ABC
:101E80000319132F013A0319262F462F2A08031985
:101E90004A2F4B2F062F2808031D4F2F502F722F2C
:101EA0006C2F013088318F208E31003A0319592F61
:101EB0005A2F5E2F2000A901AA01AA0A01308831F9
:101EC000AA208E31003A0319662F672F6C2F20004D
:101ED000A901A90AAA01AA0A20002A080319712F38
:101EE000722F512F290808002000AB002B08A900F1
:101EF00029082100EB0000309731BC278F319C303E
:101F00002000A900D730890B832FA90B832F033022
:101F100088312A208F311A302000A900F830890B2F
:101F20008F2FA90B8F2F0000033088312A208F318B
:101F30001A302000A900F830890B9C2FA90B9C2F88
:101F40000000033088312A208F311A302000A90088
:101F5000F830890BA92FA90BA92F00000230883176
:101F60002A208F311A302000A900F830890BB62FB3
:101F7000A90BB62F0000283088312A208F3102307B
:101F80002000AA000430A900BA30890BC52FA90B84
:101F9000C52FAA0BC52F00000C3088312A208F31A5
:101FA00002302000AA000430A900BA30890BD62FD5
:101FB000A90BD62FAA0BD62F0000013088312A207A
:101FC0008F3102302000AA000430A900BA30890BFA
:101FD000E72FA90BE72FAA0BE72F00000630883167
:101FE0002A208F3102302000AA000430A900BA3024
:101FF000890BF82FA90BF82FAA0BF82F0000080067
:10200000123416347C3416346C34163484340D3463
:1020100010340C3457341634D2340A34173416348E
:102020001C34163421341634263416342B3416342A
:1020300030341634353416343A341634F334093423
:102040002D343E3420345434453453345434203405
:1020500043344F344E3446344F3452344D34453487
:1020600020342D34203441345434543445344E34E7
:102070005434453420344134433451345534493494
:102080005434543445344D3445344E3454340D3482
:102090000A34003441347434743465346E34743426
:1020A00065342034763461346C346934643461349A
:1020B000743469346F346E3420346C346534643471
:1020C0007334203462346C3465347534653473345D
:1020D0000D340A34003441347434743465346E344D
:1020E000743465342034763461346C346934643447
:1020F0006134743469346F346E3420346C34653434
:102100006434203476346534723474346534733412
:102110000D340A3400342D343E34203454344534E4
:102120005334543420344D3441344E3455344534D2
:102130004C34203445344E34203443344F345534F9
:0A214000523453340D340A340034D5
:102B8E0008000834013008002400961408002400C0
:102B9E0016150800240096150800240011080800D8
:102BAE0020009115080020009111080088315B204B
:102BBE009531080023001D121D16080024009616DC
:102BCE001616080024009612161608008A31A42242
:102BDE009531080022008C140C10080022000C14F1
:102BEE008C10080022008C100C10080016302100EA
:102BFE009700080022000C168C11080022000C12FF
:102C0E008C15080022000C128C110800F0007008C0
:102C1E002400910008002100BC10BB010E300800FA
:102C2E009531CB259631013008009531CB25963163
:102C3E00023008009531CB259631013008009531D0
:102C4E00CE259631003008009531E92596310530B4
:102C5E0008009531E52596310A3008009531E525B5
:102C6E009631093008002100BC10BB010E3008005F
:102C7E002400160E890C890C013908009631D026D5
:102C8E0096312400161408009631D0269631240071
:102C9E0016150800640080010131890B522E003494
:102CAE0021003C109531D1259631043008002000CA
:102CBE00A50025088A314B229631080022000C10FF
:102CCE008C100C118C110C12080021003C1436359E
:102CDE0096310D26963103300800F03021009E000B
:102CEE009B019C0101309D00080021003C1403143F
:102CFE00360D96310D269631053008002000240839
:102D0E002100DE00200023082100DD000800200045
:102D1E0024082100E200200023082100E100080021
:102D2E00200024082100E000200023082100DF00FD
:102D3E000800200024082100E400200023082100C0
:102D4E00E3000800200024082100E60020002308EC
:102D5E002100E5000800013088312A2096313530F7
:102D6E00890BB72E00000800C030240094000830F4
:102D7E00950096014F3092009512080028302400DD
:102D8E009500960194012730920021008E150E16A3
:102D9E00080024001419D42ED52ED02E16081F3953
:102DAE00031DDA2EDB2ED02E080070302100990084
:102DBE0098012200960121001A1FE62EE72EE22E20
:102DCE0008007608F1007508F0007708F80078081A
:102DDE00F20000308931A721963108002000A300AF
:102DEE0023080319FB2EFC2EFF2E22000C15012F9B
:102DFE0022000C1108002000A30023080319082F3D
:102E0E00092F0C2F22000C170E2F22000C13080076
:102E1E002000A30023080319152F162F192F2200A7
:102E2E0010141B2F2200101008002000A3002308EE
:102E3E000319222F232F262F22009014282F220031
:102E4E00901008002000A300230803192F2F302F05
:102E5E00332F22001015352F2200101108002000EC
:102E6E00A300230803193C2F3D2F412F22008C1362
:102E7E008C16442F22008C178C120800F3002100B0
:102E8E00BC1D4A2F4B2F542F7308F2007208B70047
:102E9E007108B9007008B800BC1108002000A3002A
:102EAE009631D0269731200023082400910020006F
:102EBE00911D622F632F5E2F911108000230F000DA
:102ECE000030F10079089731452797310030F50031
:102EDE00F600F7019631E8269731043008000130EC
:102EEE00F0000030F1007908973145279731003016
:102EFE00F500F600F7019631E8269731023008000A
:102F0E000230F0000030F1007908973145279731F3
:102F1E000030F500F600F7019631E82697310230C1
:102F2E0008000130F0000030F10079089731452794
:102F3E0097310030F500F600F7019631E82697310B
:102F4E00043008009631BB2697318831E320973143
:102F5E009631DC2697319531FD25973196317426C1
:102F6E0097318C315624973108002000A4009631F9
:102F7E004526973121006B08973155279731200050
:102F8E00240821006F0497315527973196314B262F
:102F9E00973108002000B4003108A9003008A800BD
:102FAE00340888317520973120002308B200240898
:102FBE00B30034083207893142219731200034089A
:102FCE000800790886008701403FF000413FF1007C
:102FDE007908023E8600870101089731452797310F
:102FEE000030F500F600F7019631E82697310230F1
:102FFE0008002D343E342034463449344E342034C7
:10300E00543445345334543420344D3441344E34D6
:10301E00553445344C340D340A3400344134543470
:10302E00543445344E3454344534203441344334CE
:10303E005134553449345434543445344D34453474
:10304E004E34543400342D343E342034543445340C
:10305E005334543420344134433451345534493488
:10306E005434543445340D340A3400345434453415
:10307E00533454342034433441345234543445346C
:10308E0020344434383435343534453444343234D1
:10309E00003441345034503455345934453452345C
:1030AE00203453345534523420344F344B342F346F
:1030BE004E344F344B34003454344534533454343A
:1030CE0020344E344F344E34203443344F344E3447
:1030DE0046344F3452344D34453400344134543434
:1030EE00543445344E345434453420344434453409
:1030FE004D34413452345234413447344534003423
:10310E0050344F3453344934543449344F344E349C
:10311E004E344534523420344334413452345434D2
:10312E0045340034543445345334543420344C3400
:10313E0045344434533420345634453452345434A4
:10314E0045345334003454344534533454342034D9
:10315E004C34453444345334203442344C344534A6
:10316E00553445345334003441345034503455348E
:10317E005934453452342034533455345234203477
:10318E004F344B3400345234453454344934523471
:10319E00453452342034433441345234543445345B
:1031AE0000342D343E3420345434453453345434A6
:1031BE0020344F344E340D340A34003454344534F4
:1031CE005334543420344D344F3444344534203445
:1031DE00423450340034463449344E34203444346E
:1031EE004534203454344534533454340034453447
:1031FE005434413450344534203431343034003476
:10320E00453454344134503445342034313431341F
:10321E000034453454344134503445342034313440
:10322E00323400344534543441345034453420342F
:10323E00313433340034453454344134503445340D
:10324E002034313434340034453454344134503421
:10325E00453420343134353400344534543441341B
:10326E0050344534203431343634003445345434FB
:10327E0041345034453420343134373400344534FD
:10328E0054344134503445342034313400344534D0
:10329E0054344134503445342034323400344534BF
:1032AE0054344134503445342034333400344534AE
:1032BE00543441345034453420343434003445349D
:1032CE00543441345034453420343534003445348C
:1032DE00543441345034453420343634003445347B
:1032EE00543441345034453420343734003445346A
:1032FE005434413450344534203438340034453459
:10330E0054344134503445342034393400344D343F
:0E331E004F34443445342034543443340034A6
:020000040001F9
:08000000FF3FFF3FFF3FFF3F00
:04000E00E43FFF3F8D
:00000001FF
