:1000000080314A28053008007E1480310B1F0928F2
:100010000A2848282100111E0E280F281B2820001E
:10002000111E132814281B2821004C088A004B0895
:100030000A00803148282100911E1F2820282C28E2
:100040002000911E242825282C2821004A088A00F7
:1000500049080A00803148282100921D30283128A3
:100060003D282000921D352836283D2821005008C3
:100070008A004F080A00803148282100911D41283C
:10008000422848282000911D46284728482836281D
:100090007E10090080314C28210093310D238031DE
:1000A000EF00153084009630850020308600013046
:1000B00087001E3093319F238031FD01563084002C
:1000C000003085000730933199238031A0308400BF
:1000D0000030850032309331992380313E308400E6
:1000E000013085001A30933199238031A03084008B
:1000F0000130850020309331992380317E1020001B
:10010000883129282000A900AE01AF012908031970
:100110008A288B28D128CC285708031990289128A1
:10012000CC2887316C2780312000A6002608A80043
:10013000BC2802302000A7000430A600BA30890B8A
:100140009F28A60B9F28A70B9F2800002000AE0128
:10015000AE0AAF01AF0ACC2802302000A70004305D
:10016000A600BA30890BB228A60BB228A70BB2287A
:1001700000002000AE01A9282808A600A701270832
:10018000003A0319C428CC282608323A03199928C2
:10019000013A0319AC28CC282F080319D028D128FC
:1001A0008C282908031DD528D62856290030AD00F3
:1001B0000030AC000030AB000030AA002D29013027
:1001C0002000AA070030AB3D0030AC3D0030AD3D13
:1001D00001309431492480310030943156248031EB
:1001E00007302000A7001730A6006A30890BF628D8
:1001F000A60BF628A70BF6280000003094314924FE
:100200008031013094315624803107302000A7001E
:100210001730A6006A30890B0B29A60B0B29A70BF8
:100220000B29000001309531DF258031003A031998
:100230001A291B291F292000AE01AF01AF0A013086
:100240009531FA258031003A0319272928292D29CB
:100250002000AE01AE0AAF01AF0A20002F08031D37
:10026000322933294229AD1B41292D08031D42297A
:1002700080302A0296302B3B98302C3B031C4129BE
:100280004229DF28803020002A06963003192B06E9
:10029000983003192C062D04031D4F295029562987
:1002A00020002508860087018101810A00309431F1
:1002B00049248031003094315624803120002E08AA
:1002C00008002000A600A701A801A901260803191B
:1002D0006A296B29C5290F1C6E296F2976298F1C65
:1002E000722973297629A701A70AC52994317D248B
:1002F00081312000AA01AA0AA62905302000A50004
:100300000F30A400F130890B8329A40B8329A50B9E
:10031000832920000F1C8D298E29A1298F1C91294A
:100320009229A129A701A70AAA01003094314924E2
:10033000813101309431632481310030943156246D
:10034000813101302000A8070030A93D2A08031997
:10035000AA29AB29B8292908803AA40080302402B0
:10036000031DB42903302802031CB729B8297D29AD
:1003700015302000A5004B30A400BE30890BBE29EB
:10038000A40BBE29A50BBE29000020002608031DD2
:10039000CA29CB29252A0F18CE29CF29D6298F186B
:1003A000D229D329D629A701A70A252A94317D2449
:1003B00081312000AA01AA0A062A05302000A500E2
:1003C0000F30A400F130890BE329A40BE329A50B1E
:1003D000E32920000F18ED29EE29012A8F18F129B1
:1003E000F229012AA701A70AAA0100309431492461
:1003F00081310130943163248131003094315624AD
:10040000813101302000A8070030A93D2A080319D6
:100410000A2A0B2A182A2908803AA40080302402CC
:10042000031D142A03302802031C172A182ADD2969
:1004300015302000A5004B30A400BE30890B1E2AC9
:10044000A40B1E2AA50B1E2A000020002708080066
:100450002000B6002E0886008701403FB000413FD3
:10046000B10030088400310885001200253A031DD0
:100470003A2A3B2AB12A2E088600870101308107DB
:1004800041310318810A2200D601D7012100C101A0
:10049000C201FF30BF00FF30C00020002E088600E0
:1004A0008701403FB000413FB1003008840031086F
:1004B000850012006E3A031D5E2A5F2A7E2A2E08EE
:1004C000860087010130810741310318810A2F0816
:1004D00086008701403F84008501810A0008B00042
:1004E0003008B50035088600870121003D08C03F6F
:1004F0003E08C13F2000AE01AF01D42A2E0886007D
:100500008701403FB000413FB1003008840031080E
:1005100085001200253A031D8E2A8F2AA82A2E084C
:10052000860087010130810741310318810A253097
:10053000A6000030A7003608B0003008A8008631B9
:100540004A26823101302000AE000030AF00D42AAC
:100550002E08860087010130810741310318810A86
:100560007A2A2E0886008701403FB000413FB10043
:1005700030088400310885000008B200B301320859
:10058000A6003308A7003608B4003408A800863156
:100590004A26823120002E0886008701013081071B
:1005A00041310318810AA22A08002000AB002B0861
:1005B000A9002908D60000309531222582319C30CF
:1005C0002000A900D730890BE32AA90BE32A0330C6
:1005D00095314D2582311A302000A900F830890B61
:1005E000EF2AA90BEF2A0000033095314D25823107
:1005F0001A302000A900F830890BFC2AA90BFC2A2C
:100600000000033095314D2582311A302000A900B9
:10061000F830890B092BA90B092B0000023095310A
:100620004D2582311A302000A900F830890B162B95
:10063000A90B162B0000283095314D258231023050
:100640002000AA000430A900BA30890B252BA90B81
:10065000252BAA0B252B00000C3095314D2582311E
:1006600002302000AA000430A900BA30890B362BD2
:10067000A90B362BAA0B362B0000013095314D25E6
:10068000823102302000AA000430A900BA30890B60
:10069000472BA90B472BAA0B472B0000063095319F
:1006A0004D25823102302000AA000430A900BA3062
:1006B000890B582BA90B582BAA0B582B00000800AC
:1006C0002030860001308700C03084000130850072
:1006D00014302000C70016001A00C70B6B2B3430F3
:1006E000860001308700D4308400013085000A3054
:1006F000C70016001A00C70B792B0130943156241D
:1007000083310130943163248331003094314924A2
:1007100083318731F9278331003094313C24833190
:1007200022008C1220004408AF004308AE00D530F0
:10073000B0009830B1008730B2009830B300AE30CE
:10074000B4009830B5008431DD24833120004408A2
:10075000B1004308B000C03095317A2583312000C4
:10076000C70047082300DE00D4302000B00001306D
:10077000B10023005E0895317A2583312000BF0047
:100780000130C0009431FD248331853176258331D9
:1007900020000F1DCC2BCD2BC82B450886008701D0
:1007A0008101460886008701810108002000CA01F6
:1007B0002E2C0F19DC2BDD2BF12B7230BF00983063
:1007C000C0009431FD2483312000CA01CA0A4308C5
:1007D0008600440887008101450886004608870096
:1007E000810157080319F52BF62B2E2C87316C2726
:1007F00083312000C7004708C900212C9C30BF006E
:100800009830C0009431FD248331200043088600D5
:100810004408870081014508860046088700810159
:1008200002302000C8000430C700BA30890B162CF3
:10083000C70B162CC80B162C00002000CA01CA0AD0
:100840002E2C4908C700C8014808003A0319292C72
:100850002E2C4708343A0319FE2B2E2C4A08031974
:10086000322C332CD92B0800933181238431003A68
:1008700003193B2C3C2C6C2C492C9331592384318B
:10088000882C93315E238431882C93316823843102
:10089000882C21002F08FA007A08F9000630A03EC3
:1008A00086008701413F8A00403F0A008431FB00F7
:1008B000FC017C08003A03195E2C452C7B08013AA8
:1008C0000319452C033A03193D2C013A0319412C15
:1008D000073A0319452C452C21003C101730A03E47
:1008E00086008701403F84008501810A000893311A
:1008F0004F23843101302100B8020030B93B380861
:100900003904031D842C852C872C0630882C033059
:1009100008002000C800C701D72C0F19902C912C7B
:100920009F2C4130BF009830C0009431FD248431A9
:100930002000C701C70A48088600870181015708BF
:100940000319A32CA42CD72C87316C2784312000C9
:10095000C4004408C600CA2CA130BF009930C000B2
:100960009431FD24843120004808860087018101EC
:10097000810A02302000C5000430C400BA30890B5F
:10098000BF2CC40BBF2CC50BBF2C00002000C7011F
:10099000C70AD72C4608C400C5014508003A031908
:1009A000D22CD72C4408313A0319AC2CD72C470849
:1009B0000319DB2CDC2C8D2C08009331F9238431B6
:1009C000063095314D25843102302000B7000430C7
:1009D000B600BA30890BEA2CB60BEA2CB70BEA2C1E
:1009E00000002000A901A90A013087319B2784312A
:1009F00020002F08AA002E08A90096315226843123
:100A00002000A901A90A023087319B2784312000E8
:100A10003108AA003008A9009631522684312000FE
:100A2000A901A90A033087319B27843120003308AC
:100A3000AA003208A9009631522684312000A9016B
:100A4000A90A043087319B27843120003508AA0089
:100A50003408A90096315226843108002000D300C2
:100A60005308860087010108CD00CE014D08C30060
:100A70004E08C4004B08860087010108CF00D00152
:100A80004F08C5005008C6008331D62385312000A9
:100A90004B08860087010108CD00CE014D08C30038
:100AA0004E08C4004C08860087010108CF00D00121
:100AB0004F08C5005008C60053088600870101088A
:100AC000D100D2015108C7005208C80087310A2757
:100AD000853129302000CE009630CD007F30890B43
:100AE0006F2DCD0B6F2DCE0B6F2D08002000A801B0
:100AF000A9012000AA01AB0197314D2785310B30A8
:100B00002000A7002630A6005D30890B852DA60B9E
:100B1000852DA70B852D003201302000AA0700305B
:100B2000AB3D2B08803AA60080302602031D9A2D8B
:100B300004302A02031C9D2D9E2D7C2D0B3020009D
:100B4000A7002630A6005D30890BA42DA60BA42D8E
:100B5000A70BA42D003201302000A8070030A93DCA
:100B60002908803AA60080302602031DB92D0430E2
:100B70002802031CBC2DBD2D792D080021009112E7
:100B80008B302000A3000630A4009331E723853189
:100B900021001112B4302000A3001630A4009331BC
:100BA000F0238531083023009F0090309D002430D1
:100BB0009E0040309B0003309C000C302000A300BE
:100BC0001330A4009331D523853123302000A300B6
:100BD0001330A4009331DE2385311F302000A300A1
:100BE0001330A4009331CC2385312100D1012000A2
:100BF000DC01DB010830A5002508DA00D901D801A5
:100C0000D701210091160800933119238631FA008B
:100C100021003708860087017A0881000130FA0038
:100C20007A08B7070130B8020030B93B38083904F8
:100C300003191B2E1C2E212E93312B2386310530B8
:100C4000492EBC152B2E933177238631492E9331B3
:100C500072238631492E2C08FA007A08F9002108FF
:100C60008A0020080A008631FB00FC017C08003A5B
:100C700003193B2E272E7B08013A0319272E033A2E
:100C80000319232E013A0319232E073A0319272E9D
:100C9000272E08002000280803194F2E502E552E0D
:100CA0002808031D542E552E5A2E26089331AC23A6
:100CB00086318A2E2808033E86008701160001042B
:100CC0000319632E642E812E2808033E86008701B7
:100CD000403FA900413FAA00280A86008701403F03
:100CE000AB00413FAC002C08803AAD002A08803AA6
:100CF0002D02031D7D2E29082B020318802E812E24
:100D00008A2E2000280A86008701013081074131A0
:100D10000318810A0800200059083E3E8600013071
:100D20008700810123001D1D962E972EA42E2000E2
:100D300059083E3E86000130870081142100480892
:100D40008A0047080A00863123009D1CA82EA92E80
:100D5000B62E200059083E3E86000130870001155E
:100D6000210046088A0045080A00863120005908FB
:100D70003E3E86000130870001080319C02EC12EB7
:100D8000C82E210044088A0043080A008631CB2E71
:100D90009531A925863108002000A9002908A7005F
:100DA0002708AA00EE2E0130A5020030A63B2A0833
:100DB00086008701AA0A2408A8002308A700A30A1E
:100DC0000319A40A27088400280885000008C03FEA
:100DD0008908031DEC2EED2EEE2EFD2E250826048F
:100DE000031DF32EF42ED32EFD2E2A088600870134
:100DF00081010130A7002708AA070130A5020030B1
:100E0000A63B250A031D082F260A031D082F092FBC
:100E1000F52E0800200047088600480887000108D2
:100E2000031D132F142F1B2F7230BF009830C000EA
:100E30009431FD2487312000430886004408870050
:100E40008101450886004608870081014708860021
:100E500048088700810100309431492487310030EF
:100E6000943156248731003094316324873187319F
:100E7000F927873108002000BC003808BE00370879
:100E8000BD002100BD01BE01592F3D30BA003A0816
:100E9000AE003908BB003B08AF003C088231282275
:100EA000873120002E082100BD0720002F082100D7
:100EB000BE3D20003D0884003E0885001200031D51
:100EC000622F632F452F21003E082000B80021002B
:100ED0003D082000B7000800200057080319712FB3
:100EE000722F6C2F58083E3E8600013087000108A3
:100EF000A30023082100D10020005808463E8600A8
:100F0000013087000108A3002308A4000130A300DA
:100F10002308D80708305802031C8F2F902F912FD9
:100F2000D8012100911201302000D7022100911632
:100F30002000240808002000AC00B62F2908BF3E7E
:100F400095314D258731C92F2908933E95314D257F
:100F50008731C92F2908D33E95314D258731C92FB7
:100F600029087F3E95314D258731C92F2C08AA00CD
:100F7000AB012B08003A0319BE2FB02F2A08023A02
:100F800003199E2F013A0319A42F073A0319AA2F18
:100F9000B02F08002100BC15DA2F9331632387316D
:100FA000F82F93311C2387310330F82F93316823B6
:100FB0008731F82F2C08FA007A08F90021088A00F6
:100FC00020080A008731FB00FC017C08003A031965
:100FD000EA2FD62F7B08013A0319D62F033A0319BB
:100FE000CD2F013A0319CD2F073A0319D12FD62F50
:100FF000080022000C108C100C118C110C1208002F
:101000002000911108002000A801A90197314D2767
:1010100088310B302000A7002630A6005D30890BF8
:101020000F28A60B0F28A70B0F2800320130200035
:10103000A8070030A93D2908803AA6008030260282
:10104000031D242802302802031C272828280628EC
:10105000080095310F2588318B170B1794310C241C
:1010600088314E308231D52288312100EE01ED01E8
:10107000EC01E801EB01AF302000AE009830AF008A
:101080002F30B0009930B1008430B2009930B300F5
:10109000AE30B4009830B5008431DD24883115308D
:1010A0002000D5004B30D400BE30890B5528D40B1E
:1010B0005528D50B552800009631D72688312000B9
:1010C00024082100EA00200023082100E900690823
:1010D0006A0403196C286D28112994317D24883104
:1010E0008531762588312100E601E701DA28E730ED
:1010F0002000A3009830A4001430A5000030A60002
:10110000D2308631CC268831B128F9302000A300B6
:101110009830A4001430A5000030A600D2308631EB
:10112000CC268831B1280B302000A3009930A400D0
:101130001430A5000030A600D2308631CC2688318C
:10114000B1286A08003A0319A628B1286908013AAB
:1011500003197728033A03198528013A03199328BC
:10116000B128AF302000AE009830AF00D230B000D0
:101170000030B1004130B2009930B3008730B40084
:101180009830B5008431DD24883193319323883140
:101190009731A52788319631D72688312000240839
:1011A0002100EA00200023082100E9000130E607C1
:1011B0000030E73D6708803A2000D40080305402B8
:1011C000031DE5280230210066020318E828E928FB
:1011D000F028210069086A04031DEF28F028A128DF
:1011E000210069086A040319F628F7281129E80183
:1011F000E80A8531762588311129AF302000AE000C
:101200009830AF00D230B0000030B1005B30B20097
:101210009830B3007430B4009930B5008431DD24C7
:10122000883121006808031D16291729FD28680840
:10123000031D1B291C295C28AF302000AE0098300C
:10124000AF001D30B0009930B100AE30B200983020
:10125000B3008430B4009930B5008431DD24883186
:1012600003302000D5000830D4007730890B3629B0
:10127000D40B3629D50B3629EE302000D400540883
:10128000C300EC30843189248831883103208831CF
:1012900027302000AE009A30AF00AE30B000993059
:1012A000B100AE30B2009830B300AE30B400983028
:1012B000B5008431DD2488312100EE01EE0A0030D2
:1012C00094314924883100309431562488310130DA
:1012D00094316324883103302000D5000830D400D5
:1012E0007730890B7129D40B7129D50B7129013005
:1012F00094318A24883193314B23883100309431E2
:1013000070248831003094313C2488311130200021
:10131000D5003C30D400CB30890B8C29D40B8C29E0
:10132000D50B8C290030813161218831003A0319B5
:101330009A299B299C29BB292100EE0127302000F6
:10134000C3009A30C400EE30D4005408C500ED301C
:10135000D5005508C600833160238831EE30200067
:10136000D4005408CB00ED30D5005508CC00EC304B
:1013700085312E25883121006E080319C029C12925
:10138000152A2F302000AE009A30AF00B330B000E5
:101390009930B100AE30B2009830B300AE30B40036
:1013A0009830B5008431DD2488319331332388317E
:1013B0000030943170248831013094313C248831DC
:1013C00011302000D5003C30D400CB30890BE62909
:1013D000D40BE629D50BE629013081316121883112
:1013E000003A0319F429F529F629152A2100EE01FE
:1013F0002F302000C3009A30C400EE30D4005408CF
:10140000C500ED30D5005508C60083316023883112
:10141000EE302000D4005408CB00ED30D500550844
:10142000CC00EC3085312E25883121006E0803195F
:101430001A2A1B2A6F2A37302000AE009A30AF00DC
:10144000B330B0009930B100AE30B2009830B30084
:10145000AE30B4009830B5008431DD24883193314A
:101460003323883101309431702488310030943135
:101470003C24883111302000D5003C30D400CB30E2
:10148000890B402AD40B402AD50B402A00308131E9
:1014900061218831003A03194E2A4F2A502A6F2AB7
:1014A0002100EE0137302000C3009A30C400EE3036
:1014B000D4005408C500ED30D5005508C60083316E
:1014C00060238831EE302000D4005408CB00ED308A
:1014D000D5005508CC00EC3085312E25883121000F
:1014E0006E080319742A752AC92A3F302000AE00FD
:1014F0009A30AF00B330B0009930B100AE30B200D6
:101500009830B300AE30B4009830B5008431DD249B
:10151000883193314B2388310030943170248831E5
:10152000003094313C24883111302000D5003C300B
:10153000D400CB30890B9A2AD40B9A2AD50B9A2A3D
:101540000030813161218831003A0319A82AA92A83
:10155000AA2AC92A2100EE0137302000C3009A30A0
:10156000C400EE30D4005408C500ED30D500550855
:10157000C600833160238831EE302000D400540847
:10158000CB00ED30D5005508CC00EC3085312E2550
:10159000883121006E080319CE2ACF2A232B473029
:1015A0002000AE009A30AF00B330B0009930B100E7
:1015B000AE30B2009830B300AE30B4009830B50011
:1015C0008431DD24883193314723883100309431D0
:1015D00070248831013094313C248831113020004E
:1015E000D5003C30D400CB30890BF42AD40BF42A3C
:1015F000D50BF42A0130813161218831003A031979
:10160000022B032B042B232B2100EE01473020005B
:10161000C3009A30C400EE30D4005408C500ED3049
:10162000D5005508C600833160238831EE30200094
:10163000D4005408CB00ED30D5005508CC00EC3078
:1016400085312E25883121006E080319282B292B7E
:101650007D2B4F302000AE009A30AF00B330B00089
:101660009930B100AE30B2009830B300AE30B40063
:101670009830B5008431DD24883193314723883197
:101680000130943170248831003094313C24883109
:1016900011302000D5003C30D400CB30890B4E2BCC
:1016A000D40B4E2BD50B4E2B00308131612188316C
:1016B000003A03195C2B5D2B5E2B7D2B2100EE0184
:1016C0004F302000C3009A30C400EE30D4005408DC
:1016D000C500ED30D5005508C60083316023883140
:1016E000EE302000D4005408CB00ED30D500550872
:1016F000CC00EC3085312E25883121006E0803198D
:10170000822B832BD72B57302000AE009A30AF00AE
:10171000B330B0009930B100AE30B2009830B300B1
:10172000AE30B4009830B5008431DD248831933177
:101730004B2388310030943170248831003094314B
:101740003C24883111302000D5003C30D400CB300F
:10175000890BA82BD40BA82BD50BA82B00308131DB
:1017600061218831003A0319B62BB72BB82BD72B40
:101770002100EE0157302000C3009A30C400EE3043
:10178000D4005408C500ED30D5005508C60083319B
:1017900060238831EE302000D4005408CB00ED30B7
:1017A000D5005508CC00EC3085312E25883121003C
:1017B0006E080319DC2BDD2B342C5F302000AE00CB
:1017C0009A30AF006F30B0009A30B100AE30B20046
:1017D0009830B300AE30B4009830B5008431DD24C9
:1017E0008831003094318A24883193314B238831F9
:1017F000933143238831003094313C2488311130B7
:101800002000D5003C30D400CB30890B052CD40B04
:10181000052CD50B052C0030813161218831003A2F
:101820000319132C142C152C342C2100EE015F30DD
:101830002000C3009A30C400EE30D4005408C50024
:10184000ED30D5005508C600833160238831EE3075
:101850002000D4005408CB00ED30D5005508CC0052
:10186000EC3085312E25883121006E080319392C82
:101870003A2C8D2C67302000AE009A30AF006F30CC
:10188000B0009A30B100AE30B2009830B300AE3044
:10189000B4009830B5008431DD248831933133238E
:1018A000883193313B238831013094313C24883195
:1018B00011302000D5003C30D400CB30890B5E2C99
:1018C000D40B5E2CD50B5E2C013081316121883127
:1018D000003A03196C2C6D2C6E2C8D2C2100EE011E
:1018E00067302000C3009A30C400EE30D4005408A2
:1018F000C500ED30D5005508C6008331602388311E
:10190000EE302000D4005408CB00ED30D50055084F
:10191000CC00EC3085312E25883121006E0803196A
:10192000922C932CE62CDF302000AE009930AF00D3
:101930006F30B0009A30B100AE30B2009830B300D2
:10194000AE30B4009830B5008431DD248831933155
:1019500033238831933143238831003094313C2440
:10196000883111302000D5003C30D400CB30890BB9
:10197000B72CD40BB72CD50BB72C0030813161219B
:101980008831003A0319C52CC62CC72CE62C21003F
:10199000EE01DF302000C3009930C400EE30D400E7
:1019A0005408C500ED30D5005508C60083316023CA
:1019B0008831EE302000D4005408CB00ED30D50043
:1019C0005508CC00EC3085312E25883121006E0879
:1019D0000319EB2CEC2C3F2DE8302000AE009930A1
:1019E000AF006F30B0009A30B100AE30B200983026
:1019F000B300AE30B4009830B5008431DD248831B6
:101A000093314B2388319331432388310030943113
:101A10003C24883111302000D5003C30D400CB303C
:101A2000890B102DD40B102DD50B102D00308131CA
:101A300061218831003A03191E2D1F2D202D3F2DC5
:101A40002100EE01E8302000C3009930C400EE30E0
:101A5000D4005408C500ED30D5005508C6008331C8
:101A600060238831EE302000D4005408CB00ED30E4
:101A7000D5005508CC00EC3085312E258831210069
:101A80006E080319442D452D982DF1302000AE002D
:101A90009930AF006F30B0009A30B100AE30B20074
:101AA0009830B300AE30B4009830B5008431DD24F6
:101AB0008831933147238831933143238831003073
:101AC00094313C24883111302000D5003C30D400C2
:101AD000CB30890B692DD40B692DD50B692D0030C6
:101AE000813161218831003A0319772D782D792DC4
:101AF000982D2100EE01F1302000C3009930C40080
:101B0000EE30D4005408C500ED30D5005508C600AD
:101B1000833160238831EE302000D4005408CB009C
:101B2000ED30D5005508CC00EC3085312E258831BC
:101B300021006E0803199D2D9E2DF12DFA302000F5
:101B4000AE009930AF006F30B0009A30B100AE30C7
:101B5000B2009830B300AE30B4009830B500843194
:101B6000DD24883193314723883193313F238831F5
:101B7000013094313C24883111302000D5003C30B4
:101B8000D400CB30890BC22DD40BC22DD50BC22D66
:101B90000130813161218831003A0319D02DD12DD6
:101BA000D22DF12D2100EE01FA302000C300993032
:101BB000C400EE30D4005408C500ED30D5005508FF
:101BC000C600833160238831EE302000D4005408F1
:101BD000CB00ED30D5005508CC00EC3085312E25FA
:101BE000883121006E080319F62DF72D4A2E033097
:101BF0002000AE009A30AF006F30B0009A30B100D4
:101C0000AE30B2009830B300AE30B4009830B500BA
:101C10008431DD2488319331472388319331432344
:101C20008831003094313C24883111302000D500B7
:101C30003C30D400CB30890B1B2ED40B1B2ED50B84
:101C40001B2E0030813161218831003A0319292E81
:101C50002A2E2B2E4A2E2100EE0103302000C30035
:101C60009A30C400EE30D4005408C500ED30D500E1
:101C70005508C600833160238831EE302000D4003F
:101C80005408CB00ED30D5005508CC00EC30853140
:101C90002E25883121006E0803194F2E502EA32EB9
:101CA0000C302000AE009A30AF006F30B0009A3098
:101CB000B100AE30B2009830B300AE30B40098300E
:101CC000B5008431DD24883193314B238831933141
:101CD0003F238831003094313C248831113020007A
:101CE000D5003C30D400CB30890B742ED40B742E2D
:101CF000D50B742E0030813161218831003A0319EF
:101D0000822E832E842EA32E2100EE010C30200083
:101D1000C3009A30C400EE30D4005408C500ED3042
:101D2000D5005508C600833160238831EE3020008D
:101D3000D4005408CB00ED30D5005508CC00EC3071
:101D400085312E25883121006E080319A82EA92E71
:101D5000172F15302000AE009A30AF005230B0007F
:101D60009930B100AE30B2009830B300C230B40048
:101D70009830B5008431DD248831013094318A24D3
:101D80008831933147238831013094317024883170
:101D9000003094313C24883111302000D5003C3093
:101DA000D400CB30890BD22ED40BD22ED50BD22E11
:101DB00021302000BF009830C0009431FD248831CC
:101DC000EB302000D4005408A50021006C088031BD
:101DD000822088312000D50055082100ED006D08D3
:101DE000031DF32EF42E172F6B08031DF82EF92E6A
:101DF000172FEE0137302000C3009A30C400EE30B8
:101E0000D4005408C500ED30D5005508C600833114
:101E100060238831EE302000D4005408CB00ED3030
:101E2000D5005508CC00EC3085312E2588312100B5
:101E30006E0803191C2F1D2F8C2F6B08031D212FDB
:101E4000222F8C2F1E302000AE009A30AF0063305E
:101E5000B0009930B100AE30B2009830B300C2305B
:101E6000B4009830B5008431DD24883193314723A4
:101E700088310130943170248831013094313C2410
:101E8000883111302000D5003C30D400CB30890B94
:101E9000472FD40B472FD50B472F00302000BF0012
:101EA0009830C0009431FD248831EB302000D400FC
:101EB0005408A50021006C08803182208831200060
:101EC000D50055082100ED006D08031D682F692F0E
:101ED0008C2F6B08031D6D2F6E2F8C2FEE011E3083
:101EE0002000C3009A30C400EE30D4005408C5006E
:101EF000ED30D5005508C600833160238831EE30BF
:101F00002000D4005408CB00ED30D5005508CC009B
:101F1000EC3085312E25883121006E080319912F70
:101F2000922F5C286B08031D962F972FB02FC83077
:101F30002000AE009930AF00DE30B0009830B10024
:101F40009330B2009930B3008730B4009830B500B8
:101F50008431DD2488310130943149248831C72F00
:101F6000C8302000AE009930AF00D430B0009930B6
:101F7000B100BB30B2009930B3008730B400983064
:101F8000B5008431DD24883194317D248831873156
:101F9000F9278831003094313C24883122008C129A
:101FA000963171268831EC302000C3000030C40027
:101FB000EE30C5000030C6008331D6238831EE30C4
:101FC0002000C3000030C400ED30C5000030C60062
:101FD000EC30C7000030C80087310A278831210063
:101FE000EB0129302000D5009630D4007F30890BDA
:101FF000F72FD40BF72FD50BF72F5C2880314A2809
:1020000054341334C3341334B334133434340434F5
:1020100004340634A5341334CA3407345934133421
:102020005E34133463341334683413346D3413342E
:1020300072341334773413347C341334213417342A
:102040002D343E3420345434453453345434203405
:1020500043344F344E3446344F3452344D34453487
:1020600020342D34203441345434543445344E34E7
:102070005434453420344134433451345534493494
:102080005434543445344D3445344E3454340D3482
:042090000A340034DA
:10261800080008340130080024009614080024003B
:102628001615080024009615080024001108080053
:102638002000911508009531A92593310800230041
:102648001D121D16080024009616161608002400F0
:102658009612161608009731D227933108002200E7
:102668008C140C1008001630210097000800220076
:102678000C168C11080022000C128C150800220080
:102688000C128C11080022000C148C100800220077
:102698008C100C100800F00070082400910008004D
:1026A8002100BC10BB010E30080093311023933178
:1026B8000130080093311023933102300800933120
:1026C80010239331013008009331132393310030E4
:1026D800080093312B2393310530080093312723C9
:1026E80093310A30080093312723933109300800C9
:1026F8002100BC10BB010E3008002400160E890C06
:10270800890C0139080094311724933124001614D8
:10271800080094311724933124001615080020006E
:102728000F19972B982B932B080064008001013117
:10273800890B9A2B0034FE0012001E00FE0BA02B02
:10274800003421003C1093311623933104300800E3
:102758002000A5002508973179279331080021002A
:102768003C14363593314F23933103300800F03051
:1027780021009E009B019C0101309D000800210062
:102788003C140314360D93314F2393310530080060
:10279800200024082100C400200023082100C300D1
:1027A8000800200024082100C80020002308210078
:1027B800C7000800200024082100C60020002308C4
:1027C8002100C5000800200024082100CA002000BC
:1027D80023082100C9000800200024082100CC009B
:1027E800200023082100CB000800013095314D2539
:1027F80093313530890BFE2B00000800C0302400CF
:1028080094000830950096014F3092009512080008
:102818002830240095009601940127309200210069
:102828008E150E160800240014191B2C1C2C172CAE
:1028380016081F39031D212C222C172C0800703074
:102848002100990098012200960121001A1F2D2CC1
:102858002E2C292C08007608F1007508F00077085E
:10286800F8007808F20000309631FB269431080011
:102878002000A30023080319422C432C462C2200D5
:102888000C17482C22000C1308002000A300230872
:1028980003194F2C502C532C22001014552C2200B5
:1028A800101008002000A300230803195C2C5D2CDD
:1028B800602C22008D16622C22008D120800200048
:1028C800A30023080319692C6A2C6D2C220010150B
:1028D8006F2C2200101108002000A3002308031900
:1028E800762C772C7A2C22000C157C2C22000C11CB
:1028F8000800013094314924943101309431562430
:102908009431013094316324943108002000A300ED
:1029180023080319902C912C952C22008C138C16CB
:10292800982C22008C178C120800F3002100BC1D83
:102938009E2C9F2CA82C7308F2007208B70071080F
:10294800B9007008B800BC1108002000A300943139
:102958001724943120002308240091002000911DA1
:10296800B62CB72CB22C911108000230F0000030C0
:10297800F10079089431992494310030F500F6007B
:10298800F70194312F249431043008000130F0000D
:102998000030F10079089431992494310030F50021
:1029A800F600F70194312F249431023008000230E8
:1029B800F0000030F1007908943199249431003006
:1029C800F500F600F70194312F2494310230080005
:1029D8000130F0000030F1007908943199249431E5
:1029E8000030F500F600F70194312F2494310430BB
:1029F800080041302000C1004108C2004008B8006A
:102A08003F08B7004230C1004108B90000308731A3
:102A18003B279431080094310224953196313326AE
:102A2800953194312324953193313723953193315E
:102A3800BB2395318531BE25953108002000A400BF
:102A4800933187239531200056089431A924953174
:102A58002000240821006F049431A9249531933172
:102A68008D23953108002000A6007D08A5002508C3
:102A7800A604260804389531222595312000260819
:102A8800FB399531222595314230890B492D003289
:102A980008002000A800FD012808F03995313725E5
:102AA800953120002808A7000330A735FF3E031DF5
:102AB800592D2735F03995313725953108002000F3
:102AC800A800FD01FD0A2808F03995313725953110
:102AD80020002808A7000330A735FF3E031D702DEE
:102AE8002735F03995313725953108002000B40095
:102AF8003108A9003008A80034089531C42595315B
:102B080020002308B2002408B300340832079631A5
:102B1800922695312000340808007908860087013C
:102B2800403FF000413FF1007908023E86008701EE
:102B380001089431992495310030F500F600F70129
:102B480094312F2495310230080023001908F00031
:102B580020005908463E8600013087007008810031
:102B68000130F0007008D90708305902031CBD2D48
:102B7800BE2DBF2DD9010130F0007008D70708001D
:102B88002000A7002708A5002508A600CF2D0130A2
:102B9800A5002508A7072708860001308700010837
:102BA800031DD72DD82DCB2D26082702A300A4015D
:102BB800A31BA40308002000A400A30124080319F0
:102BC800E62DE72DED2D8F1BEA2DEB2DED2DA30125
:102BD800A30A2408031DF12DF22DF82D8F1FF52DC2
:102BE800F62DF82DA301A30A230808002000A4004D
:102BF800A30124080319012E022E082E0F19052EF1
:102C0800062E082EA301A30A2408031D0C2E0D2E40
:102C1800132E0F1D102E112E132EA301A30A230805
:102C280008002D343E34203445345234523445346F
:102C3800553452343A3420340034003400340034EB
:102C4800003400340034003400340D340A340034C5
:102C580000340034003400340034003400342200DE
:102C680090018F018C018D018E01083021009000A8
:102C78008C01CF308D00BF308E00FF308F002300D5
:102C88008F013F308D0090013C308C002400900172
:102C98008D012100951722009D0108002000AC013C
:102CA800AD01652E29082C0784002A082D3D8500D2
:102CB800000895316325963101302000AC070030BB
:102CC800AD3D29082C0784002A082D3D85001200F7
:102CD800031D6F2E702E562E080020302000BF00D6
:102CE8009030C0009431FD2496312000C401C50104
:102CF80088310320963101302000C4070030C53DDB
:102D08004508803AC30080304302031D8D2E0230EF
:102D18004402031C902E912E7C2E08002000AF0048
:102D28002908AD002808AC002F08AA002A08AE0020
:102D38002E08860001308700AE0A2D08AB002C084B
:102D4800AA00AC0A0319AD0A2A0884002B088500DA
:102D58000008C03F8908031DB22EB32E9C2E080020
:102D6800083020005A020318BA2EBB2ED42E5B0856
:102D78004E3E860001308700010823009A0001308A
:102D8800F00070082000DB0708305B02031CCD2E22
:102D9800CE2ECF2EDB010130F0007008DA07D62ED8
:102DA8002100111208002000A501A6010F1CDD2E2C
:102DB800DE2EE22E0130A5000030A6008F1CE52E85
:102DC800E62EEA2E0230A5000030A6000F1CED2EDC
:102DD800EE2EF62E8F1CF12EF22EF62E0330A500C5
:102DE8000030A6002608A4002508A3000800F40067
:102DF800700871040319012F022F132F7435A03E98
:102E0800860087017008C03F7108C13F7208F3004F
:102E18007408AC3E8600870173088100202F743542
:102E2800A03E860087010E30C03F1330C13F7408B2
:102E3800AC3E860087018101080021003C10023069
:102E4800FA007A08BB00302F9331632397314C2F57
:102E58009331682397314C2F2E08FA007A08F9002D
:102E68000430A03E86008701413F8A00403F0A00A7
:102E78009731FB00FC017C08003A0319442F2C2FE2
:102E88007B08023A0319282F013A0319282F2C2FFF
:102E980008002000A401A50122000D16063020001C
:102EA800A3003030890B562FA30B562F00002200A9
:102EB8000D1206302000A3003030890B612FA30BC0
:102EC800612F000001302000A4070030A53D25082F
:102ED800803AA30080302302031D742F323024026D
:102EE800031C772F782F502F08002000A4005A08C1
:102EF80003197F2F802F7B2F2100111A842F852FF4
:102F08008A2F2000240823009A00A22F11122000E3
:102F18002408A3005C084E3E860001308700230881
:102F280081000130A3002308DC0708305C02031C81
:102F38009E2F9F2FA02FDC010130DA0221001116ED
:102F48000800013094318A2497319331472397310F
:102F58000B302000A5002630A4005D30890BB22F6D
:102F6800A40BB22FA50BB22F00320130943170247C
:102F780097310B302000A5002630A4005D30890B66
:102F8800C32FA40BC32FA50BC32F003201309431DC
:102F98007024973193314B239731080088310020F2
:102FA800973121003C1CD92FDA2FE82F9331812348
:102FB8009731003A0319E12FE22FE82F0F30200054
:102FC800A00020082100BA0021003A082000A00033
:102FD800A101A035A10D0030200784009030213DCB
:102FE8008500013F8A00003F0A0097312000A200B7
:102FF80022082100BA00080041347434743465345E
:103008006E34743465342034763461346C34693405
:1030180064346134743469346F346E3420346C34FD
:10302800653464347334203462346C3465347534F4
:10303800653473340D340A340034413474347434D0
:1030480065346E34743465342034763461346C34C9
:10305800693464346134743469346F346E342034C0
:103068006C346534643420347634653472347434A2
:10307800653473340D340A3400342D343E3420342E
:10308800543445345334543420344D3441344E345C
:10309800553445344C34203445344E34203443348C
:1030A8004F345534523453340D340A3400344D34CB
:1030B800413449344E34543445344E3441344E341A
:1030C8004334453420344E34453443344534533442
:1030D8005334413449345234453400342D343E3469
:1030E8002034463449344E3420345434453453342F
:1030F800543420344D3441344E34553445344C34F2
:103108000D340A34003441345434543445344E3484
:1031180054344534203441344334513455344934DB
:103128005434543445344D3445344E3454340034D6
:103138002D343E34203454344534533454342034FC
:103148004134433451345534493454345434453477
:103158000D340A3400345434453453345434203450
:1031680043344134523454344534203444343834AC
:1031780035343534453444343234003441345034F1
:10318800503455345934453452342034533455343A
:10319800523420344F344B342F344E344F344B3464
:1031A8000034543445345334543420344E344F347A
:1031B8004E34203443344F344E3446344F34523432
:1031C8004D34453400344434453446344134553460
:1031D80054342034433450343134203420342034AF
:1031E80020342034203420340034443445344634E8
:1031F8004134553454342034433450343234203438
:103208002034203420342034203420340034443412
:1032180045344634413455345434203443345034DE
:103228003134203445345434203443345034323427
:10323800003441345434543445344E3454344534D1
:103248002034443445344D344134523452344134BA
:1032580047344534003450344F34533449345434AB
:1032680049344F344E344E34453452342034433488
:103278004134523454344534003450344C3441349D
:103288004334453452342034433441345234543472
:1032980045342034523445344634003454344534AB
:1032A8005334543420344C34453444345334203467
:1032B8005634453452345434453453340034543439
:1032C80045345334543420344C3445344434533422
:1032D800203442344C344534553445345334003466
:1032E80052344534443445344D34413452345234E4
:1032F80045345A342034423441344E344334003453
:1033080041345034503455345934453452342034CF
:1033180053345534523420344F344B3400345234FF
:1033280045345434493452344534523420344334C7
:10333800413452345434453400342D343E3420342E
:10334800543445345334543420344F344E340D34CB
:103358000A340034543445345334543420344D340E
:103368004F344434453420344234503400345234D9
:10337800453450344534543445345234203454346C
:103388004534533454340034463449344E342034AC
:10339800443445342034543445345334543400349C
:1033A80048344F34523453342034443445344C3444
:1033B800413449340034453454344134503445346C
:1033C80020343134303400344534543441345034AA
:1033D80045342034313431340034453454344134A4
:1033E8005034453420343134323400344534543484
:1033F8004134503445342034313433340034453486
:103408005434413450344534203431343434003465
:10341800453454344134503445342034313435340F
:103428000034453454344134503445342034313434
:10343800363400344534543441345034453420341F
:1034480031343734003445345434413450344534FD
:103458002034313400344534543441345034453404
:1034680020343234003445345434413450344534F3
:1034780020343334003445345434413450344534E2
:1034880020343434003445345434413450344534D1
:1034980020343534003445345434413450344534C0
:1034A80020343634003445345434413450344534AF
:1034B800203437340034453454344134503445349E
:1034C800203438340034453454344134503445348D
:1034D8002034393400344D344F34443445342034A6
:0634E800543443340034AB
:020000040001F9
:08000000FF3FFF3FFF3FFF3F00
:04000E00E43FFF3F8D
:00000001FF
