:1000000080314A28053008007E1480310B1F0928F2
:100010000A2848282100111E0E280F281B2820001E
:10002000111E132814281B2821004C088A004B0895
:100030000A00803148282100911E1F2820282C28E2
:100040002000911E242825282C2821004A088A00F7
:1000500049080A00803148282100921D30283128A3
:100060003D282000921D352836283D2821005008C3
:100070008A004F080A00803148282100911D41283C
:10008000422848282000911D46284728482836281D
:100090007E10090080314C2821008731FF278031F4
:1000A000EE00F2308400963085002030860001306A
:1000B00087001E30943185248031FD015630840044
:1000C00000308500073094317F248031A0308400D7
:1000D00000308500323094317F2480313E308400FE
:1000E000013085001A3094317F248031A0308400A3
:1000F00001308500203094317F2480317E10200033
:10010000883168282000B6002E0886008701403F0D
:10011000B000413FB1003008840031088500120072
:10012000253A031D942895280B292E08860087015F
:100130000130810741310318810A2200D601D7011D
:100140002100C101C201FF30BF00FF30C00020000C
:100150002E0886008701403FB000413FB1003008C3
:1001600084003108850012006E3A031DB828B928B2
:10017000D8282E08860087010130810741310318F5
:10018000810A2F0886008701403F84008501810A8B
:100190000008B0003008B50035088600870121004E
:1001A0003D08C03F3E08C13F2000AE01AF012E29EF
:1001B0002E0886008701403FB000413FB100300863
:1001C0008400310885001200253A031DE828E9283B
:1001D00002292E088600870101308107413103186A
:1001E000810A2530A6000030A7003608B00030088C
:1001F000A8008531A525803101302000AE000030F7
:10020000AF002E292E088600870101308107413179
:100210000318810AD4282E0886008701403FB000C9
:10022000413FB10030088400310885000008B20069
:10023000B3013208A6003308A7003608B40034081A
:10024000A8008531A525803120002E088600870171
:100250000130810741310318810AFC280800200081
:10026000A500A601A701A8012508031938293929E5
:1002700077290F1C3C293D2944298F1C40294129FD
:100280004429A601A60A7729A901A90A64290130EF
:100290002000A7070030A83D05302000A4000F3043
:1002A000A300F130890B5229A30B5229A40B522928
:1002B00020000F1C5C295D2964298F1C602961299D
:1002C0006429A601A60AA901290803196829692930
:1002D00077292808803AA30080302302031D722961
:1002E00003302702031C7529762947297729200026
:1002F0002508031D7C297D29BB290F188029812908
:1003000088298F18842985298829A601A60ABB294E
:10031000A901A90AA82901302000A7070030A83D9B
:1003200005302000A4000F30A300F130890B96297E
:10033000A30B9629A40B962920000F18A029A12908
:10034000A8298F18A429A529A829A601A60AA901C8
:1003500029080319AC29AD29BB292808803AA30034
:1003600080302302031DB62903302702031CB9295C
:10037000BA298B29BB292000260808002000AB00E1
:100380002B08A9002908D60000309531FF258131BE
:100390009C302000A900D730890BCC29A90BCC298F
:1003A000033096312A2681311A302000A900F83016
:1003B000890BD829A90BD8290000033096312A26A9
:1003C00081311A302000A900F830890BE529A90BEA
:1003D000E5290000033096312A2681311A302000A9
:1003E000A900F830890BF229A90BF229000002308C
:1003F00096312A2681311A302000A900F830890B65
:10040000FF29A90BFF290000283096312A268131C7
:1004100002302000AA000430A900BA30890B0E2A4D
:10042000A90B0E2AAA0B0E2A00000C3096312A26A0
:10043000813102302000AA000430A900BA30890BB3
:100440001F2AA90B1F2AAA0B1F2A00000130963170
:100450002A26813102302000AA000430A900BA30D7
:10046000890B302AA90B302AAA0B302A000006304B
:1004700096312A26813102302000AA000430A900DA
:10048000BA30890B412AA90B412AAA0B412A000044
:1004900008002000A800A901AA0128080319512A70
:1004A000522A982A932A57080319572A582A932A16
:1004B0008631C72682312000A5002508A700832A9F
:1004C00002302000A6000430A500BA30890B662A4D
:1004D000A50B662AA60B662A00002000A901A90A1E
:1004E000AA01AA0A932A02302000A6000430A5001F
:1004F000BA30890B792AA50B792AA60B792A000034
:100500002000A901702A2708A500A6012608003AA4
:1005100003198B2A932A2508323A0319602A013AD3
:100520000319732A932A2A080319972A982A532A07
:100530002808031D9C2A9D2ABF2AB92A013096311A
:10054000BC268231003A0319A62AA72AAB2A20002A
:10055000A901AA01AA0A01309631D7268231003AB0
:100560000319B32AB42AB92A2000A901A90AAA01A9
:10057000AA0A20002A080319BE2ABF2A9E2A29088F
:1005800008002030860001308700C0308400013030
:10059000850014302000C70016001A00C70BCC2AB3
:1005A0003430860001308700D4308400013085006B
:1005B0000A30C70016001A00C70BDA2A013095313D
:1005C00043258231013095315025823100309531FB
:1005D0003625823194319924823120004408AF00BD
:1005E0004308AE00D530B0009830B1008730B2007B
:1005F0009830B300AE30B4009830B5008431382460
:10060000823120004408B1004308B000C030963168
:10061000572682312000C70047082300DE00D4306F
:100620002000B0000130B10023005E08963157264B
:1006300082312000BF000130C0009531DA258231BF
:100640008431D124823120000F1D272B282B232B0E
:1006500045088600870181014608860087018101DF
:1006600008002000CA01892B0F19372B382B4C2B7F
:100670007230BF009830C0009531DA2583312000F8
:10068000CA01CA0A43088600440887008101450858
:10069000860046088700810157080319502B512B0B
:1006A000892B8631C72683312000C7004708C9003F
:1006B0007C2B9C30BF009830C0009531DA25833107
:1006C0002000430886004408870081014508860011
:1006D00046088700810102302000C8000430C700AE
:1006E000BA30890B712BC70B712BC80B712B000013
:1006F0002000CA01CA0A892B4908C700C801480856
:10070000003A0319842B892B4708343A0319592BD3
:10071000892B4A0803198D2B8E2B342B080094311A
:1007200067248331003A0319962B972BC72BA42BF0
:1007300094313F248331E32B943144248331E32BE0
:1007400094314E248331E32B21002F08FA007A08DC
:10075000F9000630A03E86008701413F8A00403FF5
:100760000A008331FB00FC017C08003A0319B92B15
:10077000A02B7B08013A0319A02B033A0319982BED
:10078000013A03199C2B073A0319A02BA02B210037
:100790003C101730A03E86008701403F8400850151
:1007A000810A000894313524833101302100B802D8
:1007B0000030B93B38083904031DDF2BE02BE22B56
:1007C0000630E32B033008002000C800C701322C9C
:1007D0000F19EB2BEC2BFA2B4130BF009830C000E7
:1007E0009531DA2583312000C701C70A4808860001
:1007F0008701810157080319FE2BFF2B322C86310C
:10080000C72683312000C4004408C600252CA1302F
:10081000BF009930C0009531DA25833120004808A7
:10082000860087018101810A02302000C500043062
:10083000C400BA30890B1A2CC40B1A2CC50B1A2C05
:1008400000002000C701C70A322C4608C400C501B9
:100850004508003A03192D2C322C4408313A03196B
:10086000072C322C47080319362C372CE82B0800AC
:100870009431E6248431063096312A2684310230C0
:100880002000B7000430B600BA30890B452CB60BF7
:10089000452CB70B452C00002000A901A90A013006
:1008A0008631F626843120002F08AA002E08A900E0
:1008B00097312F2784312000A901A90A02308631FF
:1008C000F626843120003108AA003008A9009731AB
:1008D0002F2784312000A901A90A03308631F6268A
:1008E000843120003308AA003208A90097312F274D
:1008F00084312000A901A90A04308631F62684310A
:1009000020003508AA003408A90097312F27843128
:1009100008002000D3005308860087010108CD009D
:10092000CE014D08C3004E08C4004B088600870165
:100930000108CF00D0014F08C5005008C600833120
:100940003123843120004B08860087010108CD0047
:10095000CE014D08C3004E08C4004C088600870134
:100960000108CF00D0014F08C5005008C600530849
:10097000860087010108D100D2015108C700520842
:10098000C80086316526843129302000CE0096309B
:10099000CD007F30890BCA2CCD0BCA2CCE0BCA2CB4
:1009A00008002000A801A9012000AA01AB0188319C
:1009B0003C2084310B302000A7002630A6005D309B
:1009C000890BE02CA60BE02CA70BE02C00320130A9
:1009D0002000AA070030AB3D2B08803AA6008030EB
:1009E0002602031DF52C04302A02031CF82CF92CD6
:1009F000D72C0B302000A7002630A6005D30890BD5
:100A0000FF2CA60BFF2CA70BFF2C0032013020007F
:100A1000A8070030A93D2908803AA60080302602A8
:100A2000031D142D04302802031C172D182DD42C5F
:100A3000080021009112E6302000A3000530A40038
:100A40009431D42485312100111291302000A3006B
:100A50001730A4009431DD248531083023009F0035
:100A600090309D0024309E0040309B0003309C005D
:100A7000F0302000A3001330A4009431C22485314B
:100A800009302000A3001430A4009431CB24853118
:100A900005302000A3001430A4009431B92485311E
:100AA0002100D1012000DC01DB010830A500250870
:100AB000DA00D901D801D70121009116080093313D
:100AC000FC238531FA0021003708860087017A0867
:100AD00081000130FA007A08B7070130B80200300F
:100AE000B93B380839040319762D772D7C2D9431C4
:100AF000112485310530A42DBC15862D94315D243B
:100B00008531A42D943158248531A42D2C08FA0068
:100B10007A08F90021088A0020080A008531FB00C4
:100B2000FC017C08003A0319962D822D7B08013ABE
:100B30000319822D033A03197E2D013A03197E2DE4
:100B4000073A0319822D822D080020002808031976
:100B5000AA2DAB2DB02D2808031DAF2DB02DB52D1E
:100B60002608943192248531E52D2808033E86001D
:100B70008701160001040319BE2DBF2DDC2D2808A6
:100B8000033E86008701403FA900413FAA00280A92
:100B900086008701403FAB00413FAC002C08803A03
:100BA000AD002A08803A2D02031DD82D29082B02FA
:100BB0000318DB2DDC2DE52D2000280A8600870197
:100BC0000130810741310318810A080020005908CB
:100BD0003E3E860001308700810123001D1DF12D5E
:100BE000F22DFF2D200059083E3E8600013087007F
:100BF0008114210048088A0047080A008531230033
:100C00009D1C032E042E112E200059083E3E860006
:100C1000013087000115210046088A0045080A00B6
:100C20008631200059083E3E8600013087000108C9
:100C300003191B2E1C2E232E210044088A00430872
:100C40000A008631262E963186268531080020003E
:100C5000A9002908A7002708AA00492E0130A502EB
:100C60000030A63B2A0886008701AA0A2408A800AB
:100C70002308A700A30A0319A40A27088400280848
:100C800085000008C03F8908031D472E482E492EC5
:100C9000582E25082604031D4E2E4F2E2E2E582E7C
:100CA0002A088600870181010130A7002708AA07CA
:100CB0000130A5020030A63B250A031D632E260A3B
:100CC000031D632E642E502E080020004708860066
:100CD000480887000108031D6E2E6F2E762E723095
:100CE000BF009830C0009531DA25863120004308D6
:100CF0008600440887008101450886004608870071
:100D0000810147088600480887008101003095313D
:100D100036258631003095314325863100309531B6
:100D20005025863194319924863108002000BC007A
:100D30003808BE003708BD002100BD01BE01B42E39
:100D40003D30BA003A08AE003908BB003B08AF009E
:100D50003C0880318220863120002E082100BD070A
:100D600020002F082100BE3D20003D0884003E08E1
:100D700085001200031DBD2EBE2EA02E21003E08B0
:100D80002000B80021003D082000B7000800200026
:100D900057080319CC2ECD2EC72E58083E3E86008C
:100DA000013087000108A30023082100D1002000A2
:100DB0005808463E8600013087000108A30023083A
:100DC000A4000130A3002308D80708305802031CF0
:100DD000EA2EEB2EEC2ED8012100911201302000DA
:100DE000D702210091162000240808002000AC0042
:100DF000112F2908BF3E96312A268631242F290833
:100E0000933E96312A268631242F2908D33E9631E7
:100E10002A268631242F29087F3E96312A268631BC
:100E2000242F2C08AA00AB012B08003A0319192F14
:100E30000B2F2A08023A0319F92E013A0319FF2E43
:100E4000073A0319052F0B2F08002100BC15352F79
:100E5000943149248731532F9331FF238731033055
:100E6000532F94314E248731532F2C08FA007A08DF
:100E7000F90021088A0020080A008731FB00FC01E4
:100E80007C08003A0319452F312F7B08013A0319DA
:100E9000312F033A0319282F013A0319282F073A53
:100EA00003192C2F312F080094310224873121009F
:100EB0003C1C5B2F5C2F6A2F943167248731003AEA
:100EC0000319632F642F6A2F0F302000A000200821
:100ED0002100BA0021003A082000A000A101A0359D
:100EE000A10D0030200784009030213D8500013F96
:100EF0008A00003F0A0087312000A200220821005A
:100F0000BA000800013095317725873194312D24BE
:100F100087310B302000A5002630A4005D30890BFE
:100F20008F2FA40B8F2FA50B8F2F003201309531FF
:100F30005D2587310B302000A5002630A4005D30F0
:100F4000890BA02FA40BA02FA50BA02F00320130DE
:100F500095315D2587319431312487310800200097
:100F6000A4005A080319B52FB62FB12F2100111A6A
:100F7000BA2FBB2FC02F2000240823009A00D82F9F
:100F8000111220002408A3005C084E3E86000130A8
:100F90008700230881000130A3002308DC07083004
:100FA0005C02031CD42FD52FD62FDC010130DA02CE
:100FB0002100111608002000A501A6010F1CE12F39
:100FC000E22FE62F0130A5000030A6008F1CE92F8C
:100FD000EA2FEE2F0230A5000030A6000F1CF12FE3
:100FE000F22FFA2F8F1CF52FF62FFA2F0330A500C2
:100FF0000030A6002608A4002508A3000800083435
:101000002000A30095310425883120002308240006
:1010100091002000911D0D280E280928911108002B
:1010200021003C100230FA007A08BB001F289431DE
:10103000492488313B2894314E2488313B282E089E
:10104000FA007A08F9000430A03E86008701413F8B
:101050008A00403F0A008831FB00FC017C08003A0E
:10106000031933281B287B08023A03191728013A71
:10107000031917281B2808002000A401A50122003D
:101080000D1606302000A3003030890B4528A30B35
:101090004528000022000D1206302000A300303049
:1010A000890B5028A30B5028000001302000A40712
:1010B0000030A53D2508803AA30080302302031D9F
:1010C000632832302402031C662867283F28080062
:1010D0009531EC2588318B170B179431F924883121
:1010E0004E308131BE2188312100ED01EC01EB0150
:1010F000E801AF302000AE009830AF002F30B000D4
:101100009930B1008430B2009930B300AE30B400F1
:101110009830B50084313824883115302000D5004E
:101120004B30D400BE30890B9328D40B9328D50BB9
:10113000932800008731DB27883120002408210014
:10114000EA00200023082100E90069086A04031965
:10115000AA28AB284F2995316A2588318431D124BA
:1011600088312100E601E7011829E7302000A300BB
:101170009830A4001430A5000030A600D23086318B
:1011800027268831EF28F9302000A3009830A400EA
:101190001430A5000030A600D230863127268831D1
:1011A000EF280B302000A3009930A4001430A500D4
:1011B0000030A600D230863127268831EF286A0811
:1011C000003A0319E428EF286908013A0319B52801
:1011D000033A0319C328013A0319D128EF28AF3085
:1011E0002000AE009830AF00D230B0000030B10027
:1011F0004130B2009930B3008730B4009830B50068
:101200008431382488319431792488318731822798
:1012100088318731DB278831200024082100EA004B
:10122000200023082100E9000130E6070030E73DF7
:101230006708803A2000D40080305402031D23291F
:101240000230210066020318262927292E292100B1
:1012500069086A04031D2D292E29DF282100690849
:101260006A040319342935294F29E801E80A843131
:10127000D12488314F29AF302000AE009830AF0024
:10128000D230B0000030B1005B30B2009830B30013
:101290007430B4009930B50084313824883121008D
:1012A0006808031D542955293B296808031D59293D
:1012B0005A299A28AF302000AE009830AF001D3078
:1012C000B0009930B100AE30B2009830B300843035
:1012D000B4009930B50084313824883103302000BF
:1012E000D5000830D4007730890B7429D40B7429C9
:1012F000D50B7429ED302000D4005408C300EB3026
:101300008331E42388319731DA2788310F30200088
:10131000AE009A30AF00AE30B0009930B100AE30C0
:10132000B2009830B300AE30B4009830B5008431CC
:10133000382488312100ED01ED0A00309531362541
:101340008831003095314325883101309531502561
:10135000883103302000D5000830D4007730890B65
:10136000AF29D40BAF29D50BAF29013095317725A3
:101370008831943131248831003095315D258831B0
:10138000003095312925883111302000D5003C30BE
:10139000D400CB30890BCA29D40BCA29D50BCA2952
:1013A000003081312F218831003A0319D829D929F9
:1013B000DA29F9292100ED010F302000C3009A300D
:1013C000C400ED30D4005408C500EC30D5005508F9
:1013D000C6008231C1228831ED302000D40054088B
:1013E000CB00EC30D5005508CC00EB30843189249B
:1013F000883121006D080319FE29FF29532A17306F
:101400002000AE009A30AF00B330B0009930B10088
:10141000AE30B2009830B300AE30B4009830B500B2
:101420008431382488319431192488310030953141
:101430005D25883101309531292588311130200012
:10144000D5003C30D400CB30890B242AD40B242A7D
:10145000D50B242A013081312F218831003A03191C
:10146000322A332A342A532A2100ED011730200072
:10147000C3009A30C400ED30D4005408C500EC30ED
:10148000D5005508C6008231C1228831ED302000D8
:10149000D4005408CB00EC30D5005508CC00EB301C
:1014A00084318924883121006D080319582A592A6A
:1014B000AD2A1F302000AE009A30AF00B330B0002C
:1014C0009930B100AE30B2009830B300AE30B40005
:1014D0009830B5008431382488319431192488310A
:1014E000013095315D2588310030953129258831CD
:1014F00011302000D5003C30D400CB30890B7E2A3F
:10150000D40B7E2AD50B7E2A003081312F218831E1
:10151000003A03198C2A8D2A8E2AAD2A2100ED016A
:101520001F302000C3009A30C400ED30D4005408AE
:10153000C500EC30D5005508C6008231C122883183
:10154000ED302000D4005408CB00EC30D500550815
:10155000CC00EB3084318924883121006D080319D7
:10156000B22AB32A072B27302000AE009A30AF00F2
:10157000B330B0009930B100AE30B2009830B30053
:10158000AE30B4009830B5008431382488319431BD
:1015900031248831003095315D2588310030953116
:1015A0002925883111302000D5003C30D400CB30C3
:1015B000890BD82AD40BD82AD50BD82A00308131F0
:1015C0002F218831003A0319E62AE72AE82A072B57
:1015D0002100ED011F302000C3009A30C400ED301F
:1015E000D4005408C500EC30D5005508C60082313F
:1015F000C1228831ED302000D4005408CB00EC30FB
:10160000D5005508CC00EB30843189248831210085
:101610006D0803190C2B0D2B612B2F302000AE0011
:101620009A30AF00B330B0009930B100AE30B200A4
:101630009830B300AE30B4009830B500843138240F
:10164000883194312D248831003095315D258831E1
:10165000013095312925883111302000D5003C30EA
:10166000D400CB30890B322BD40B322BD50B322B41
:10167000013081312F218831003A0319402B412B51
:10168000422B612B2100ED012F302000C3009A3046
:10169000C400ED30D4005408C500EC30D500550826
:1016A000C6008231C1228831ED302000D4005408B8
:1016B000CB00EC30D5005508CC00EB3084318924C8
:1016C000883121006D080319662B672BBB2B37303F
:1016D0002000AE009A30AF00B330B0009930B100B6
:1016E000AE30B2009830B300AE30B4009830B500E0
:1016F00084313824883194312D248831013095315A
:101700005D25883100309531292588311130200040
:10171000D5003C30D400CB30890B8C2BD40B8C2BD8
:10172000D50B8C2B003081312F218831003A0319E1
:101730009A2B9B2B9C2BBB2B2100ED0137302000DB
:10174000C3009A30C400ED30D4005408C500EC301A
:10175000D5005508C6008231C1228831ED30200005
:10176000D4005408CB00EC30D5005508CC00EB3049
:1017700084318924883121006D080319C02BC12BC5
:10178000152C3F302000AE009A30AF00B330B000CF
:101790009930B100AE30B2009830B300AE30B40032
:1017A0009830B5008431382488319431312488311F
:1017B000003095315D2588310030953129258831FB
:1017C00011302000D5003C30D400CB30890BE62B03
:1017D000D40BE62BD50BE62B003081312F2188313D
:1017E000003A0319F42BF52BF62B152C2100ED01F3
:1017F0003F302000C3009A30C400ED30D4005408BC
:10180000C500EC30D5005508C6008231C1228831B0
:10181000ED302000D4005408CB00EC30D500550842
:10182000CC00EB3084318924883121006D08031904
:101830001A2C1B2C722C47302000AE009A30AF00BF
:101840005730B0009A30B100AE30B2009830B300DB
:10185000AE30B4009830B50084313824883100307F
:101860009531772588319431312488319431292478
:101870008831003095312925883111302000D5007C
:101880003C30D400CB30890B432CD40B432CD50BEC
:10189000432C003081312F218831003A0319512C1B
:1018A000522C532C722C2100ED0147302000C30034
:1018B0009A30C400ED30D4005408C500EC30D50097
:1018C0005508C6008231C1228831ED302000D40095
:1018D0005408CB00EC30D5005508CC00EB308431F7
:1018E0008924883121006D080319772C782CCB2CA2
:1018F0004F302000AE009A30AF005730B0009A3021
:10190000B100AE30B2009830B300AE30B4009830C1
:10191000B5008431382488319431192488319431C8
:10192000212488310130953129258831113020005A
:10193000D5003C30D400CB30890B9C2CD40B9C2C94
:10194000D50B9C2C013081312F218831003A0319AD
:10195000AA2CAB2CAC2CCB2C2100ED014F3020005D
:10196000C3009A30C400ED30D4005408C500EC30F8
:10197000D5005508C6008231C1228831ED302000E3
:10198000D4005408CB00EC30D5005508CC00EB3027
:1019900084318924883121006D080319D02CD12C81
:1019A000242DC7302000AE009930AF005730B00072
:1019B0009A30B100AE30B2009830B300AE30B4000F
:1019C0009830B50084313824883194311924883115
:1019D00094312924883100309531292588311130FE
:1019E0002000D5003C30D400CB30890BF52CD40B33
:1019F000F52CD50BF52C003081312F218831003AA0
:101A00000319032D042D052D242D2100ED01C730D0
:101A10002000C3009930C400ED30D4005408C50044
:101A2000EC30D5005508C6008231C1228831ED3036
:101A30002000D4005408CB00EC30D5005508CC0071
:101A4000EB3084318924883121006D080319292D58
:101A50002A2D7D2DD0302000AE009930AF005730B8
:101A6000B0009A30B100AE30B2009830B300AE3062
:101A7000B4009830B5008431382488319431312451
:101A800088319431292488310030953129258831D5
:101A900011302000D5003C30D400CB30890B4E2DC6
:101AA000D40B4E2DD50B4E2D003081312F21883196
:101AB000003A03195C2D5D2D5E2D7D2D2100ED0179
:101AC000D0302000C3009930C400ED30D400540859
:101AD000C500EC30D5005508C6008231C1228831DE
:101AE000ED302000D4005408CB00EC30D500550870
:101AF000CC00EB3084318924883121006D08031932
:101B0000822D832DD62DD9302000AE009930AF0024
:101B10005730B0009A30B100AE30B2009830B30008
:101B2000AE30B4009830B500843138248831943117
:101B30002D2488319431292488310030953129258C
:101B4000883111302000D5003C30D400CB30890BD7
:101B5000A72DD40BA72DD50BA72D003081312F2118
:101B60008831003A0319B52DB62DB72DD62D210099
:101B7000ED01D9302000C3009930C400ED30D4000D
:101B80005408C500EC30D5005508C6008231C1228A
:101B90008831ED302000D4005408CB00EC30D50063
:101BA0005508CC00EB3084318924883121006D0840
:101BB0000319DB2DDC2D2F2EE2302000AE009930F2
:101BC000AF005730B0009A30B100AE30B20098305C
:101BD000B300AE30B4009830B50084313824883179
:101BE00094312D2488319431252488310130953168
:101BF0002925883111302000D5003C30D400CB306D
:101C0000890B002ED40B002ED50B002E0130813114
:101C10002F218831003A03190E2E0F2E102E2F2E51
:101C20002100ED01E2302000C3009930C400ED3006
:101C3000D4005408C500EC30D5005508C6008231E8
:101C4000C1228831ED302000D4005408CB00EC30A4
:101C5000D5005508CC00EB3084318924883121002F
:101C60006D080319342E352E882EEB302000AE007F
:101C70009930AF005730B0009A30B100AE30B200AA
:101C80009830B300AE30B4009830B50084313824B9
:101C9000883194312D2488319431292488310030C1
:101CA00095312925883111302000D5003C30D400F1
:101CB000CB30890B592ED40B592ED50B592E003011
:101CC00081312F218831003A0319672E682E692E41
:101CD000882E2100ED01EB302000C3009930C400B4
:101CE000ED30D4005408C500EC30D5005508C600CE
:101CF0008231C1228831ED302000D4005408CB005D
:101D0000EC30D5005508CC00EB3084318924883183
:101D100021006D0803198D2E8E2EE12EF430200047
:101D2000AE009930AF005730B0009A30B100AE30FD
:101D3000B2009830B300AE30B4009830B5008431B2
:101D400038248831943131248831943125248831E4
:101D5000003095312925883111302000D5003C30E4
:101D6000D400CB30890BB22ED40BB22ED50BB22EB1
:101D7000003081312F218831003A0319C02EC12E45
:101D8000C22EE12E2100ED01F4302000C300993075
:101D9000C400ED30D4005408C500EC30D50055081F
:101DA000C6008231C1228831ED302000D4005408B1
:101DB000CB00EC30D5005508CC00EB3084318924C1
:101DC000883121006D080319E62EE72E4B2FFD30D8
:101DD0002000AE009930AF005230B0009930B10011
:101DE000AE30B2009830B300C230B4009830B500C5
:101DF0008431382488310130953177258831943108
:101E00002D248831013095315D25883100309531A0
:101E10002925883111302000D5003C30D400CB304A
:101E2000890B102FD40B102FD50B102F2130200031
:101E3000BF009830C0009531DA25883121006B0849
:101E40008231492288312000D40054082100EC005E
:101E50006C08031D2C2F2D2F4B2FED011F30200060
:101E6000C3009A30C400ED30D4005408C500EC30F3
:101E7000D5005508C6008231C1228831ED302000DE
:101E8000D4005408CB00EC30D5005508CC00EB3022
:101E900084318924883121006D080319502F512F76
:101EA000B12F06302000AE009A30AF006330B00092
:101EB0009930B100AE30B2009830B300C230B400F7
:101EC0009830B50084313824883194312D248831FC
:101ED000013095315D2588310130953129258831D2
:101EE00011302000D5003C30D400CB30890B762F48
:101EF000D40B762FD50B762F00302000BF00983002
:101F0000C0009531DA25883121006B0882314922E1
:101F100088312000D40054082100EC006C08031D17
:101F2000922F932FB12FED0106302000C3009A307D
:101F3000C400ED30D4005408C500EC30D50055087D
:101F4000C6008231C1228831ED302000D40054080F
:101F5000CB00EC30D5005508CC00EB30843189241F
:101F6000883121006D080319B62FB72F9A28BB308E
:101F70002000AE009930AF00DE30B0009830B100E4
:101F80009330B2009930B3008730B4009830B50078
:101F900084313824883101309531362588319431A7
:101FA0009924883197314E278831EB302000C300C7
:101FB0000030C400ED30C5000030C600833131234D
:101FC0008831ED302000C3000030C400EC30C50083
:101FD0000030C600EB30C7000030C80086316526EF
:101FE000883129302000D5009630D4007F30890B0D
:101FF000F72FD40BF72FD50BF72F9A2880314A28CB
:102000003A341434B0341434A03414348F340334D8
:102010005F3405348B341434253407343F3414349E
:1020200044341434493414344E3414345334143492
:10203000583414345D341434623414341034083495
:102040002D343E3420345434453453345434203405
:1020500043344F344E3446344F3452344D34453487
:1020600020342D34203441345434543445344E34E7
:102070005434453420344134433451345534493494
:102080005434543445344D3445344E3454340D3482
:042090000A340034DA
:1027E0000800013008002400961408002400161583
:1027F0000800240096150800240011080800200095
:102800009115080020009111080096318626943118
:10281000080023001D121D16080024009616161627
:1028200008002400961216160800873154279431A8
:10283000080022008C140C100800163021009700AC
:10284000080022000C168C11080022000C128C15B6
:10285000080022000C128C11080022000C148C10AD
:10286000080022008C100C100800F00070082400F2
:10287000910008002100BC10BB010E30080093310C
:10288000F3239431013008009331F3239431023063
:1028900008009331F3239431013008009331F6237B
:1028A000943100300800943111249431053008002F
:1028B00094310D2494310A30080094310D24943160
:1028C000093008002100BC10BB010E3008002400B4
:1028D000160E890C890C01390800953104259431B4
:1028E000240016140800953104259431240016158F
:1028F000080020000F197D2C7E2C792C0800640024
:1029000080010131890B802C0034FE0012001E0072
:10291000FE0B862C003421003C109331F9239431B6
:10292000043008002000A50025088731AF27943126
:10293000080022000C108C100C118C110C120800D5
:1029400021003C143635943135249431033008008D
:10295000F03021009E009B019C0101309D00080089
:1029600021003C140314360D943135249431053084
:102970000800200024082100C400200023082100B2
:10298000C3000800200024082100C80020002308FC
:102990002100C7000800200024082100C6002000F4
:1029A00023082100C5000800200024082100CA00D7
:1029B000200023082100C90008002000240821006D
:1029C000CC00200023082100CB0008000130963104
:1029D0002A2694313530890BEB2C00000800C030DA
:1029E000240094000830950096014F309200951213
:1029F00008002830240095009601940127309200A9
:102A000021008E150E16080024001419082D092D1A
:102A1000042D16081F39031D0E2D0F2D042D08003F
:102A200070302100990098012200960121001A1FA0
:102A30001A2D1B2D162D08007608F1007508F000E0
:102A40007708F8007808F20000309731B427953104
:102A500008002000A300230803192F2D302D332D4B
:102A600022000C17352D22000C1308002000A300B3
:102A7000230803193C2D3D2D402D22001014422D1A
:102A80002200101008002000A30023080319492D7C
:102A90004A2D4D2D22008D164F2D22008D1208003B
:102AA0002000A30023080319562D572D5A2D22006C
:102AB00010155C2D2200101108002000A30023082F
:102AC0000319632D642D672D22000C15692D22003A
:102AD0000C110800013095313625953101309531C2
:102AE000432595310130953150259531080020005E
:102AF000A300230803197D2D7E2D822D22008C1327
:102B00008C16852D22008C178C120800F3002100F2
:102B1000BC1D8B2D8C2D952D7308F2007208B7000B
:102B20007108B9007008B800BC1108000230F0004C
:102B30000030F10079089531862595310030F50097
:102B4000F600F70195311C2595310430080001305D
:102B5000F0000030F100790895318625953100307C
:102B6000F500F600F70195311C259531023008007B
:102B70000230F0000030F10079089531862595315A
:102B80000030F500F600F70195311C259531023033
:102B900008000130F0000030F100790895318625F9
:102BA00095310030F500F600F70195311C2595317F
:102BB0000430080041302000C1004108C200400834
:102BC000B8003F08B7004230C1004108B9000030EA
:102BD00086319626953108009431EF24953197314E
:102BE0001027953195311025953194311D2495315B
:102BF0009431A8249531853119259531080020009C
:102C0000A40094316D2495312000560888310020AD
:102C100095312000240821006E0488310020953170
:102C200094317324953108002000A6007D08A5008A
:102C30002508A604260804389531FF259631200082
:102C40002608FB399531FF2596314230890B262E17
:102C5000003208002000A800FD012808F039963154
:102C60001426963120002808A7000330A735FF3E20
:102C7000031D362E2735F03996311426963108007B
:102C80002000A800FD01FD0A2808F039963114261D
:102C9000963120002808A7000330A735FF3E031D0A
:102CA0004D2E2735F0399631142696310800200034
:102CB000B4003108A9003008A80034089631A126D4
:102CC000963120002308B2002408B30034083207EC
:102CD00097316F2796312000340808007908860064
:102CE0008701403FF000413FF1007908023E860035
:102CF000870101089531862596310030F500F600F0
:102D0000F70195311C25963102300800230019087F
:102D1000F00020005908463E860001308700700808
:102D200081000130F0007008D90708305902031CF7
:102D30009A2E9B2E9C2ED9010130F0007008D707E7
:102D400008002000A7002708A5002508A600AC2E33
:102D50000130A5002508A707270886000130870055
:102D60000108031DB42EB52EA82E26082702A300A5
:102D7000A401A31BA40308002000A400A3012408AD
:102D80000319C32EC42ECA2E8F1BC72EC82ECA2EBF
:102D9000A301A30A2408031DCE2ECF2ED52E8F1FEC
:102DA000D22ED32ED52EA301A30A2308080020007B
:102DB000A400A30124080319DE2EDF2EE52E0F192F
:102DC000E22EE32EE52EA301A30A2408031DE92E1B
:102DD000EA2EF02E0F1DED2EEE2EF02EA301A30AEB
:102DE000230808002D343E34203445345234523404
:102DF0004534553452343A342034003400340034ED
:102E00000034003400340034003400340D340A340B
:102E10000034003400340034003400340034003412
:102E2000220090018F018C018D018E01083021005C
:102E300090008C01CF308D00BF308E00FF308F00AE
:102E400023008F013F308D0090013C308C00240026
:102E500090018D012100951722009D01080020009E
:102E6000AC01AD01422F29082C0784002A082D3D12
:102E70008500000896314026973101302000AC07CC
:102E80000030AD3D29082C0784002A082D3D85001F
:102E90001200031D4C2F4D2F332F0800203020002F
:102EA000BF009030C0009531DA2597312000C40171
:102EB000C5019731DA27973101302000C40700306F
:102EC000C53D4508803AC30080304302031D6A2F88
:102ED00002304402031C6D2F6E2F592F0800200072
:102EE000AF002908AD002808AC002F08AA002A0866
:102EF000AE002E08860001308700AE0A2D08AB0018
:102F00002C08AA00AC0A0319AD0A2A0884002B0871
:102F100085000008C03F8908031D8F2F902F792F4F
:102F20000800083020005A020318972F982FB12F5D
:102F30005B084E3E860001308700010823009A009E
:102F40000130F00070082000DB0708305B02031C32
:102F5000AA2FAB2FAC2FDB010130F0007008DA078D
:102F6000B32F210011120800F40070087104031936
:102F7000BA2FBB2FCC2F7435A03E86008701700876
:102F8000C03F7108C13F7208F3007408AC3E860070
:102F9000870173088100D92F7435A03E8600870110
:102FA000F130C03F1330C13F7408AC3E860087014A
:102FB000810108002000A801A90188313C20973137
:102FC0000B302000A7002630A6005D30890BE62FCD
:102FD000A60BE62FA70BE62F003201302000A80732
:102FE0000030A93D2908803AA60080302602031D42
:102FF000FB2F02302802031CFE2FFF2FDD2F0800BD
:1030000041347434743465346E347434653420342B
:10301000763461346C3469346434613474346934C2
:103020006F346E3420346C3465346434733420343B
:1030300062346C3465347534653473340D340A3459
:10304000003441347434743465346E34743465340B
:103050002034763461346C346934643461347434CB
:1030600069346F346E3420346C3465346434203405
:103070007634653472347434653473340D340A3400
:1030800000342D343E3420345434453453345434D5
:1030900020344D3441344E34553445344C3420348E
:1030A00045344E34203443344F3455345234533441
:1030B0000D340A3400344D34413449344E345434E0
:1030C00045344E3441344E344334453420344E3448
:1030D0004534433445345334533441344934523401
:1030E000453400342D343E342034463449344E3493
:1030F0002034543445345334543420344D34413422
:103100004E34553445344C340D340A340034413493
:103110005434543445344E345434453420344134DA
:1031200043345134553449345434543445344D3493
:1031300045344E34543400342D343E342034543429
:1031400045345334543420344134433451345534A9
:1031500049345434543445340D340A34003454342E
:103160004534533454342034433441345234543489
:1031700045342034443438343534353445344434DB
:103180003234003441345034503455345934453499
:103190005234203453345534523420344F344B3469
:1031A0002F344E344F344B3400345434453453347C
:1031B000543420344E344F344E34203443344F345E
:1031C0004E3446344F3452344D3445340034443454
:1031D0004534463441345534543420344334503427
:1031E000313420342034203420342034203420342E
:1031F0000034443445344634413455345434203456
:1032000043345034323420342034203420342034B9
:103210002034203400344434453446344134553469
:10322000543420344334503431342034453454340D
:103230002034433450343234003441345434543420
:1032400045344E34543445342034443445344D34BC
:1032500041345234523441344734453400345034CC
:103260004F3453344934543449344F344E344E344B
:103270004534523420344334413452345434453488
:10328000003450344C3441344334453452342034C7
:103290004334413452345434453420345234453468
:1032A00046340034543445345334543420344C348C
:1032B0004534443453342034563445345234543431
:1032C0004534533400345434453453345434203466
:1032D0004C34453444345334203442344C34453433
:1032E0005534453453340034523445344434453431
:1032F0004D3441345234523445345A3420344234FB
:1033000041344E3443340034413450345034553415
:1033100059344534523420345334553452342034E3
:103320004F344B34003452344534543449345234DD
:1033300045345234203443344134523454344534C7
:1033400000342D343E342034543445345334543412
:1033500020344F344E340D340A3400345434453460
:103360005334543420344D344F34443445342034B1
:10337000423450340034463449344E3420344434DA
:1033800045342034543445345334543400344534B3
:1033900054344134503445342034313430340034E2
:1033A000453454344134503445342034313431348C
:1033B00000344534543441345034453420343134AD
:1033C000323400344534543441345034453420349C
:1033D000313433340034453454344134503445347A
:1033E000203431343434003445345434413450348E
:1033F0004534203431343534003445345434413488
:103400005034453420343134363400344534543467
:103410004134503445342034313437340034453469
:10342000543441345034453420343134003445343C
:10343000543441345034453420343234003445342B
:10344000543441345034453420343334003445341A
:103450005434413450344534203434340034453409
:1034600054344134503445342034353400344534F8
:1034700054344134503445342034363400344534E7
:1034800054344134503445342034373400344534D6
:1034900054344134503445342034383400344534C5
:1034A00054344134503445342034393400344D34AC
:0E34B0004F3444344534203454344334003413
:020000040001F9
:08000000FF3FFF3FFF3FFF3F00
:04000E00E43FFF3F8D
:00000001FF
