:1000000080314A28053008007E1480310B1F0928F2
:100010000A2848282100111E0E280F281B2820001E
:10002000111E132814281B2821004C088A004B0895
:100030000A00803148282100911E1F2820282C28E2
:100040002000911E242825282C2821004A088A00F7
:1000500049080A00803148282100921D30283128A3
:100060003D282000921D352836283D2821005008C3
:100070008A004F080A00803148282100911D41283C
:10008000422848282000911D46284728482836281D
:100090007E10090080314C28210094315D2480318C
:1000A000EE005F30840097308500203086000130FC
:1000B00087001E309431F2248031FD0156308400D7
:1000C0000030850007309431EC248031A03084006A
:1000D0000030850032309431EC2480313E30840091
:1000E000013085001A309431EC248031A030840036
:1000F0000130850020309431EC2480317E102000C6
:10010000883168282000B6002E0886008701403F0D
:10011000B000413FB1003008840031088500120072
:10012000253A031D942895280B292E08860087015F
:100130000130810741310318810A2200D601D7011D
:100140002100C101C201FF30BF00FF30C00020000C
:100150002E0886008701403FB000413FB1003008C3
:1001600084003108850012006E3A031DB828B928B2
:10017000D8282E08860087010130810741310318F5
:10018000810A2F0886008701403F84008501810A8B
:100190000008B0003008B50035088600870121004E
:1001A0003D08C03F3E08C13F2000AE01AF012E29EF
:1001B0002E0886008701403FB000413FB100300863
:1001C0008400310885001200253A031DE828E9283B
:1001D00002292E088600870101308107413103186A
:1001E000810A2530A6000030A7003608B00030088C
:1001F000A80085311625803101302000AE00003086
:10020000AF002E292E088600870101308107413179
:100210000318810AD4282E0886008701403FB000C9
:10022000413FB10030088400310885000008B20069
:10023000B3013208A6003308A7003608B40034081A
:10024000A80085311625803120002E088600870100
:100250000130810741310318810AFC280800200081
:10026000AB002B08A9002908D600003096316C2677
:1002700081319C302000A900D730890B3D29A90B82
:100280003D2903309631972681311A302000A9008C
:10029000F830890B4929A90B492900000330963110
:1002A000972681311A302000A900F830890B562991
:1002B000A90B5629000003309631972681311A3058
:1002C0002000A900F830890B6329A90B63290000DD
:1002D00002309631972681311A302000A900F8307B
:1002E000890B7029A90B70290000283096319726B8
:1002F000813102302000AA000430A900BA30890BF5
:100300007F29A90B7F29AA0B7F2900000C30963189
:100310009726813102302000AA000430A900BA30AB
:10032000890B9029A90B9029AA0B90290000013074
:1003300096319726813102302000AA000430A900AE
:10034000BA30890BA129A90BA129AA0BA129000068
:10035000063096319726813102302000AA00043001
:10036000A900BA30890BB229A90BB229AA0BB2296C
:10037000000008002000A800A901AA01280803190C
:10038000C229C329092A042A57080319C829C929D7
:10039000042A8631382681312000A5002508A700CF
:1003A000F42902302000A6000430A500BA30890BE1
:1003B000D729A50BD729A60BD72900002000A90112
:1003C000A90AAA01AA0A042A02302000A6000430C1
:1003D000A500BA30890BEA29A50BEA29A60BEA2960
:1003E00000002000A901E1292708A500A601260890
:1003F000003A0319FC29042A2508323A0319D129A5
:10040000013A0319E429042A2A080319082A092AA7
:10041000C4292808031D0D2A0E2A302A2A2A013051
:10042000973129278131003A0319172A182A1C2AE3
:100430002000A901AA01AA0A01309731442781317D
:10044000003A0319242A252A2A2A2000A901A90AE8
:10045000AA01AA0A20002A0803192F2A302A0F2AE3
:10046000290808002030860001308700C030840051
:100470000130850014302000C70016001A00C70B99
:100480003D2A3430860001308700D43084000130AA
:1004900085000A30C70016001A00C70B4B2A01302E
:1004A0009531B025823101309531BD258231003042
:1004B0009531A325823195310625823120004408EB
:1004C000AF004308AE00D530B0009830B10087309F
:1004D000B2009830B300AE30B4009830B50083312C
:1004E000A923823120004408B1004308B000C03085
:1004F0009631C42682312000C70047082300DE0061
:10050000D4302000B0000130B10023005E089631E5
:10051000C42682312000BF000130C000963147263A
:10052000823184314224823120000F1D982A992A79
:10053000942A4508860087018101460886008701C4
:10054000810108002000CA01FA2A0F19A82AA92A45
:10055000BD2A7230BF009830C000963147268231E4
:100560002000CA01CA0A43088600440887008101A6
:100570004508860046088700810157080319C12AEB
:10058000C22AFA2A8631382682312000C70047085D
:10059000C900ED2A9C30BF009830C0009631472634
:1005A0008231200043088600440887008101450805
:1005B000860046088700810102302000C800043010
:1005C000C700BA30890BE22AC70BE22AC80BE22A1D
:1005D00000002000CA01CA0AFA2A4908C700C80157
:1005E0004808003A0319F52AFA2A4708343A031949
:1005F000CA2AFA2A4A080319FE2AFF2AA52A08004D
:100600009431D4248331003A0319072B082B382B5B
:10061000152B9431AC248331542B9431B124833184
:10062000542B9431BB248331542B21002F08FA0022
:100630007A08F9000630A03E86008701413F8A0013
:10064000403F0A008331FB00FC017C08003A03199B
:100650002A2B112B7B08013A0319112B033A03199A
:10066000092B013A03190D2B073A0319112B112BF2
:1006700021003C101730A03E86008701403F8400D7
:100680008501810A00089431A224833101302100C0
:10069000B8020030B93B38083904031D502B512BE8
:1006A000532B0630542B033008002000C800C7012C
:1006B000A32B0F195C2B5D2B6B2B4130BF009830A7
:1006C000C0009631472683312000C701C70A480879
:1006D000860087018101570803196F2B702BA32B0C
:1006E0008631382683312000C4004408C600962B8A
:1006F000A130BF009930C0009631472683312000D9
:100700004808860087018101810A02302000C50067
:100710000430C400BA30890B8B2BC40B8B2BC50B58
:100720008B2B00002000C701C70AA32B4608C4007A
:10073000C5014508003A03199E2BA32B4408313A02
:100740000319782BA32B47080319A72BA82B592B88
:100750000800953153258331063096319726833131
:1007600002302000B7000430B600BA30890BB62B37
:10077000B60BB62BB70BB62B00002000A901A90AB7
:10078000013086316726833120002F08AA002E0809
:10079000A90097319C2783312000A901A90A0230C2
:1007A00086316726833120003108AA003008A9006D
:1007B00097319C2783312000A901A90A0330863193
:1007C0006726833120003308AA003208A900973138
:1007D0009C2783312000A901A90A043086316726AD
:1007E000833120003508AA003408A90097319C27DE
:1007F000833108002000D3005308860087010108D8
:10080000CD00CE014D08C3004E08C4004B08860041
:1008100087010108CF00D0014F08C5005008C6006D
:100820008231A222833120004B0886008701010813
:10083000CD00CE014D08C3004E08C4004C08860010
:1008400087010108CF00D0014F08C5005008C6003D
:100850005308860087010108D100D2015108C70062
:100860005208C8008531D625833129302000CE00BA
:100870009630CD007F30890B3B2CCD0B3B2CCE0B23
:100880003B2C08002000A801A9012000AA01AB010F
:1008900087314C2784310B302000A7002630A6007A
:1008A0005D30890B512CA60B512CA70B512C00321B
:1008B00001302000AA070030AB3D2B08803AA6008B
:1008C00080302602031D662C04302A02031C692C8A
:1008D0006A2C482C0B302000A7002630A6005D3083
:1008E000890B702CA60B702CA70B702C00320130DA
:1008F0002000A8070030A93D2908803AA6008030D2
:100900002602031D852C04302802031C882C892C08
:10091000452C08002100911257302000A30005301B
:10092000A40095314125843121001112DD302000D1
:10093000A3001730A40095314A25843108302300E4
:100940009F0090309D0024309E0040309B0003307B
:100950009C005C302000A3001430A40095312F25AA
:10096000843176302000A3001430A400953138255E
:10097000843172302000A3001430A4009531262564
:1009800084312100D1012000DC01DB010830A50009
:100990002508DA00D901D801D701210091160800F5
:1009A000943169248431FA002100370886008701D8
:1009B0007A0881000130FA007A08B7070130B802DE
:1009C0000030B93B380839040319E72CE82CED2C2A
:1009D00094317E2484310530152DBC15F72C9431CB
:1009E000CA248431152D9431C5248431152D2C0849
:1009F000FA007A08F90021088A0020080A008431E8
:100A0000FB00FC017C08003A0319072DF32C7B083E
:100A1000013A0319F32C033A0319EF2C013A031995
:100A2000EF2C073A0319F32CF32C080020002808B8
:100A300003191B2D1C2D212D2808031D202D212DD0
:100A4000262D26089431FF248531562D2808033E93
:100A5000860087011600010403192F2D302D4D2D1E
:100A60002808033E86008701403FA900413FAA00B5
:100A7000280A86008701403FAB00413FAC002C08AC
:100A8000803AAD002A08803A2D02031D492D29081D
:100A90002B0203184C2D4D2D562D2000280A8600C0
:100AA00087010130810741310318810A08002000C5
:100AB00059083E3E860001308700810123001D1D3C
:100AC000622D632D702D200059083E3E86000130B6
:100AD00087008114210048088A0047080A008531F0
:100AE00023009D1C742D752D822D200059083E3E3B
:100AF0008600013087000115210046088A0045085C
:100B00000A008531200059083E3E860001308700EA
:100B1000010803198C2D8D2D942D210044088A0085
:100B200043080A008531972D9631F3268531080058
:100B30002000A9002908A7002708AA00BA2D013023
:100B4000A5020030A63B2A0886008701AA0A2408CD
:100B5000A8002308A700A30A0319A40A27088400F1
:100B6000280885000008C03F8908031DB82DB92D4D
:100B7000BA2DC92D25082604031DBF2DC02D9F2D7C
:100B8000C92D2A088600870181010130A7002708A6
:100B9000AA070130A5020030A63B250A031DD42D6B
:100BA000260A031DD42DD52DC12D0800200047088D
:100BB0008600480887000108031DDF2DE02DE72D82
:100BC0007230BF009830C000963147268531200032
:100BD00043088600440887008101450886004608CE
:100BE000870081014708860048088700810100309E
:100BF0009531A325853100309531B0258531003000
:100C00009531BD25853195310625853108002000B7
:100C1000BC003808BE003708BD002100BD01BE0180
:100C2000252E3D30BA003A08AE003908BB003B081B
:100C3000AF003C0880318220863120002E08210040
:100C4000BD0720002F082100BE3D20003D08840084
:100C50003E0885001200031D2E2E2F2E112E21007E
:100C60003E082000B80021003D082000B700080021
:100C70002000570803193D2E3E2E382E58083E3EC0
:100C80008600013087000108A30023082100D1005D
:100C900020005808463E8600013087000108A30066
:100CA0002308A4000130A3002308D8070830580205
:100CB000031C5B2E5C2E5D2ED801210091120130A9
:100CC0002000D702210091162000240808002000EF
:100CD000AC00822E2908BF3E963197268631952E8C
:100CE0002908933E963197268631952E2908D33EC2
:100CF000963197268631952E29087F3E9631972684
:100D00008631952E2C08AA00AB012B08003A031956
:100D10008A2E7C2E2A08023A03196A2E013A0319F8
:100D2000702E073A0319762E7C2E08002100BC1580
:100D3000A62E9431B6248631C42E94316C2486318B
:100D40000330C42E9431BB248631C42E2C08FA0003
:100D50007A08F90021088A0020080A008631FB0081
:100D6000FC017C08003A0319B62EA22E7B08013A3A
:100D70000319A22E033A0319992E013A0319992E49
:100D8000073A03199D2EA22E080094316F24863154
:100D900021003C1CCC2ECD2EDB2E9431D424863168
:100DA000003A0319D42ED52EDB2E0F302000A000E0
:100DB00020082100BA0021003A082000A000A1016B
:100DC000A035A10D0030200784009030213D850022
:100DD000013F8A00003F0A0086312000A20022085D
:100DE0002100BA00080001309531E42586319431A4
:100DF0009A2486310B302000A5002630A4005D30F7
:100E0000890B002FA40B002FA50B002F00320130FF
:100E10009531CA2586310B302000A5002630A4006C
:100E20005D30890B112FA40B112FA50B112F003250
:100E300001309531CA25863194319E2486310800CF
:100E40002000A4005A080319262F272F222F210043
:100E5000111A2B2F2C2F312F2000240823009A0049
:100E6000492F111220002408A3005C084E3E860082
:100E700001308700230881000130A3002308DC072C
:100E800008305C02031C452F462F472FDC01013040
:100E9000DA022100111608002000A401A501220099
:100EA0000D1606302000A3003030890B552FA30B00
:100EB000552F000022000D1206302000A300303014
:100EC000890B602FA30B602F000001302000A407C6
:100ED0000030A53D2508803AA30080302302031D81
:100EE000732F32302402031C762F772F4F2F0800E8
:100EF00021003C100230FA007A08BB00872F9431A1
:100F0000B6248731A32F9431BB248731A32F2E0819
:100F1000FA007A08F9000430A03E86008701413FBC
:100F20008A00403F0A008731FB00FC017C08003A40
:100F300003199B2F832F7B08023A03197F2F013A55
:100F400003197F2F832F08002000A801A9018731F2
:100F50004C2787310B302000A7002630A6005D30DB
:100F6000890BB02FA60BB02FA70BB02F003201308A
:100F70002000A8070030A93D2908803AA60080304B
:100F80002602031DC52F02302802031CC82FC92FBB
:100F9000A72F0800F400700871040319D02FD12F77
:100FA000E22F7435A03E860087017008C03F7108AB
:100FB000C13F7208F3007408AC3E860087017308D5
:100FC0008100EF2F7435A03E860087015E30C03F60
:100FD0001430C13F7408AC3E8600870181010800CF
:100FE0002000A300953171258731200023082400BB
:100FF00091002000911DFD2FFE2FF92F9111080067
:1010000020302000BF009030C00096314726883144
:101010002000C401C5018731A42788310130200098
:10102000C4070030C53D4508803AC3008030430204
:10103000031D1C2802304402031C1F2820280B28F3
:1010400008002000A400A301240803192828292847
:1010500033280F1C2C282D2833288F1C30283128AA
:101060003328A301A30A2408031D3728382842285F
:101070000F183B283C2842288F183F284028422838
:10108000A301A30A230808002000A501A6010F1C44
:101090004A284B284F280130A5000030A6008F1C9D
:1010A0005228532857280230A5000030A6000F1CF4
:1010B0005A285B2863288F1C5E285F28632803302A
:1010C000A5000030A6002608A4002508A3000800FB
:1010D0009631592688318B170B1795316625883143
:1010E0004E3081312F2188312100ED01EC01EB01DF
:1010F000E801AF302000AE009830AF002F30B000D4
:101100009930B1008430B2009930B300AE30B400F1
:101110009830B5008331A923883115302000D500DF
:101120004B30D400BE30890B9328D40B9328D50BB9
:1011300093280000883144208831200024082100B1
:10114000EA00200023082100E90069086A04031965
:10115000AA28AB284F299531D725883184314224DC
:1011600088312100E601E7011829E7302000A300BB
:101170009830A4001430A5000030A600D23085318C
:1011800098258831EF28F9302000A3009830A4007A
:101190001430A5000030A600D23085319825883162
:1011A000EF280B302000A3009930A4001430A500D4
:1011B0000030A600D230853198258831EF286A08A2
:1011C000003A0319E428EF286908013A0319B52801
:1011D000033A0319C328013A0319D128EF28AF3085
:1011E0002000AE009830AF00D230B0000030B10027
:1011F0004130B2009930B3008730B4009830B50068
:101200008331A92388319431E62488318631F3264D
:101210008831883144208831200024082100EA00E8
:10122000200023082100E9000130E6070030E73DF7
:101230006708803A2000D40080305402031D23291F
:101240000230210066020318262927292E292100B1
:1012500069086A04031D2D292E29DF282100690849
:101260006A040319342935294F29E801E80A843131
:10127000422488314F29AF302000AE009830AF00B3
:10128000D230B0000030B1005B30B2009830B30013
:101290007430B4009930B5008331A923883121001E
:1012A0006808031D542955293B296808031D59293D
:1012B0005A299A28AF302000AE009830AF001D3078
:1012C000B0009930B100AE30B2009830B300843035
:1012D000B4009930B5008331A92388310330200050
:1012E000D5000830D4007730890B7429D40B7429C9
:1012F000D50B7429ED302000D4005408C300EB3026
:101300008331552388318731A42788310F3020005D
:10131000AE009A30AF00AE30B0009930B100AE30C0
:10132000B2009830B300AE30B4009830B5008331CD
:10133000A92388312100ED01ED0A00309531A32564
:10134000883100309531B025883101309531BD2587
:10135000883103302000D5000830D4007730890B65
:10136000AF29D40BAF29D50BAF2901309531E42536
:10137000883194319E24883100309531CA258831D6
:10138000003095319625883111302000D5003C3051
:10139000D400CB30890BCA29D40BCA29D50BCA2952
:1013A0000030883121208831003A0319D829D92901
:1013B000DA29F9292100ED010F302000C3009A300D
:1013C000C400ED30D4005408C500EC30D5005508F9
:1013D000C600823132228831ED302000D40054081A
:1013E000CB00EC30D5005508CC00EB308331FA232C
:1013F000883121006D080319FE29FF29532A17306F
:101400002000AE009A30AF00B330B0009930B10088
:10141000AE30B2009830B300AE30B4009830B500B2
:101420008331A92388319431862488310030953165
:10143000CA25883101309531962588311130200038
:10144000D5003C30D400CB30890B242AD40B242A7D
:10145000D50B242A0130883121208831003A031924
:10146000322A332A342A532A2100ED011730200072
:10147000C3009A30C400ED30D4005408C500EC30ED
:10148000D5005508C600823132228831ED30200067
:10149000D4005408CB00EC30D5005508CC00EB301C
:1014A0008331FA23883121006D080319582A592AFB
:1014B000AD2A1F302000AE009A30AF00B330B0002C
:1014C0009930B100AE30B2009830B300AE30B40005
:1014D0009830B5008331A92388319431862488312E
:1014E00001309531CA2588310030953196258831F3
:1014F00011302000D5003C30D400CB30890B7E2A3F
:10150000D40B7E2AD50B7E2A0030883121208831E9
:10151000003A03198C2A8D2A8E2AAD2A2100ED016A
:101520001F302000C3009A30C400ED30D4005408AE
:10153000C500EC30D5005508C60082313222883112
:10154000ED302000D4005408CB00EC30D500550815
:10155000CC00EB308331FA23883121006D08031968
:10156000B22AB32A072B27302000AE009A30AF00F2
:10157000B330B0009930B100AE30B2009830B30053
:10158000AE30B4009830B5008331A923883194314E
:101590009E24883100309531CA258831003095313C
:1015A0009625883111302000D5003C30D400CB3056
:1015B000890BD82AD40BD82AD50BD82A00308831E9
:1015C00021208831003A0319E62AE72AE82A072B66
:1015D0002100ED011F302000C3009A30C400ED301F
:1015E000D4005408C500EC30D5005508C60082313F
:1015F00032228831ED302000D4005408CB00EC308A
:10160000D5005508CC00EB308331FA238831210016
:101610006D0803190C2B0D2B612B2F302000AE0011
:101620009A30AF00B330B0009930B100AE30B200A4
:101630009830B300AE30B4009830B5008331A923A0
:10164000883194319A24883100309531CA25883107
:10165000013095319625883111302000D5003C307D
:10166000D400CB30890B322BD40B322BD50B322B41
:101670000130883121208831003A0319402B412B59
:10168000422B612B2100ED012F302000C3009A3046
:10169000C400ED30D4005408C500EC30D500550826
:1016A000C600823132228831ED302000D400540847
:1016B000CB00EC30D5005508CC00EB308331FA2359
:1016C000883121006D080319662B672BBB2B37303F
:1016D0002000AE009A30AF00B330B0009930B100B6
:1016E000AE30B2009830B300AE30B4009830B500E0
:1016F0008331A923883194319A248831013095317E
:10170000CA25883100309531962588311130200066
:10171000D5003C30D400CB30890B8C2BD40B8C2BD8
:10172000D50B8C2B0030883121208831003A0319E9
:101730009A2B9B2B9C2BBB2B2100ED0137302000DB
:10174000C3009A30C400ED30D4005408C500EC301A
:10175000D5005508C600823132228831ED30200094
:10176000D4005408CB00EC30D5005508CC00EB3049
:101770008331FA23883121006D080319C02BC12B56
:10178000152C3F302000AE009A30AF00B330B000CF
:101790009930B100AE30B2009830B300AE30B40032
:1017A0009830B5008331A923883194319E24883143
:1017B00000309531CA258831003095319625883121
:1017C00011302000D5003C30D400CB30890BE62B03
:1017D000D40BE62BD50BE62B003088312120883145
:1017E000003A0319F42BF52BF62B152C2100ED01F3
:1017F0003F302000C3009A30C400ED30D4005408BC
:10180000C500EC30D5005508C6008231322288313F
:10181000ED302000D4005408CB00EC30D500550842
:10182000CC00EB308331FA23883121006D08031995
:101830001A2C1B2C722C47302000AE009A30AF00BF
:101840005730B0009A30B100AE30B2009830B300DB
:10185000AE30B4009830B5008331A9238831003010
:101860009531E425883194319E2488319431962431
:101870008831003095319625883111302000D5000F
:101880003C30D400CB30890B432CD40B432CD50BEC
:10189000432C0030883121208831003A0319512C23
:1018A000522C532C722C2100ED0147302000C30034
:1018B0009A30C400ED30D4005408C500EC30D50097
:1018C0005508C600823132228831ED302000D40024
:1018D0005408CB00EC30D5005508CC00EB308331F8
:1018E000FA23883121006D080319772C782CCB2C32
:1018F0004F302000AE009A30AF005730B0009A3021
:10190000B100AE30B2009830B300AE30B4009830C1
:10191000B5008331A92388319431862488319431EC
:101920008E24883101309531962588311130200080
:10193000D5003C30D400CB30890B9C2CD40B9C2C94
:10194000D50B9C2C0130883121208831003A0319B5
:10195000AA2CAB2CAC2CCB2C2100ED014F3020005D
:10196000C3009A30C400ED30D4005408C500EC30F8
:10197000D5005508C600823132228831ED30200072
:10198000D4005408CB00EC30D5005508CC00EB3027
:101990008331FA23883121006D080319D02CD12C12
:1019A000242DC7302000AE009930AF005730B00072
:1019B0009A30B100AE30B2009830B300AE30B4000F
:1019C0009830B5008331A923883194318624883139
:1019D0009431962488310030953196258831113024
:1019E0002000D5003C30D400CB30890BF52CD40B33
:1019F000F52CD50BF52C0030883121208831003AA8
:101A00000319032D042D052D242D2100ED01C730D0
:101A10002000C3009930C400ED30D4005408C50044
:101A2000EC30D5005508C600823132228831ED30C5
:101A30002000D4005408CB00EC30D5005508CC0071
:101A4000EB308331FA23883121006D080319292DE9
:101A50002A2D7D2DD0302000AE009930AF005730B8
:101A6000B0009A30B100AE30B2009830B300AE3062
:101A7000B4009830B5008331A923883194319E2475
:101A800088319431962488310030953196258831FB
:101A900011302000D5003C30D400CB30890B4E2DC6
:101AA000D40B4E2DD50B4E2D00308831212088319E
:101AB000003A03195C2D5D2D5E2D7D2D2100ED0179
:101AC000D0302000C3009930C400ED30D400540859
:101AD000C500EC30D5005508C6008231322288316D
:101AE000ED302000D4005408CB00EC30D500550870
:101AF000CC00EB308331FA23883121006D080319C3
:101B0000822D832DD62DD9302000AE009930AF0024
:101B10005730B0009A30B100AE30B2009830B30008
:101B2000AE30B4009830B5008331A92388319431A8
:101B30009A24883194319624883100309531962545
:101B4000883111302000D5003C30D400CB30890BD7
:101B5000A72DD40BA72DD50BA72D00308831212020
:101B60008831003A0319B52DB62DB72DD62D210099
:101B7000ED01D9302000C3009930C400ED30D4000D
:101B80005408C500EC30D5005508C6008231322219
:101B90008831ED302000D4005408CB00EC30D50063
:101BA0005508CC00EB308331FA23883121006D08D1
:101BB0000319DB2DDC2D2F2EE2302000AE009930F2
:101BC000AF005730B0009A30B100AE30B20098305C
:101BD000B300AE30B4009830B5008331A92388310A
:101BE00094319A248831943192248831013095318E
:101BF0009625883111302000D5003C30D400CB3000
:101C0000890B002ED40B002ED50B002E013088310D
:101C100021208831003A03190E2E0F2E102E2F2E60
:101C20002100ED01E2302000C3009930C400ED3006
:101C3000D4005408C500EC30D5005508C6008231E8
:101C400032228831ED302000D4005408CB00EC3033
:101C5000D5005508CC00EB308331FA2388312100C0
:101C60006D080319342E352E882EEB302000AE007F
:101C70009930AF005730B0009A30B100AE30B200AA
:101C80009830B300AE30B4009830B5008331A9234A
:101C9000883194319A2488319431962488310030E7
:101CA00095319625883111302000D5003C30D40084
:101CB000CB30890B592ED40B592ED50B592E003011
:101CC000883121208831003A0319672E682E692E49
:101CD000882E2100ED01EB302000C3009930C400B4
:101CE000ED30D4005408C500EC30D5005508C600CE
:101CF000823132228831ED302000D4005408CB00EC
:101D0000EC30D5005508CC00EB308331FA23883114
:101D100021006D0803198D2E8E2EE12EF430200047
:101D2000AE009930AF005730B0009A30B100AE30FD
:101D3000B2009830B300AE30B4009830B5008331B3
:101D4000A923883194319E2488319431922488319A
:101D5000003095319625883111302000D5003C3077
:101D6000D400CB30890BB22ED40BB22ED50BB22EB1
:101D70000030883121208831003A0319C02EC12E4D
:101D8000C22EE12E2100ED01F4302000C300993075
:101D9000C400ED30D4005408C500EC30D50055081F
:101DA000C600823132228831ED302000D400540840
:101DB000CB00EC30D5005508CC00EB308331FA2352
:101DC000883121006D080319E62EE72E4B2FFD30D8
:101DD0002000AE009930AF005230B0009930B10011
:101DE000AE30B2009830B300C230B4009830B500C5
:101DF0008331A923883101309531E425883194312C
:101E00009A24883101309531CA25883100309531C6
:101E10009625883111302000D5003C30D400CB30DD
:101E2000890B102FD40B102FD50B102F2130200031
:101E3000BF009830C00096314726883121006B08DA
:101E40008131BA2188312000D40054082100EC00EF
:101E50006C08031D2C2F2D2F4B2FED011F30200060
:101E6000C3009A30C400ED30D4005408C500EC30F3
:101E7000D5005508C600823132228831ED3020006D
:101E8000D4005408CB00EC30D5005508CC00EB3022
:101E90008331FA23883121006D080319502F512F07
:101EA000B12F06302000AE009A30AF006330B00092
:101EB0009930B100AE30B2009830B300C230B400F7
:101EC0009830B5008331A923883194319A24883120
:101ED00001309531CA2588310130953196258831F8
:101EE00011302000D5003C30D400CB30890B762F48
:101EF000D40B762FD50B762F00302000BF00983002
:101F0000C00096314726883121006B088131BA2103
:101F100088312000D40054082100EC006C08031D17
:101F2000922F932FB12FED0106302000C3009A307D
:101F3000C400ED30D4005408C500EC30D50055087D
:101F4000C600823132228831ED302000D40054089E
:101F5000CB00EC30D5005508CC00EB308331FA23B0
:101F6000883121006D080319B62FB72F9A28BB308E
:101F70002000AE009930AF00DE30B0009830B100E4
:101F80009330B2009930B3008730B4009830B50078
:101F90008331A923883101309531A32588319531CA
:101FA00006258831883100208831EB302000C300BD
:101FB0000030C400ED30C5000030C6008231A222DE
:101FC0008831ED302000C3000030C400EC30C50083
:101FD0000030C600EB30C7000030C8008531D62580
:101FE000883129302000D5009630D4007F30890B0D
:101FF000F72FD40BF72FD50BF72F9A2880314A28CB
:10200000A73414341D3415340D341534003403341E
:10201000D0340434F834143496340634AC341434E4
:10202000B1341434B6341434BB341434C0341434DE
:10203000C5341434CA341434CF34143478340734E7
:102040002D343E3420345434453453345434203405
:1020500043344F344E3446344F3452344D34453487
:1020600020342D34203441345434543445344E34E7
:102070005434453420344134433451345534493494
:102080005434543445344D3445344E3454340D3482
:042090000A340034DA
:1028B8000800083401300800240096140800240099
:1028C80016150800240096150800240011080800B1
:1028D8002000911508002000911108009631F32678
:1028E8009431080023001D121D16080024009616B6
:1028F8001616080024009612161608008631C526FA
:102908009431080022008C140C10080016302100A5
:102918009700080022000C168C11080022000C12E7
:102928008C15080022000C128C11080022000C14CF
:102938008C10080022008C100C100800F0007008A1
:102948002400910008002100BC10BB010E300800D3
:10295800943160249431013008009431602494311A
:102968000230080094316024943101300800943119
:10297800632494310030080094317E24943105306A
:10298800080094317A2494310A30080094317A246A
:102998009431093008002100BC10BB010E3008003A
:1029A8002400160E890C890C01390800953171250F
:1029B80094312400161408009531712594312400AF
:1029C8001615080020000F19EA2CEB2CE62C08003D
:1029D800640080010131890BED2C0034FE001200E7
:1029E8001E00FE0BF32C003421003C1094316624A9
:1029F8009431043008002000A500250887312027DD
:102A08009431080022000C108C100C118C110C123F
:102A1800080021003C1436359431A2249531033046
:102A28000800F03021009E009B019C0101309D00B0
:102A3800080021003C140314360D9431A22495316A
:102A480005300800200024082100C40020002308C5
:102A58002100C3000800200024082100C80020002D
:102A680023082100C7000800200024082100C60010
:102A7800200023082100C5000800200024082100A8
:102A8800CA00200023082100C900080020002408EB
:102A98002100CC00200023082100CB0008000130D1
:102AA8009631972695313530890B582D000008004E
:102AB800C030240094000830950096014F309200F1
:102AC80095120800283024009500960194012730BB
:102AD800920021008E150E16080024001419752D79
:102AE800762D712D16081F39031D7B2D7C2D712D18
:102AF80008007030210099009801220096012100F9
:102B08001A1F872D882D832D08007608F100750877
:102B1800F0007708F8007808F20000308731CA27FB
:102B2800953108002000A300230803199C2D9D2D32
:102B3800A02D22000C17A22D22000C130800200043
:102B4800A30023080319A92DAA2DAD2D22001014C6
:102B5800AF2D2200101008002000A300230803193D
:102B6800B62DB72DBA2D22008D16BC2D22008D1240
:102B780008002000A30023080319C32DC42DC72D66
:102B880022001015C92D2200101108002000A300F2
:102B980023080319D02DD12DD42D22000C15D62DA4
:102BA80022000C11080001309531A3259531013020
:102BB8009531B025953101309531BD259531080005
:102BC8002000A30023080319EA2DEB2DEF2D220086
:102BD8008C138C16F22D22008C178C120800F3002F
:102BE8002100BC1DF82DF92D022E7308F200720881
:102BF800B7007108B9007008B800BC1108000230AD
:102C0800F0000030F10079089531F3259631003055
:102C1800F500F600F7019531892596310430080052
:102C28000130F0000030F10079089531F325963134
:102C38000030F500F600F70195318925963102300C
:102C480008000230F0000030F10079089531F325D2
:102C580096310030F500F600F70195318925963157
:102C6800023008000130F0000030F1007908953199
:102C7800F32596310030F500F600F70195318925E6
:102C880096310430080041302000C1004108C200DC
:102C98004008B8003F08B7004230C1004108B900F9
:102CA8000030863107269631080095315C2596312B
:102CB80097317D27963195317D25963194318A2437
:102CC800963195311525963184318A24963108003C
:102CD8002000A4009431DA24963120005608873168
:102CE800F02796312000240821006E048731F02750
:102CF80096319431E024963108002000A6007D0822
:102D0800A5002508A6042608043896316C269631B5
:102D180020002608FB3996316C2696314230890B03
:102D2800932E003208002000A800FD012808F03981
:102D380096318126963120002808A7000330A73550
:102D4800FF3E031DA32E2735F03996318126963193
:102D580008002000A800FD01FD0A2808F039963176
:102D68008126963120002808A7000330A735FF3EAA
:102D7800031DBA2E2735F039963181269631080081
:102D88002000B4003108A9003008A80034089731A1
:102D98000E27963120002308B2002408B300340817
:102DA80032079731BB27963120003408080079088C
:102DB80086008701403FF000413FF1007908023E5C
:102DC8008600870101089531F32596310030F5001A
:102DD800F600F70195318925963102300800230065
:102DE8001908F00020005908463E86000130870087
:102DF800700881000130F0007008D90708305902C6
:102E0800031C072F082F092FD9010130F000700883
:102E1800D70708002000A7002708A5002508A60056
:102E2800192F0130A5002508A707270886000130BB
:102E380087000108031D212F222F152F260827029E
:102E4800A300A401A31BA40308002000A400A3015D
:102E580024080319302F312F372F8F1B342F352F8C
:102E6800372FA301A30A2408031D3B2F3C2F422F11
:102E78008F1F3F2F402F422FA301A30A23080800CA
:102E88002000A400A301240803194B2F4C2F522F14
:102E98000F194F2F502F522FA301A30A2408031DE7
:102EA800562F572F5D2F0F1D5A2F5B2F5D2FA30114
:102EB800A30A230808002D343E3420344534523404
:102EC80052344534553452343A34203400340034C2
:102ED80000340034003400340034003400340D343D
:102EE8000A34003400340034003400340034003430
:102EF8000034220090018F018C018D018E01083071
:102F0800210090008C01CF308D00BF308E00FF3043
:102F18008F0023008F013F308D0090013C308C00E2
:102F2800240090018D012100951722009D010800C1
:102F38002000AC01AD01AF2F29082C0784002A0816
:102F48002D3D850000089631AD26973101302000CF
:102F5800AC070030AD3D29082C0784002A082D3D18
:102F680085001200031DB92FBA2FA02F08002000DA
:102F7800AF002908AD002808AC002F08AA002A08CD
:102F8800AE002E08860001308700AE0A2D08AB007F
:102F98002C08AA00AC0A0319AD0A2A0884002B08D9
:102FA80085000008C03F8908031DDB2FDC2FC52FD3
:102FB8000800083020005A020318E32FE42FFD2FE1
:102FC8005B084E3E860001308700010823009A0006
:102FD8000130F00070082000DB0708305B02031C9A
:102FE800F62FF72FF82FDB010130F0007008DA0711
:102FF800FF2F2100111208004134743474346534F1
:103008006E34743465342034763461346C34693405
:1030180064346134743469346F346E3420346C34FD
:10302800653464347334203462346C3465347534F4
:10303800653473340D340A340034413474347434D0
:1030480065346E34743465342034763461346C34C9
:10305800693464346134743469346F346E342034C0
:103068006C346534643420347634653472347434A2
:10307800653473340D340A3400342D343E3420342E
:10308800543445345334543420344D3441344E345C
:10309800553445344C34203445344E34203443348C
:1030A8004F345534523453340D340A3400344D34CB
:1030B800413449344E34543445344E3441344E341A
:1030C8004334453420344E34453443344534533442
:1030D8005334413449345234453400342D343E3469
:1030E8002034463449344E3420345434453453342F
:1030F800543420344D3441344E34553445344C34F2
:103108000D340A34003441345434543445344E3484
:1031180054344534203441344334513455344934DB
:103128005434543445344D3445344E3454340034D6
:103138002D343E34203454344534533454342034FC
:103148004134433451345534493454345434453477
:103158000D340A3400345434453453345434203450
:1031680043344134523454344534203444343834AC
:1031780035343534453444343234003441345034F1
:10318800503455345934453452342034533455343A
:10319800523420344F344B342F344E344F344B3464
:1031A8000034543445345334543420344E344F347A
:1031B8004E34203443344F344E3446344F34523432
:1031C8004D34453400344434453446344134553460
:1031D80054342034433450343134203420342034AF
:1031E80020342034203420340034443445344634E8
:1031F8004134553454342034433450343234203438
:103208002034203420342034203420340034443412
:1032180045344634413455345434203443345034DE
:103228003134203445345434203443345034323427
:10323800003441345434543445344E3454344534D1
:103248002034443445344D344134523452344134BA
:1032580047344534003450344F34533449345434AB
:1032680049344F344E344E34453452342034433488
:103278004134523454344534003450344C3441349D
:103288004334453452342034433441345234543472
:1032980045342034523445344634003454344534AB
:1032A8005334543420344C34453444345334203467
:1032B8005634453452345434453453340034543439
:1032C80045345334543420344C3445344434533422
:1032D800203442344C344534553445345334003466
:1032E80052344534443445344D34413452345234E4
:1032F80045345A342034423441344E344334003453
:1033080041345034503455345934453452342034CF
:1033180053345534523420344F344B3400345234FF
:1033280045345434493452344534523420344334C7
:10333800413452345434453400342D343E3420342E
:10334800543445345334543420344F344E340D34CB
:103358000A340034543445345334543420344D340E
:103368004F344434453420344234503400344634E5
:1033780049344E34203444344534203454344534AC
:10338800533454340034453454344134503445347F
:1033980020343134303400344534543441345034DA
:1033A80045342034313431340034453454344134D4
:1033B80050344534203431343234003445345434B4
:1033C80041345034453420343134333400344534B6
:1033D8005434413450344534203431343434003496
:1033E8004534543441345034453420343134353440
:1033F8000034453454344134503445342034313465
:10340800363400344534543441345034453420344F
:10341800313437340034453454344134503445342D
:103428002034313400344534543441345034453434
:103438002034323400344534543441345034453423
:103448002034333400344534543441345034453412
:103458002034343400344534543441345034453401
:1034680020343534003445345434413450344534F0
:1034780020343634003445345434413450344534DF
:1034880020343734003445345434413450344534CE
:1034980020343834003445345434413450344534BD
:1034A8002034393400344D344F34443445342034D6
:0634B800543443340034DB
:020000040001F9
:08000000FF3FFF3FFF3FFF3F00
:04000E00E43FFF3F8D
:00000001FF
