:1000000080314A28053008007E1480310B1F0928F2
:100010000A2848282100111E0E280F281B2820001E
:10002000111E132814281B2821004C088A004B0895
:100030000A00803148282100911E1F2820282C28E2
:100040002000911E242825282C2821004A088A00F7
:1000500049080A00803148282100921D30283128A3
:100060003D282000921D352836283D2821005008C3
:100070008A004F080A00803148282100911D41283C
:10008000422848282000911D46284728482836281D
:100090007E10090080314C28210093313F238031AC
:1000A000EF00433084009630850020308600013018
:1000B00087001E309331D1238031FD0156308400FA
:1000C0000030850007309331CB238031A03084008D
:1000D0000030850032309331CB2380313E308400B4
:1000E000013085001A309331CB238031A030840059
:1000F0000130850020309331CB2380317E102000E9
:10010000883129282000A600A701A801A9012608F6
:1001100003198B288C28E6280F1C8F2890289728F5
:100120008F1C932894289728A701A70AE6289431C2
:10013000AB2480312000AA01AA0AC728053020007C
:10014000A5000F30A400F130890BA428A40BA4282B
:10015000A50BA42820000F1CAE28AF28C2288F1C96
:10016000B228B328C228A701A70AAA0100309431F7
:1001700077248031013094319124803100309431E2
:100180008424803101302000A8070030A93D2A08CE
:100190000319CB28CC28D9282908803AA40080301C
:1001A0002402031DD52803302802031CD828D9288F
:1001B0009E2815302000A5004B30A400BE30890BCE
:1001C000DF28A40BDF28A50BDF280000200026086D
:1001D000031DEB28EC2846290F18EF28F028F728F4
:1001E0008F18F328F428F728A701A70A4629943185
:1001F000AB2480312000AA01AA0A2729053020005B
:10020000A5000F30A400F130890B0429A40B0429A8
:10021000A50B042920000F180E290F2922298F1859
:10022000122913292229A701A70AAA010030943113
:100230007724803101309431912480310030943121
:100240008424803101302000A8070030A93D2A080D
:1002500003192B292C2939292908803AA400803038
:100260002402031D352903302802031C38293929AB
:10027000FE2815302000A5004B30A400BE30890BAD
:100280003F29A40B3F29A50B3F2900002000270888
:1002900008002000A900AE01AF0129080319512967
:1002A000522998299329570803195729582993291E
:1002B00087313A2781312000A6002608A80083292B
:1002C00002302000A7000430A600BA30890B66294E
:1002D000A60B6629A70B662900002000AE01AE0A16
:1002E000AF01AF0A932902302000A7000430A60016
:1002F000BA30890B7929A60B7929A70B7929000037
:100300002000AE0170292808A600A7012708003A9E
:1003100003198B2993292608323A03196029013AD7
:100320000319732993292F08031997299829532909
:100330002908031D9C299D29F3290030AD000030B8
:10034000AC000030AB000030AA00CA290130200008
:10035000AA070030AB3D0030AC3D0030AD3D013070
:1003600096310D268131003A0319B729B829BC29E5
:100370002000AE01AF01AF0A01309631282681314D
:10038000003A0319C429C529CA292000AE01AE0AC2
:10039000AF01AF0A20002F08031DCF29D029DF2984
:1003A000AD1BDE292D08031DDF2980302A0296307F
:1003B0002B3B98302C3B031CDE29DF29A6298030FB
:1003C00020002A06963003192B06983003192C06B4
:1003D0002D04031DEC29ED29F329200025088600B2
:1003E00087018101810A20002E0808002000B60044
:1003F0002E0886008701403FB000413FB100300821
:100400008400310885001200253A031D082A092AB4
:100410007F2A2E08860087010130810741310318A9
:10042000810A2200D601D7012100C101C201FF309B
:10043000BF00FF30C00020002E0886008701403F2B
:10044000B000413FB100300884003108850012003F
:100450006E3A031D2C2A2D2A4C2A2E08860087016D
:100460000130810741310318810A2F088600870176
:10047000403F84008501810A0008B0003008B500C3
:1004800035088600870121003D08C03F3E08C13F76
:100490002000AE01AF01A22A2E0886008701403F4E
:1004A000B000413FB10030088400310885001200DF
:1004B000253A031D5C2A5D2A762A2E0886008701CC
:1004C0000130810741310318810A2530A600003030
:1004D000A7003608B0003008A80086311826813100
:1004E00001302000AE000030AF00A22A2E088600A6
:1004F00087010130810741310318810A482A2E08FB
:1005000086008701403FB000413FB10030088400C1
:10051000310885000008B200B3013208A600330894
:10052000A7003608B4003408A800863118268131A7
:1005300020002E0886008701013081074131031811
:10054000810A702A08002000AB002B08A9002908A6
:10055000D60000309531502582319C302000A90012
:10056000D730890BB12AA90BB12A033095317B25ED
:1005700082311A302000A900F830890BBD2AA90B5E
:10058000BD2A0000033095317B2582311A302000CE
:10059000A900F830890BCA2AA90BCA2A0000033027
:1005A00095317B2582311A302000A900F830890B63
:1005B000D72AA90BD72A0000023095317B2582313A
:1005C0001A302000A900F830890BE42AA90BE42A8C
:1005D0000000283095317B25823102302000AA00AE
:1005E0000430A900BA30890BF32AA90BF32AAA0B0D
:1005F000F32A00000C3095317B2582310230200037
:10060000AA000430A900BA30890B042BA90B042BD3
:10061000AA0B042B0000013095317B25823102307A
:100620002000AA000430A900BA30890B152BA90BB1
:10063000152BAA0B152B0000063095317B25823136
:1006400002302000AA000430A900BA30890B262B02
:10065000A90B262BAA0B262B0000080020308600B1
:1006600001308700C0308400013085001430200044
:10067000C70016001A00C70B392B34308600013032
:100680008700D4308400013085000A30C70016008E
:100690001A00C70B472B0130943184248331013079
:1006A0009431912483310030943177248331933114
:1006B000E5238331003094316A24833122008C1287
:1006C00020004408AF004308AE00D530B000983099
:1006D000B1008730B2009830B300AE30B40098302B
:1006E000B5008431AB24833120004408B1004308B5
:1006F000B000C0309531A82583312000C7004708DD
:100700002300DE00D4302000B0000130B10023000F
:100710005E089531A82583312000BF000130C0005C
:1007200095312B25833185314425833120000F1DE0
:100730009A2B9B2B962B4508860087018101460842
:1007400086008701810108002000CA01FC2B0F19D7
:10075000AA2BAB2BBF2B7230BF009830C000953155
:100760002B2583312000CA01CA0A430886004408A9
:1007700087008101450886004608870081015708E7
:100780000319C32BC42BFC2B87313A27833120005C
:10079000C7004708C900EF2B9C30BF009830C0004D
:1007A00095312B25833120004308860044088700BB
:1007B000810145088600460887008101023020003B
:1007C000C8000430C700BA30890BE42BC70BE42BF8
:1007D000C80BE42B00002000CA01CA0AFC2B490800
:1007E000C700C8014808003A0319F72BFC2B47083B
:1007F000343A0319CC2BFC2B4A080319002C012C8A
:10080000A72B08009331B3238431003A0319092C34
:100810000A2C3A2C172C93318B238431562C93318C
:1008200090238431562C93319A238431562C210005
:100830002F08FA007A08F9000630A03E86008701EA
:10084000413F8A00403F0A008431FB00FC017C08E4
:10085000003A03192C2C132C7B08013A0319132C92
:10086000033A03190B2C013A03190F2C073A031909
:10087000132C132C21003C101730A03E860087015A
:10088000403F84008501810A00089331812384312F
:1008900001302100B8020030B93B38083904031D8B
:1008A000522C532C552C0630562C033008002000B7
:1008B000C800C701A52C0F195E2C5F2C6D2C413090
:1008C000BF009830C00095312B2584312000C7012E
:1008D000C70A480886008701810157080319712C4F
:1008E000722CA52C87313A2784312000C40044089B
:1008F000C600982CA130BF009930C00095312B253F
:10090000843120004808860087018101810A023075
:100910002000C5000430C400BA30890B8D2CC40BF4
:100920008D2CC50B8D2C00002000C701C70AA52CFB
:100930004608C400C5014508003A0319A02CA52C9F
:100940004408313A03197A2CA52C47080319A92C1D
:10095000AA2C5B2C08009431322484310630953166
:100960007B25843102302000B7000430B600BA3055
:10097000890BB82CB60BB82CB70BB82C0000200094
:10098000A901A90A013087316927843120002F0885
:10099000AA002E08A9009631802684312000A901E2
:1009A000A90A023087316927843120003108AA0062
:1009B0003008A9009631802684312000A901A90AB7
:1009C000033087316927843120003308AA003208B8
:1009D000A9009631802684312000A901A90A04309B
:1009E00087316927843120003508AA003408A9001E
:1009F00096318026843108002000D30053088600F9
:100A000087010108CD00CE014D08C3004E08C40087
:100A10004B08860087010108CF00D0014F08C500B0
:100A20005008C6008331A423843120004B0886007F
:100A300087010108CD00CE014D08C3004E08C40057
:100A40004C08860087010108CF00D0014F08C5007F
:100A50005008C6005308860087010108D100D20162
:100A60005108C7005208C8008631D8268431293081
:100A70002000CE009630CD007F30890B3D2DCD0B70
:100A80003D2DCE0B3D2D08002000A801A90120001E
:100A9000AA01AB0197317B2785310B302000A700DD
:100AA0002630A6005D30890B532DA60B532DA70BC6
:100AB000532D003201302000AA070030AB3D2B0837
:100AC000803AA60080302602031D682D04302A02D9
:100AD000031C6B2D6C2D4A2D0B302000A7002630F7
:100AE000A6005D30890B722DA60B722DA70B722DFF
:100AF000003201302000A8070030A93D2908803AC3
:100B0000A60080302602031D872D04302802031C16
:100B10008A2D8B2D472D080021009112593020007D
:100B2000A3000630A4009431202485312100111245
:100B3000E2302000A3001630A4009431292485312E
:100B4000083023009F0090309D0024309E004030EC
:100B50009B0003309C003E302000A3001330A40013
:100B600094310E24853155302000A3001330A400A9
:100B700094311724853151302000A3001330A40094
:100B80009431052485312100D1012000DC01DB01F5
:100B90000830A5002508DA00D901D801D7012100C5
:100BA0009116080093314B238531FA002100370854
:100BB000860087017A0881000130FA007A08B707B9
:100BC0000130B8020030B93B380839040319E92D67
:100BD000EA2DEF2D93315D2385310530172EBC159D
:100BE000F92D9331A9238531172E9331A423853113
:100BF000172E2C08FA007A08F90021088A0020082C
:100C00000A008631FB00FC017C08003A0319092E1A
:100C1000F52D7B08013A0319F52D033A0319F12D3F
:100C2000013A0319F12D073A0319F52DF52D0800A6
:100C30002000280803191D2E1E2E232E2808031D10
:100C4000222E232E282E26089331DE238631582E7D
:100C50002808033E86008701160001040319312E7F
:100C6000322E4F2E2808033E86008701403FA90000
:100C7000413FAA00280A86008701403FAB00413F60
:100C8000AC002C08803AAD002A08803A2D02031DE2
:100C90004B2E29082B0203184E2E4F2E582E2000C3
:100CA000280A860087010130810741310318810A33
:100CB0000800200059083E3E86000130870081016F
:100CC00023001D1D642E652E722E200059083E3E05
:100CD0008600013087008114210048088A004708F7
:100CE0000A00863123009D1C762E772E842E20004C
:100CF00059083E3E86000130870001152100460854
:100D00008A0045080A008631200059083E3E8600C8
:100D100001308700010803198E2E8F2E962E210098
:100D200044088A0043080A008631992E9531D72558
:100D3000863108002000A9002908A7002708AA007A
:100D4000BC2E0130A5020030A63B2A088600870190
:100D5000AA0A2408A8002308A700A30A0319A40AC2
:100D600027088400280885000008C03F8908031D63
:100D7000BA2EBB2EBC2ECB2E25082604031DC12E59
:100D8000C22EA12ECB2E2A088600870181010130B8
:100D9000A7002708AA070130A5020030A63B250AB4
:100DA000031DD62E260A031DD62ED72EC32E0800CD
:100DB000200047088600480887000108031DE12E2F
:100DC000E22EE92E7230BF009830C00095312B25FD
:100DD00086312000430886004408870081014508C9
:100DE000860046088700810147088600480887007A
:100DF000810100309431772486310030943184248D
:100E0000863100309431912486319331E523863147
:100E100008002000BC003808BE003708BD002100D3
:100E2000BD01BE01272F3D30BA003A08AE00390897
:100E3000BB003B08AF003C088131F6218731200020
:100E40002E082100BD0720002F082100BE3D2000F4
:100E50003D0884003E0885001200031D302F312F0D
:100E6000132F21003E082000B80021003D0820007B
:100E7000B70008002000570803193F2F402F3A2FD2
:100E800058083E3E8600013087000108A300230871
:100E90002100D10020005808463E8600013087001E
:100EA0000108A3002308A4000130A3002308D807E9
:100EB00008305802031C5D2F5E2F5F2FD8012100E0
:100EC000911201302000D702210091162000240841
:100ED00008002000AC00842F2908BF3E95317B25F7
:100EE0008731972F2908933E95317B258731972F9E
:100EF0002908D33E95317B258731972F29087F3EDE
:100F000095317B258731972F2C08AA00AB012B0840
:100F1000003A03198C2F7E2F2A08023A03196C2FEE
:100F2000013A0319722F073A0319782F7E2F080010
:100F30002100BC15A82F933195238731C62F9331FB
:100F40004E2387310330C62F93319A238731C62F22
:100F50002C08FA007A08F90021088A0020080A0003
:100F60008731FB00FC017C08003A0319B82FA42F3D
:100F70007B08013A0319A42F033A03199B2F013A66
:100F800003199B2F073A03199F2FA42F08008831BC
:100F90000020873121003C1CCE2FCF2FDD2F933135
:100FA000B3238731003A0319D62FD72FDD2F0F3007
:100FB0002000A00020082100BA0021003A082000EB
:100FC000A000A101A035A10D0030200784009030C1
:100FD000213D8500013F8A00003F0A008731200043
:100FE000A20022082100BA00080028302400950041
:100FF000960194012730920021008E150E160800EC
:101000002000911108002000A801A90197317B2739
:1010100088310B302000A7002630A6005D30890BF8
:101020000F28A60B0F28A70B0F2800320130200035
:10103000A8070030A93D2908803AA6008030260282
:10104000031D242802302802031C272828280628EC
:10105000080095313D2588318B170B178731F5270F
:1010600088314E308231A32288312100EE01ED011A
:10107000EC01E801EB01AF302000AE009830AF008A
:101080002F30B0009930B1008430B2009930B300F5
:10109000AE30B4009830B5008431AB2488311530BF
:1010A0002000D5004B30D400BE30890B5528D40B1E
:1010B0005528D50B55280000973105278831200089
:1010C00024082100EA00200023082100E900690823
:1010D0006A0403196C286D2811299431AB248831D6
:1010E0008531442588312100E601E701DA28E7301F
:1010F0002000A3009830A4001430A5000030A60002
:10110000D23086319A268831B128F9302000A300E8
:101110009830A4001430A5000030A600D2308631EB
:101120009A268831B1280B302000A3009930A40002
:101130001430A5000030A600D23086319A268831BE
:10114000B1286A08003A0319A628B1286908013AAB
:1011500003197728033A03198528013A03199328BC
:10116000B128AF302000AE009830AF00D230B000D0
:101170000030B1004130B2009930B3008730B40084
:101180009830B5008431AB2488319331C523883140
:101190009731D327883197310527883120002408DB
:1011A0002100EA00200023082100E9000130E607C1
:1011B0000030E73D6708803A2000D40080305402B8
:1011C000031DE5280230210066020318E828E928FB
:1011D000F028210069086A04031DEF28F028A128DF
:1011E000210069086A040319F628F7281129E80183
:1011F000E80A8531442588311129AF302000AE003E
:101200009830AF00D230B0000030B1005B30B20097
:101210009830B3007430B4009930B5008431AB24F9
:10122000883121006808031D16291729FD28680840
:10123000031D1B291C295C28AF302000AE0098300C
:10124000AF001D30B0009930B100AE30B200983020
:10125000B3008430B4009930B5008431AB248831B8
:1012600003302000D5000830D4007730890B3629B0
:10127000D40B3629D50B3629EE302000D400540883
:10128000C300EC3084315724883188310320883101
:1012900027302000AE009A30AF00AE30B000993059
:1012A000B100AE30B2009830B300AE30B400983028
:1012B000B5008431AB2488312100EE01EE0A003004
:1012C000943177248831003094318424883101307E
:1012D00094319124883103302000D5000830D400A7
:1012E0007730890B7129D40B7129D50B7129013005
:1012F0009431B824883193317D2388310030943182
:101300009E248831003094316A24883111302000C5
:10131000D5003C30D400CB30890B8C29D40B8C29E0
:10132000D50B8C290030803182208831003A031996
:101330009A299B299C29BB292100EE0127302000F6
:10134000C3009A30C400EE30D4005408C500ED301C
:10135000D5005508C60083312E238831EE30200099
:10136000D4005408CB00ED30D5005508CC00EC304B
:101370008431FC24883121006E080319C029C12959
:10138000152A2F302000AE009A30AF00B330B000E5
:101390009930B100AE30B2009830B300AE30B40036
:1013A0009830B5008431AB2488319331652388317E
:1013B000003094319E248831013094316A24883180
:1013C00011302000D5003C30D400CB30890BE62909
:1013D000D40BE629D50BE6290130803182208831F3
:1013E000003A0319F429F529F629152A2100EE01FE
:1013F0002F302000C3009A30C400EE30D4005408CF
:10140000C500ED30D5005508C60083312E23883144
:10141000EE302000D4005408CB00ED30D500550844
:10142000CC00EC308431FC24883121006E08031993
:101430001A2A1B2A6F2A37302000AE009A30AF00DC
:10144000B330B0009930B100AE30B2009830B30084
:10145000AE30B4009830B5008431AB24883193317C
:1014600065238831013094319E24883100309431D5
:101470006A24883111302000D5003C30D400CB30B4
:10148000890B402AD40B402AD50B402A00308031EA
:1014900082208831003A03194E2A4F2A502A6F2A97
:1014A0002100EE0137302000C3009A30C400EE3036
:1014B000D4005408C500ED30D5005508C60083316E
:1014C0002E238831EE302000D4005408CB00ED30BC
:1014D000D5005508CC00EC308431FC248831210043
:1014E0006E080319742A752AC92A3F302000AE00FD
:1014F0009A30AF00B330B0009930B100AE30B200D6
:101500009830B300AE30B4009830B5008431AB24CD
:10151000883193317D238831003094319E24883185
:10152000003094316A24883111302000D5003C30DD
:10153000D400CB30890B9A2AD40B9A2AD50B9A2A3D
:101540000030803182208831003A0319A82AA92A64
:10155000AA2AC92A2100EE0137302000C3009A30A0
:10156000C400EE30D4005408C500ED30D500550855
:10157000C60083312E238831EE302000D400540879
:10158000CB00ED30D5005508CC00EC308431FC2484
:10159000883121006E080319CE2ACF2A232B473029
:1015A0002000AE009A30AF00B330B0009930B100E7
:1015B000AE30B2009830B300AE30B4009830B50011
:1015C0008431AB24883193317923883100309431D0
:1015D0009E248831013094316A24883111302000F2
:1015E000D5003C30D400CB30890BF42AD40BF42A3C
:1015F000D50BF42A0130803182208831003A03195A
:10160000022B032B042B232B2100EE01473020005B
:10161000C3009A30C400EE30D4005408C500ED3049
:10162000D5005508C60083312E238831EE302000C6
:10163000D4005408CB00ED30D5005508CC00EC3078
:101640008431FC24883121006E080319282B292BB2
:101650007D2B4F302000AE009A30AF00B330B00089
:101660009930B100AE30B2009830B300AE30B40063
:101670009830B5008431AB24883193317923883197
:10168000013094319E248831003094316A248831AD
:1016900011302000D5003C30D400CB30890B4E2BCC
:1016A000D40B4E2BD50B4E2B00308031822088314D
:1016B000003A03195C2B5D2B5E2B7D2B2100EE0184
:1016C0004F302000C3009A30C400EE30D4005408DC
:1016D000C500ED30D5005508C60083312E23883172
:1016E000EE302000D4005408CB00ED30D500550872
:1016F000CC00EC308431FC24883121006E080319C1
:10170000822B832BD72B57302000AE009A30AF00AE
:10171000B330B0009930B100AE30B2009830B300B1
:10172000AE30B4009830B5008431AB2488319331A9
:101730007D238831003094319E24883100309431EB
:101740006A24883111302000D5003C30D400CB30E1
:10175000890BA82BD40BA82BD50BA82B00308031DC
:1017600082208831003A0319B62BB72BB82BD72B20
:101770002100EE0157302000C3009A30C400EE3043
:10178000D4005408C500ED30D5005508C60083319B
:101790002E238831EE302000D4005408CB00ED30E9
:1017A000D5005508CC00EC308431FC248831210070
:1017B0006E080319DC2BDD2B342C5F302000AE00CB
:1017C0009A30AF006F30B0009A30B100AE30B20046
:1017D0009830B300AE30B4009830B5008431AB24FB
:1017E000883100309431B824883193317D23883199
:1017F000933175238831003094316A248831113057
:101800002000D5003C30D400CB30890B052CD40B04
:10181000052CD50B052C0030803182208831003A10
:101820000319132C142C152C342C2100EE015F30DD
:101830002000C3009A30C400EE30D4005408C50024
:10184000ED30D5005508C60083312E238831EE30A7
:101850002000D4005408CB00ED30D5005508CC0052
:10186000EC308431FC24883121006E080319392CB6
:101870003A2C8D2C67302000AE009A30AF006F30CC
:10188000B0009A30B100AE30B2009830B300AE3044
:10189000B4009830B5008431AB248831933165238E
:1018A000883193316D238831013094316A24883135
:1018B00011302000D5003C30D400CB30890B5E2C99
:1018C000D40B5E2CD50B5E2C013080318220883108
:1018D000003A03196C2C6D2C6E2C8D2C2100EE011E
:1018E00067302000C3009A30C400EE30D4005408A2
:1018F000C500ED30D5005508C60083312E23883150
:10190000EE302000D4005408CB00ED30D50055084F
:10191000CC00EC308431FC24883121006E0803199E
:10192000922C932CE62CDF302000AE009930AF00D3
:101930006F30B0009A30B100AE30B2009830B300D2
:10194000AE30B4009830B5008431AB248831933187
:1019500065238831933175238831003094316A24AE
:10196000883111302000D5003C30D400CB30890BB9
:10197000B72CD40BB72CD50BB72C0030803182207C
:101980008831003A0319C52CC62CC72CE62C21003F
:10199000EE01DF302000C3009930C400EE30D400E7
:1019A0005408C500ED30D5005508C60083312E23FC
:1019B0008831EE302000D4005408CB00ED30D50043
:1019C0005508CC00EC308431FC24883121006E08AD
:1019D0000319EB2CEC2C3F2DE8302000AE009930A1
:1019E000AF006F30B0009A30B100AE30B200983026
:1019F000B300AE30B4009830B5008431AB248831E8
:101A000093317D23883193317523883100309431AF
:101A10006A24883111302000D5003C30D400CB300E
:101A2000890B102DD40B102DD50B102D00308031CB
:101A300082208831003A03191E2D1F2D202D3F2DA5
:101A40002100EE01E8302000C3009930C400EE30E0
:101A5000D4005408C500ED30D5005508C6008331C8
:101A60002E238831EE302000D4005408CB00ED3016
:101A7000D5005508CC00EC308431FC24883121009D
:101A80006E080319442D452D982DF1302000AE002D
:101A90009930AF006F30B0009A30B100AE30B20074
:101AA0009830B300AE30B4009830B5008431AB2428
:101AB000883193317923883193317523883100300F
:101AC00094316A24883111302000D5003C30D40094
:101AD000CB30890B692DD40B692DD50B692D0030C6
:101AE000803182208831003A0319772D782D792DA5
:101AF000982D2100EE01F1302000C3009930C40080
:101B0000EE30D4005408C500ED30D5005508C600AD
:101B100083312E238831EE302000D4005408CB00CE
:101B2000ED30D5005508CC00EC308431FC248831F0
:101B300021006E0803199D2D9E2DF12DFA302000F5
:101B4000AE009930AF006F30B0009A30B100AE30C7
:101B5000B2009830B300AE30B4009830B500843194
:101B6000AB248831933179238831933171238831C3
:101B7000013094316A24883111302000D5003C3086
:101B8000D400CB30890BC22DD40BC22DD50BC22D66
:101B90000130803182208831003A0319D02DD12DB7
:101BA000D22DF12D2100EE01FA302000C300993032
:101BB000C400EE30D4005408C500ED30D5005508FF
:101BC000C60083312E238831EE302000D400540823
:101BD000CB00ED30D5005508CC00EC308431FC242E
:101BE000883121006E080319F62DF72D4A2E033097
:101BF0002000AE009A30AF006F30B0009A30B100D4
:101C0000AE30B2009830B300AE30B4009830B500BA
:101C10008431AB2488319331792388319331752312
:101C20008831003094316A24883111302000D50089
:101C30003C30D400CB30890B1B2ED40B1B2ED50B84
:101C40001B2E0030803182208831003A0319292E62
:101C50002A2E2B2E4A2E2100EE0103302000C30035
:101C60009A30C400EE30D4005408C500ED30D500E1
:101C70005508C60083312E238831EE302000D40071
:101C80005408CB00ED30D5005508CC00EC30843141
:101C9000FC24883121006E0803194F2E502EA32EEC
:101CA0000C302000AE009A30AF006F30B0009A3098
:101CB000B100AE30B2009830B300AE30B40098300E
:101CC000B5008431AB24883193317D238831933141
:101CD00071238831003094316A248831113020001A
:101CE000D5003C30D400CB30890B742ED40B742E2D
:101CF000D50B742E0030803182208831003A0319D0
:101D0000822E832E842EA32E2100EE010C30200083
:101D1000C3009A30C400EE30D4005408C500ED3042
:101D2000D5005508C60083312E238831EE302000BF
:101D3000D4005408CB00ED30D5005508CC00EC3071
:101D40008431FC24883121006E080319A82EA92EA5
:101D5000172F15302000AE009A30AF005230B0007F
:101D60009930B100AE30B2009830B300C230B40048
:101D70009830B5008431AB24883101309431B824D7
:101D80008831933179238831013094319E24883110
:101D9000003094316A24883111302000D5003C3065
:101DA000D400CB30890BD22ED40BD22ED50BD22E11
:101DB00021302000BF009830C00095312B2588319C
:101DC000EB302000D4005408A50021006C088131BC
:101DD000492188312000D50055082100ED006D080B
:101DE000031DF32EF42E172F6B08031DF82EF92E6A
:101DF000172FEE0137302000C3009A30C400EE30B8
:101E0000D4005408C500ED30D5005508C600833114
:101E10002E238831EE302000D4005408CB00ED3062
:101E2000D5005508CC00EC308431FC2488312100E9
:101E30006E0803191C2F1D2F8C2F6B08031D212FDB
:101E4000222F8C2F1E302000AE009A30AF0063305E
:101E5000B0009930B100AE30B2009830B300C2305B
:101E6000B4009830B5008431AB24883193317923A4
:101E70008831013094319E248831013094316A24B4
:101E8000883111302000D5003C30D400CB30890B94
:101E9000472FD40B472FD50B472F00302000BF0012
:101EA0009830C00095312B258831EB302000D400CC
:101EB0005408A50021006C08813149218831200097
:101EC000D50055082100ED006D08031D682F692F0E
:101ED0008C2F6B08031D6D2F6E2F8C2FEE011E3083
:101EE0002000C3009A30C400EE30D4005408C5006E
:101EF000ED30D5005508C60083312E238831EE30F1
:101F00002000D4005408CB00ED30D5005508CC009B
:101F1000EC308431FC24883121006E080319912FA4
:101F2000922F5C286B08031D962F972FB02FC83077
:101F30002000AE009930AF00DE30B0009830B10024
:101F40009330B2009930B3008730B4009830B500B8
:101F50008431AB2488310130943177248831C72F04
:101F6000C8302000AE009930AF00D430B0009930B6
:101F7000B100BB30B2009930B3008730B400983064
:101F8000B5008431AB2488319431AB24883193314E
:101F9000E5238831003094316A24883122008C1284
:101FA00096319F268831EC302000C3000030C400F9
:101FB000EE30C5000030C6008331A4238831EE30F6
:101FC0002000C3000030C400ED30C5000030C60062
:101FD000EC30C7000030C8008631D8268831210097
:101FE000EB0129302000D5009630D4007F30890BDA
:101FF000F72FD40BF72FD50BF72F5C2880314A2809
:1020000086341334FC341334EC3413340234043483
:10201000D2340534D7341334983407348B34133422
:1020200090341334953413349A3413349F34133466
:10203000A4341334A9341334AE3413344F34173466
:102040002D343E3420345434453453345434203405
:1020500043344F344E3446344F3452344D34453487
:1020600020342D34203441345434543445344E34E7
:102070005434453420344134433451345534493494
:102080005434543445344D3445344E3454340D3482
:042090000A340034DA
:10267C0008000834013008002400961408002400D7
:10268C0016150800240096150800240011080800EF
:10269C002000911508009531D725933108002300AF
:1026AC001D121D160800240096161616080024008C
:1026BC009612161608008731C7279331080022009E
:1026CC008C140C1008001630210097000800220012
:1026DC000C168C11080022000C128C15080022001C
:1026EC000C128C11080022000C148C100800220013
:1026FC008C100C100800F0007008240091000800E9
:10270C002100BC10BB010E300800933142239331E1
:10271C000130080093314223933102300800933189
:10272C00422393310130080093314523933100301B
:10273C00080093315D239331053008009331592300
:10274C0093310A3008009331592393310930080032
:10275C002100BC10BB010E3008002400160E890CA1
:10276C00890C013908009431452493312400161446
:10277C0008009431452493312400161508002000DC
:10278C000F19C92BCA2BC52B08006400800101311D
:10279C00890BCC2B0034FE0012001E00FE0BD22B3A
:1027AC00003421003C10933148239331043008004D
:1027BC002000A50025089731A72793310800220097
:1027CC000C108C100C118C110C12080021003C14F4
:1027DC00363593318123933103300800F0302100DA
:1027EC009E009B019C0101309D00080021003C14BF
:1027FC000314360D933181239331053008002000EA
:10280C0024082100C400200023082100C300080074
:10281C00200024082100C800200023082100C70044
:10282C000800200024082100C600200023082100F5
:10283C00C5000800200024082100CA00200023083D
:10284C002100C9000800200024082100CC00200031
:10285C0023082100CB000800013095317B259431F1
:10286C003530890B372C00000800C0302400940050
:10287C000830950096014F30920095120800240004
:10288C001419492C4A2C452C16081F39031D4F2CA2
:10289C00502C452C08007030210099009801220022
:1028AC00960121001A1F5B2C5C2C572C0800760813
:1028BC00F1007508F0007708F8007808F200003095
:1028CC0097312927943108002000A300230803190D
:1028DC00702C712C742C22000C17762C22000C13EB
:1028EC0008002000A300230803197D2C7E2C812CCA
:1028FC0022001014832C2200101008002000A300CA
:10290C00230803198A2C8B2C8E2C22008D16902CCC
:10291C0022008D1208002000A30023080319972C15
:10292C00982C9B2C220010159D2C220010110800B5
:10293C002000A30023080319A42CA52CA82C2200EA
:10294C000C15AA2C22000C110800013094317724AC
:10295C009431013094318424943101309431912498
:10296C00943108002000A30023080319BE2CBF2CAF
:10297C00C32C22008C138C16C62C22008C178C12A4
:10298C000800F3002100BC1DCC2CCD2CD62C7308D8
:10299C00F2007208B7007108B9007008B800BC11D9
:1029AC0008002000A3009431452494312000230812
:1029BC00240091002000911DE42CE52CE02C9111B9
:1029CC0008000230F0000030F10079089431C7247F
:1029DC0094310030F500F600F70194315D24943108
:1029EC00043008000130F0000030F1007908943117
:1029FC00C72494310030F500F600F70194315D24C2
:102A0C009431023008000230F0000030F1007908F7
:102A1C009431C72495310030F500F600F70194315C
:102A2C005D249531023008000130F0000030F100D7
:102A3C0079089431C72495310030F500F600F70180
:102A4C0094315D2495310430080041302000C100E0
:102A5C004108C2004008B8003F08B7004230C1002E
:102A6C004108B900003087310927953108009431AD
:102A7C003B24953196316126953194315124953111
:102A8C009331692395319331F423953185318C251C
:102A9C00953108002000A4009331B9239531200012
:102AAC0056089431D72495312000240821006F0456
:102ABC009431D72495319331BF23953108002000F0
:102ACC00A6007D08A5002508A60426080438953123
:102ADC005025953120002608FB399531502595312C
:102AEC004230890B772D003208002000A800FD0130
:102AFC002808F03995316525953120002808A70064
:102B0C000330A735FF3E031D872D2735F03995314E
:102B1C006525953108002000A800FD01FD0A280854
:102B2C00F03995316525953120002808A700033030
:102B3C00A735FF3E031D9E2D2735F03995316525B0
:102B4C00953108002000B4003108A9003008A80015
:102B5C0034089531F225953120002308B200240861
:102B6C00B300340832079631C02695312000340862
:102B7C000800790886008701403FF000413FF100D2
:102B8C007908023E8600870101089431C7249531EB
:102B9C000030F500F600F70194315D2495310230D8
:102BAC00080023001908F00020005908463E860052
:102BBC0001308700700881000130F0007008D907DF
:102BCC0008305902031CEB2DEC2DED2DD9010130F1
:102BDC00F0007008D70708002000A7002708A50000
:102BEC002508A600FD2D0130A5002508A7072708FC
:102BFC008600013087000108031D052E062EF92DD5
:102C0C0026082702A300A401A31BA403080020008C
:102C1C00A400A30124080319142E152E1B2E8F1BA0
:102C2C00182E192E1B2EA301A30A2408031D1F2ED8
:102C3C00202E262E8F1F232E242E262EA301A30AF0
:102C4C00230808002000A400A301240803192F2E38
:102C5C00302E362E0F19332E342E362EA301A30A06
:102C6C002408031D3A2E3B2E412E0F1D3E2E3F2EC7
:102C7C00412EA301A30A230808002D343E3420342E
:102C8C004534523452344534553452343A34203469
:102C9C000034003400340034003400340034003488
:102CAC0000340D340A340034003400340034003461
:102CBC00003400340034220090018F018C018D010E
:102CCC008E010830210090008C01CF308D00BF3078
:102CDC008E00FF308F0023008F013F308D0090015C
:102CEC003C308C00240090018D01210095172200AE
:102CFC009D0108002000AC01AD01932E29082C0782
:102D0C0084002A082D3D85000008953191259631C7
:102D1C0001302000AC070030AD3D29082C078400A1
:102D2C002A082D3D85001200031D9D2E9E2E842EFB
:102D3C00080020302000BF009030C00095312B25BA
:102D4C0096312000C401C501883103209631013031
:102D5C002000C4070030C53D4508803AC3008030D0
:102D6C004302031DBB2E02304402031CBE2EBF2E99
:102D7C00AA2E08002000AF002908AD002808AC00DE
:102D8C002F08AA002A08AE002E0886000130870002
:102D9C00AE0A2D08AB002C08AA00AC0A0319AD0A28
:102DAC002A0884002B0885000008C03F8908031DF1
:102DBC00E02EE12ECA2E0800083020005A0203181B
:102DCC00E82EE92E022F5B084E3E8600013087006C
:102DDC00010823009A000130F00070082000DB0786
:102DEC0008305B02031CFB2EFC2EFD2EDB01013098
:102DFC00F0007008DA07042F2100111208002000DF
:102E0C00A501A6010F1C0B2F0C2F102F0130A500B4
:102E1C000030A6008F1C132F142F182F0230A50082
:102E2C000030A6000F1C1B2F1C2F242F8F1C1F2FB4
:102E3C00202F242F0330A5000030A6002608A40064
:102E4C002508A3000800F4007008710403192F2F43
:102E5C00302F412F7435A03E860087017008C03F8B
:102E6C007108C13F7208F3007408AC3E86008701FC
:102E7C00730881004E2F7435A03E860087014030C8
:102E8C00C03F1330C13F7408AC3E860087018101FE
:102E9C00080021003C100230FA007A08BB005E2FBB
:102EAC009331952397317A2F93319A2397317A2F37
:102EBC002E08FA007A08F9000430A03E860087013B
:102ECC00413F8A00403F0A009731FB00FC017C081F
:102EDC00003A0319722F5A2F7B08023A0319562F06
:102EEC00013A0319562F5A2F08002000A401A501FE
:102EFC0022000D1606302000A3003030890B842FE1
:102F0C00A30B842F000022000D1206302000A3001A
:102F1C003030890B8F2FA30B8F2F00000130200036
:102F2C00A4070030A53D2508803AA3008030230279
:102F3C00031DA22F32302402031CA52FA62F7E2F97
:102F4C0008002000A4005A080319AD2FAE2FA92F9A
:102F5C002100111AB22FB32FB82F20002408230000
:102F6C009A00D02F111220002408A3005C084E3EBA
:102F7C00860001308700230881000130A30023085C
:102F8C00DC0708305C02031CCC2FCD2FCE2FDC01CC
:102F9C000130DA0221001116080001309431B824F6
:102FAC0097319331792397310B302000A5002630CF
:102FBC00A4005D30890BE02FA40BE02FA50BE02FB4
:102FCC000032013094319E2497310B302000A50043
:102FDC002630A4005D30890BF12FA40BF12FA50B2B
:102FEC00F12F0032013094319E24973193317D239F
:102FFC009731080041347434743465346E3474344D
:10300C0065342034763461346C346934643461341E
:10301C00743469346F346E3420346C3465346434F5
:10302C007334203462346C346534753465347334E1
:10303C000D340A34003441347434743465346E34D1
:10304C00743465342034763461346C3469346434CB
:10305C006134743469346F346E3420346C346534B8
:10306C006434203476346534723474346534733497
:10307C000D340A3400342D343E3420345434453469
:10308C005334543420344D3441344E345534453457
:10309C004C34203445344E34203443344F3455347E
:1030AC00523453340D340A3400344D3441344934E1
:1030BC004E34543445344E3441344E344334453418
:1030CC0020344E3445344334453453345334413432
:1030DC0049345234453400342D343E342034463493
:1030EC0049344E342034543445345334543420341D
:1030FC004D3441344E34553445344C340D340A344B
:10310C00003441345434543445344E3454344534FE
:10311C0020344134433451345534493454345434C8
:10312C0045344D3445344E34543400342D343E340F
:10313C0020345434453453345434203441344334DF
:10314C005134553449345434543445340D340A34E0
:10315C0000345434453453345434203443344134DF
:10316C0052345434453420344434383435343534C2
:10317C0045344434323400344134503450345534B2
:10318C005934453452342034533455345234203469
:10319C004F344B342F344E344F344B34003454347E
:1031AC0045345334543420344E344F344E3420345C
:1031BC0043344F344E3446344F3452344D3445340A
:1031CC00003444344534463441345534543420347A
:1031DC0043345034313420342034203420342034DF
:1031EC00203420340034443445344634413455348E
:1031FC00543420344334503432342034203420348A
:10320C0020342034203420340034443445344634C3
:10321C004134553454342034433450343134203414
:10322C004534543420344334503432340034413433
:10323C005434543445344E345434453420344434AA
:10324C0045344D344134523452344134473445348E
:10325C00003450344F3453344934543449344F349B
:10326C004E344E3445345234203443344134523489
:10327C0054344534003450344C34413443344534A4
:10328C005234203443344134523454344534203491
:10329C005234453446340034543445345334543465
:1032AC0020344C344534443453342034563445346F
:1032BC005234543445345334003454344534533438
:1032CC00543420344C344534443453342034423454
:1032DC004C3445345534453453340034523445342D
:1032EC00443445344D3441345234523445345A34D8
:1032FC002034423441344E3443340034413450345D
:10330C0050345534593445345234203453345534B4
:10331C00523420344F344B3400345234453454340A
:10332C0049345234453452342034433441345234C9
:10333C005434453400342D343E3420345434453424
:10334C005334543420344F344E340D340A34003456
:10335C00543445345334543420344D344F34443481
:10336C0045342034423450340034523445345034D3
:10337C004534543445345234203454344534533465
:10338C0054340034463449344E34203444344534B7
:10339C0020345434453453345434003448344F348A
:1033AC00523453342034443445344C34413449344D
:1033BC0000344534543441345034453420343134A1
:1033CC003034003445345434413450344534203492
:1033DC003134313400344534543441345034453470
:1033EC002034313432340034453454344134503484
:1033FC00453420343134333400344534543441347E
:10340C00503445342034313434340034453454345D
:10341C00413450344534203431343534003445345F
:10342C00543441345034453420343134363400343F
:10343C0045345434413450344534203431343734E9
:10344C000034453454344134503445342034313410
:10345C0000344534543441345034453420343234FF
:10346C0000344534543441345034453420343334EE
:10347C0000344534543441345034453420343434DD
:10348C0000344534543441345034453420343534CC
:10349C0000344534543441345034453420343634BB
:1034AC0000344534543441345034453420343734AA
:1034BC000034453454344134503445342034383499
:1034CC000034453454344134503445342034393488
:1034DC0000344D344F344434453420345434433464
:0234EC000034AA
:020000040001F9
:08000000FF3FFF3FFF3FFF3F00
:04000E00E43FFF3F8D
:00000001FF
