:1000000080314A28053008007E1480310B1F0928F2
:100010000A2848282100111E0E280F281B2820001E
:10002000111E132814281B2821004C088A004B0895
:100030000A00803148282100911E1F2820282C28E2
:100040002000911E242825282C2821004A088A00F7
:1000500049080A00803148282100921D30283128A3
:100060003D282000921D352836283D2821005008C3
:100070008A004F080A00803148282100911D41283C
:10008000422848282000911D46284728482836281D
:100090007E10090080314C2821008731FF278031F4
:1000A000EF007030840096308500203086000130EB
:1000B00087001E30943106248031FD0156308400C3
:1000C000003085000730943100248031A030840056
:1000D0000030850032309431002480313E3084007D
:1000E000013085001A30943100248031A030840022
:1000F0000130850020309431002480317E102000B2
:10010000883129282000A900AE01AF012908031970
:100110008A288B28D128CC285708031990289128A1
:10012000CC288731042780312000A6002608A800AB
:10013000BC2802302000A7000430A600BA30890B8A
:100140009F28A60B9F28A70B9F2800002000AE0128
:10015000AE0AAF01AF0ACC2802302000A70004305D
:10016000A600BA30890BB228A60BB228A70BB2287A
:1001700000002000AE01A9282808A600A701270832
:10018000003A0319C428CC282608323A03199928C2
:10019000013A0319AC28CC282F080319D028D128FC
:1001A0008C282908031DD528D6282C290030AD001D
:1001B0000030AC000030AB000030AA000329013051
:1001C0002000AA070030AB3D0030AC3D0030AD3D13
:1001D000013096313A268031003A0319F028F1288F
:1001E000F5282000AE01AF01AF0A01309631552647
:1001F0008031003A0319FD28FE2803292000AE01B2
:10020000AE0AAF01AF0A20002F08031D08290929F3
:100210001829AD1B17292D08031D182980302A0223
:1002200096302B3B98302C3B031C17291829DF28CC
:10023000803020002A06963003192B0698300319C7
:100240002C062D04031D252926292C2920002508EC
:10025000860087018101810A20002E080800200005
:10026000B6002E0886008701403FB000413FB10034
:1002700030088400310885001200253A031D412909
:100280004229B8292E0886008701013081074131B3
:100290000318810A2200D601D7012100C101C20141
:1002A000FF30BF00FF30C00020002E08860087010D
:1002B000403FB000413FB100300884003108850064
:1002C00012006E3A031D6529662985292E088600CD
:1002D00087010130810741310318810A2F08860008
:1002E0008701403F84008501810A0008B000300882
:1002F000B50035088600870121003D08C03F3E0853
:10030000C13F2000AE01AF01DB292E088600870126
:10031000403FB000413FB100300884003108850003
:100320001200253A031D95299629AF292E0886002B
:1003300087010130810741310318810A2530A60069
:100340000030A7003608B0003008A8008531E2254B
:10035000813101302000AE000030AF00DB292E08D3
:10036000860087010130810741310318810A812904
:100370002E0886008701403FB000413FB1003008A1
:100380008400310885000008B200B3013208A600DD
:100390003308A7003608B4003408A8008531E225E8
:1003A000813120002E08860087010130810741310C
:1003B0000318810AA92908002000A600A701A801A6
:1003C000A90126080319E529E629282A0F1CE9298D
:1003D000EA29F1298F1CED29EE29F129A701A70AA5
:1003E000282A9431EB2481312000AA01AA0A152A77
:1003F00001302000A8070030A93D05302000A500ED
:100400000F30A400F130890B032AA40B032AA50B9B
:10041000032A20000F1C0D2A0E2A152A8F1C112AD0
:10042000122A152AA701A70AAA012A080319192ABC
:100430001A2A282A2908803AA40080302402031DA1
:10044000232A03302802031C262A272AF829282ACF
:1004500020002608031D2D2A2E2A702A0F18312A63
:10046000322A392A8F18352A362A392AA701A70AAB
:10047000702A9431EB2481312000AA01AA0A5D2A56
:1004800001302000A8070030A93D05302000A5005C
:100490000F30A400F130890B4B2AA40B4B2AA50B7B
:1004A0004B2A20000F18552A562A5D2A8F18592AE0
:1004B0005A2A5D2AA701A70AAA012A080319612A54
:1004C000622A702A2908803AA40080302402031D81
:1004D0006B2A03302802031C6E2A6F2A402A702AD6
:1004E0002000270808002000AB002B08A9002908DD
:1004F000D600003095317D2582319C302000A90046
:10050000D730890B812AA90B812A03309531A82580
:1005100082311A302000A900F830890B8D2AA90BEE
:100520008D2A000003309531A82582311A30200031
:10053000A900F830890B9A2AA90B9A2A00000330E7
:100540009531A82582311A302000A900F830890B96
:10055000A72AA90BA72A000002309531A8258231CD
:100560001A302000A900F830890BB42AA90BB42A4C
:10057000000028309531A825823102302000AA00E1
:100580000430A900BA30890BC32AA90BC32AAA0BCD
:10059000C32A00000C309531A8258231023020009A
:1005A000AA000430A900BA30890BD42AA90BD42A96
:1005B000AA0BD42A000001309531A82582310230DF
:1005C0002000AA000430A900BA30890BE52AA90B43
:1005D000E52AAA0BE52A000006309531A8258231CC
:1005E00002302000AA000430A900BA30890BF62A94
:1005F000A90BF62AAA0BF62A000008002030860074
:1006000001308700C03084000130850014302000A4
:10061000C70016001A00C70B092B343086000130C2
:100620008700D4308400013085000A30C7001600EE
:100630001A00C70B172B01309431C42482310130CA
:100640009431D124823100309431B72482319431F5
:100650001A24823120004408AF004308AE00D53090
:10066000B0009830B1008730B2009830B300AE309F
:10067000B4009830B50084317524823120004408DC
:10068000B1004308B000C0309531D525823120003B
:10069000C70047082300DE00D4302000B00001303E
:1006A000B10023005E089531D52582312000BF00BE
:1006B0000130C00095316B25823185310E258231A4
:1006C00020000F1D642B652B602B450886008701D9
:1006D0008101460886008701810108002000CA01C7
:1006E000C62B0F19742B752B892B7230BF009830D5
:1006F000C00095316B2583312000CA01CA0A430826
:100700008600440887008101450886004608870066
:100710008101570803198D2B8E2BC62B8731042797
:1007200083312000C7004708C900B92B9C30BF00A7
:100730009830C00095316B25833120004308860036
:10074000440887008101450886004608870081012A
:1007500002302000C8000430C700BA30890BAE2B2D
:10076000C70BAE2BC80BAE2B00002000CA01CA0A73
:10077000C62B4908C700C8014808003A0319C12B15
:10078000C62B4708343A0319962BC62B4A0803197F
:10079000CA2BCB2B712B08009331E8238331003A0D
:1007A0000319D32BD42B042CE12B9331C023833199
:1007B000202C9331C5238331202C9331CF238331D7
:1007C000202C21002F08FA007A08F9000630A03EFC
:1007D00086008701413F8A00403F0A008331FB00C9
:1007E000FC017C08003A0319F62BDD2B7B08013A4B
:1007F0000319DD2B033A0319D52B013A0319D92B21
:10080000073A0319DD2BDD2B21003C101730A03EE9
:1008100086008701403F84008501810A00089331EA
:10082000B623833101302100B8020030B93B3808CB
:100830003904031D1C2C1D2C1F2C0630202C0330CA
:1008400008002000C800C7016F2C0F19282C292C84
:10085000372C4130BF009830C00095316B25843172
:100860002000C701C70A4808860087018101570890
:1008700003193B2C3C2C6F2C87310427843120003A
:10088000C4004408C600622CA130BF009930C000EB
:1008900095316B258431200048088600870181014D
:1008A000810A02302000C5000430C400BA30890B30
:1008B000572CC40B572CC50B572C00002000C70128
:1008C000C70A6F2C4608C400C5014508003A031941
:1008D0006A2C6F2C4408313A0319442C6F2C4708BA
:1008E0000319732C742C252C08009431672484314F
:1008F00006309531A825843102302000B70004303D
:10090000B600BA30890B822CB60B822CB70B822C26
:1009100000002000A901A90A013087313327843162
:1009200020002F08AA002E08A9009631AD26843198
:100930002000A901A90A0230873133278431200021
:100940003108AA003008A9009631AD268431200074
:10095000A901A90A033087313327843120003308E5
:10096000AA003208A9009631AD2684312000A901E1
:10097000A90A043087313327843120003508AA00C2
:100980003408A9009631AD26843108002000D30038
:100990005308860087010108CD00CE014D08C30031
:1009A0004E08C4004B08860087010108CF00D00123
:1009B0004F08C5005008C60083316E2384312000E3
:1009C0004B08860087010108CD00CE014D08C30009
:1009D0004E08C4004C08860087010108CF00D001F2
:1009E0004F08C5005008C60053088600870101085B
:1009F000D100D2015108C7005208C8008631A22692
:100A0000843129302000CE009630CD007F30890B14
:100A1000072DCD0B072DCE0B072D08002000A801B8
:100A2000A9012000AA01AB019731A82785310B301D
:100A30002000A7002630A6005D30890B1D2DA60BD7
:100A40001D2DA70B1D2D003201302000AA070030FC
:100A5000AB3D2B08803AA60080302602031D322DC4
:100A600004302A02031C352D362D142D0B302000A6
:100A7000A7002630A6005D30890B3C2DA60B3C2D2F
:100A8000A70B3C2D003201302000A8070030A93D03
:100A90002908803AA60080302602031D512D04301B
:100AA0002802031C542D552D112D080021009112F0
:100AB00023302000A3000630A40094315524853152
:100AC000210011120F302000A3001730A400943130
:100AD0005E248531083023009F0090309D00243033
:100AE0009E0040309B0003309C0074302000A30027
:100AF0001330A4009431432485318A302000A300B0
:100B00001330A40094314C24853186302000A3009A
:100B10001330A40094313A2485312100D101200002
:100B2000DC01DB010830A5002508DA00D901D80175
:100B3000D701210091160800933180238531FA00F6
:100B400021003708860087017A0881000130FA0009
:100B50007A08B7070130B8020030B93B38083904C9
:100B60000319B32DB42DB92D93319223853105305E
:100B7000E12DBC15C32D9331DE238531E12D933159
:100B8000D9238531E12D2C08FA007A08F9002108D3
:100B90008A0020080A008531FB00FC017C08003A2D
:100BA0000319D32DBF2D7B08013A0319BF2D033A3A
:100BB0000319BB2D013A0319BB2D073A0319BF2DA9
:100BC000BF2D0800200028080319E72DE82DED2D82
:100BD0002808031DEC2DED2DF22D26089431132449
:100BE0008531222E2808033E860087011600010465
:100BF0000319FB2DFC2D192E2808033E86008701C2
:100C0000403FA900413FAA00280A86008701403FD3
:100C1000AB00413FAC002C08803AAD002A08803A76
:100C20002D02031D152E29082B020318182E192E2C
:100C3000222E2000280A86008701013081074131D9
:100C40000318810A0800200059083E3E8600013042
:100C50008700810123001D1D2E2E2F2E3C2E2000EB
:100C600059083E3E86000130870081142100480863
:100C70008A0047080A00863123009D1C402E412E21
:100C80004E2E200059083E3E860001308700011597
:100C9000210046088A0045080A00863120005908CC
:100CA0003E3E86000130870001080319582E592E58
:100CB000602E210044088A0043080A008631632E12
:100CC00096310426863108002000A9002908A700D3
:100CD0002708AA00862E0130A5020030A63B2A086C
:100CE00086008701AA0A2408A8002308A700A30AEF
:100CF0000319A40A27088400280885000008C03FBB
:100D00008908031D842E852E862E952E25082604FF
:100D1000031D8B2E8C2E6B2E952E2A0886008701A4
:100D200081010130A7002708AA070130A502003081
:100D3000A63B250A031DA02E260A031DA02EA12EC8
:100D40008D2E08002000470886004808870001080B
:100D5000031DAB2EAC2EB32E7230BF009830C000F6
:100D600095316B25863120004308860044088700B2
:100D700081014508860046088700810147088600F2
:100D800048088700810100309431B7248631003053
:100D90009431C424863100309431D1248631943189
:100DA0001A24863108002000BC003808BE0037082D
:100DB000BD002100BD01BE01F12E3D30BA003A0850
:100DC000AE003908BB003B08AF003C0881312F2141
:100DD000863120002E082100BD0720002F082100A9
:100DE000BE3D20003D0884003E0885001200031D22
:100DF000FA2EFB2EDD2E21003E082000B800210037
:100E00003D082000B7000800200057080319092FEB
:100E10000A2F042F58083E3E860001308700010843
:100E2000A30023082100D10020005808463E860078
:100E3000013087000108A3002308A4000130A300AB
:100E40002308D80708305802031C272F282F292FE2
:100E5000D8012100911201302000D7022100911603
:100E60002000240808002000AC004E2F2908BF3EB7
:100E70009531A8258731612F2908933E9531A82502
:100E80008731612F2908D33E9531A8258731612FFD
:100E900029087F3E9531A8258731612F2C08AA00AB
:100EA000AB012B08003A0319562F482F2A08023AA3
:100EB0000319362F013A03193C2F073A0319422F21
:100EC000482F08002100BC15722F9331CA238731A7
:100ED000902F9331832387310330902F9331CF2389
:100EE0008731902F2C08FA007A08F90021088A002F
:100EF00020080A008731FB00FC017C08003A031936
:100F0000822F6E2F7B08013A03196E2F033A0319C3
:100F1000652F013A0319652F073A0319692F6E2FC0
:100F2000080088310020873121003C1C982F992F20
:100F3000A72F9331E8238731003A0319A02FA12F5F
:100F4000A72F0F302000A00020082100BA002100A8
:100F50003A082000A000A101A035A10D0030200713
:100F600084009030213D8500013F8A00003F0A0047
:100F700087312000A20022082100BA0008000130B9
:100F80009431F82487319331AE2387310B30200020
:100F9000A5002630A4005D30890BCC2FA40BCC2FEC
:100FA000A50BCC2F003201309431DE2487310B3079
:100FB0002000A5002630A4005D30890BDD2FA40B96
:100FC000DD2FA50BDD2F003201309431DE24873177
:100FD0009331B223873108009431702487319631E0
:100FE0008E26873194319124873193319E23873126
:100FF00094312924873185315625873108000834FA
:101000002000911108002000A801A9019731A8270C
:1010100088310B302000A7002630A6005D30890BF8
:101020000F28A60B0F28A70B0F2800320130200035
:10103000A8070030A93D2908803AA6008030260282
:10104000031D242802302802031C272828280628EC
:1010500008008731EC2788318B170B1794317A24DD
:1010600088314E308231732288312100EE01ED014A
:10107000EC01E801EB01AF302000AE009830AF008A
:101080002F30B0009930B1008430B2009930B300F5
:10109000AE30B4009830B5008431752488311530F5
:1010A0002000D5004B30D400BE30890B5528D40B1E
:1010B0005528D50B5528000097313227883120005C
:1010C00024082100EA00200023082100E900690823
:1010D0006A0403196C286D2811299431EB24883196
:1010E00085310E2588312100E601E701DA28E73055
:1010F0002000A3009830A4001430A5000030A60002
:10110000D230863164268831B128F9302000A3001E
:101110009830A4001430A5000030A600D2308631EB
:1011200064268831B1280B302000A3009930A40038
:101130001430A5000030A600D230863164268831F4
:10114000B1286A08003A0319A628B1286908013AAB
:1011500003197728033A03198528013A03199328BC
:10116000B128AF302000AE009830AF00D230B000D0
:101170000030B1004130B2009930B3008730B40084
:101180009830B5008431752488319331FA23883141
:101190008731BF27883197313227883120002408D2
:1011A0002100EA00200023082100E9000130E607C1
:1011B0000030E73D6708803A2000D40080305402B8
:1011C000031DE5280230210066020318E828E928FB
:1011D000F028210069086A04031DEF28F028A128DF
:1011E000210069086A040319F628F7281129E80183
:1011F000E80A85310E2588311129AF302000AE0074
:101200009830AF00D230B0000030B1005B30B20097
:101210009830B3007430B4009930B500843175242F
:10122000883121006808031D16291729FD28680840
:10123000031D1B291C295C28AF302000AE0098300C
:10124000AF001D30B0009930B100AE30B200983020
:10125000B3008430B4009930B500843175248831EE
:1012600003302000D5000830D4007730890B3629B0
:10127000D40B3629D50B3629EE302000D400540883
:10128000C300EC3084312124883188310320883137
:1012900027302000AE009A30AF00AE30B000993059
:1012A000B100AE30B2009830B300AE30B400983028
:1012B000B5008431752488312100EE01EE0A00303A
:1012C0009431B724883100309431C42488310130FE
:1012D0009431D124883103302000D5000830D40067
:1012E0007730890B7129D40B7129D50B7129013005
:1012F0009431F82488319331B2238831003094310D
:10130000DE24883100309431AA2488311130200045
:10131000D5003C30D400CB30890B8C29D40B8C29E0
:10132000D50B8C2900308131DC218831003A03193A
:101330009A299B299C29BB292100EE0127302000F6
:10134000C3009A30C400EE30D4005408C500ED301C
:10135000D5005508C6008231FE228831EE302000CB
:10136000D4005408CB00ED30D5005508CC00EC304B
:101370008431C624883121006E080319C029C1298F
:10138000152A2F302000AE009A30AF00B330B000E5
:101390009930B100AE30B2009830B300AE30B40036
:1013A0009830B50084317524883193319A2388317F
:1013B00000309431DE24883101309431AA24883100
:1013C00011302000D5003C30D400CB30890BE62909
:1013D000D40BE629D50BE62901308131DC21883197
:1013E000003A0319F429F529F629152A2100EE01FE
:1013F0002F302000C3009A30C400EE30D4005408CF
:10140000C500ED30D5005508C6008231FE22883176
:10141000EE302000D4005408CB00ED30D500550844
:10142000CC00EC308431C624883121006E080319C9
:101430001A2A1B2A6F2A37302000AE009A30AF00DC
:10144000B330B0009930B100AE30B2009830B30084
:10145000AE30B4009830B5008431752488319331B2
:101460009A23883101309431DE2488310030943160
:10147000AA24883111302000D5003C30D400CB3074
:10148000890B402AD40B402AD50B402A00308131E9
:10149000DC218831003A03194E2A4F2A502A6F2A3C
:1014A0002100EE0137302000C3009A30C400EE3036
:1014B000D4005408C500ED30D5005508C60082316F
:1014C000FE228831EE302000D4005408CB00ED30ED
:1014D000D5005508CC00EC308431C6248831210079
:1014E0006E080319742A752AC92A3F302000AE00FD
:1014F0009A30AF00B330B0009930B100AE30B200D6
:101500009830B300AE30B4009830B5008431752403
:1015100088319331B223883100309431DE24883110
:1015200000309431AA24883111302000D5003C309D
:10153000D400CB30890B9A2AD40B9A2AD50B9A2A3D
:1015400000308131DC218831003A0319A82AA92A08
:10155000AA2AC92A2100EE0137302000C3009A30A0
:10156000C400EE30D4005408C500ED30D500550855
:10157000C6008231FE228831EE302000D4005408AB
:10158000CB00ED30D5005508CC00EC308431C624BA
:10159000883121006E080319CE2ACF2A232B473029
:1015A0002000AE009A30AF00B330B0009930B100E7
:1015B000AE30B2009830B300AE30B4009830B50011
:1015C0008431752488319331AE23883100309431D1
:1015D000DE24883101309431AA2488311130200072
:1015E000D5003C30D400CB30890BF42AD40BF42A3C
:1015F000D50BF42A01308131DC218831003A0319FE
:10160000022B032B042B232B2100EE01473020005B
:10161000C3009A30C400EE30D4005408C500ED3049
:10162000D5005508C6008231FE228831EE302000F8
:10163000D4005408CB00ED30D5005508CC00EC3078
:101640008431C624883121006E080319282B292BE8
:101650007D2B4F302000AE009A30AF00B330B00089
:101660009930B100AE30B2009830B300AE30B40063
:101670009830B5008431752488319331AE23883198
:1016800001309431DE24883100309431AA2488312D
:1016900011302000D5003C30D400CB30890B4E2BCC
:1016A000D40B4E2BD50B4E2B00308131DC218831F1
:1016B000003A03195C2B5D2B5E2B7D2B2100EE0184
:1016C0004F302000C3009A30C400EE30D4005408DC
:1016D000C500ED30D5005508C6008231FE228831A4
:1016E000EE302000D4005408CB00ED30D500550872
:1016F000CC00EC308431C624883121006E080319F7
:10170000822B832BD72B57302000AE009A30AF00AE
:10171000B330B0009930B100AE30B2009830B300B1
:10172000AE30B4009830B5008431752488319331DF
:10173000B223883100309431DE2488310030943176
:10174000AA24883111302000D5003C30D400CB30A1
:10175000890BA82BD40BA82BD50BA82B00308131DB
:10176000DC218831003A0319B62BB72BB82BD72BC5
:101770002100EE0157302000C3009A30C400EE3043
:10178000D4005408C500ED30D5005508C60082319C
:10179000FE228831EE302000D4005408CB00ED301A
:1017A000D5005508CC00EC308431C62488312100A6
:1017B0006E080319DC2BDD2B342C5F302000AE00CB
:1017C0009A30AF006F30B0009A30B100AE30B20046
:1017D0009830B300AE30B4009830B5008431752431
:1017E000883100309431F82488319331B223883124
:1017F0009331AA23883100309431AA2488311130E2
:101800002000D5003C30D400CB30890B052CD40B04
:10181000052CD50B052C00308131DC218831003AB4
:101820000319132C142C152C342C2100EE015F30DD
:101830002000C3009A30C400EE30D4005408C50024
:10184000ED30D5005508C6008231FE228831EE30D9
:101850002000D4005408CB00ED30D5005508CC0052
:10186000EC308431C624883121006E080319392CEC
:101870003A2C8D2C67302000AE009A30AF006F30CC
:10188000B0009A30B100AE30B2009830B300AE3044
:10189000B4009830B50084317524883193319A238F
:1018A00088319331A223883101309431AA248831C0
:1018B00011302000D5003C30D400CB30890B5E2C99
:1018C000D40B5E2CD50B5E2C01308131DC218831AC
:1018D000003A03196C2C6D2C6E2C8D2C2100EE011E
:1018E00067302000C3009A30C400EE30D4005408A2
:1018F000C500ED30D5005508C6008231FE22883182
:10190000EE302000D4005408CB00ED30D50055084F
:10191000CC00EC308431C624883121006E080319D4
:10192000922C932CE62CDF302000AE009930AF00D3
:101930006F30B0009A30B100AE30B2009830B300D2
:10194000AE30B4009830B5008431752488319331BD
:101950009A2388319331AA23883100309431AA2404
:10196000883111302000D5003C30D400CB30890BB9
:10197000B72CD40BB72CD50BB72C00308131DC2120
:101980008831003A0319C52CC62CC72CE62C21003F
:10199000EE01DF302000C3009930C400EE30D400E7
:1019A0005408C500ED30D5005508C6008231FE222E
:1019B0008831EE302000D4005408CB00ED30D50043
:1019C0005508CC00EC308431C624883121006E08E3
:1019D0000319EB2CEC2C3F2DE8302000AE009930A1
:1019E000AF006F30B0009A30B100AE30B200983026
:1019F000B300AE30B4009830B5008431752488311E
:101A00009331B22388319331AA2388310030943145
:101A1000AA24883111302000D5003C30D400CB30CE
:101A2000890B102DD40B102DD50B102D00308131CA
:101A3000DC218831003A03191E2D1F2D202D3F2D4A
:101A40002100EE01E8302000C3009930C400EE30E0
:101A5000D4005408C500ED30D5005508C6008231C9
:101A6000FE228831EE302000D4005408CB00ED3047
:101A7000D5005508CC00EC308431C62488312100D3
:101A80006E080319442D452D982DF1302000AE002D
:101A90009930AF006F30B0009A30B100AE30B20074
:101AA0009830B300AE30B4009830B500843175245E
:101AB00088319331AE2388319331AA2388310030A5
:101AC0009431AA24883111302000D5003C30D40054
:101AD000CB30890B692DD40B692DD50B692D0030C6
:101AE0008131DC218831003A0319772D782D792D49
:101AF000982D2100EE01F1302000C3009930C40080
:101B0000EE30D4005408C500ED30D5005508C600AD
:101B10008231FE228831EE302000D4005408CB0000
:101B2000ED30D5005508CC00EC308431C624883126
:101B300021006E0803199D2D9E2DF12DFA302000F5
:101B4000AE009930AF006F30B0009A30B100AE30C7
:101B5000B2009830B300AE30B4009830B500843194
:101B6000752488319331AE2388319331A62388318F
:101B700001309431AA24883111302000D5003C3046
:101B8000D400CB30890BC22DD40BC22DD50BC22D66
:101B900001308131DC218831003A0319D02DD12D5B
:101BA000D22DF12D2100EE01FA302000C300993032
:101BB000C400EE30D4005408C500ED30D5005508FF
:101BC000C6008231FE228831EE302000D400540855
:101BD000CB00ED30D5005508CC00EC308431C62464
:101BE000883121006E080319F62DF72D4A2E033097
:101BF0002000AE009A30AF006F30B0009A30B100D4
:101C0000AE30B2009830B300AE30B4009830B500BA
:101C10008431752488319331AE2388319331AA23DE
:101C2000883100309431AA24883111302000D50049
:101C30003C30D400CB30890B1B2ED40B1B2ED50B84
:101C40001B2E00308131DC218831003A0319292E06
:101C50002A2E2B2E4A2E2100EE0103302000C30035
:101C60009A30C400EE30D4005408C500ED30D500E1
:101C70005508C6008231FE228831EE302000D400A3
:101C80005408CB00ED30D5005508CC00EC30843141
:101C9000C624883121006E0803194F2E502EA32E22
:101CA0000C302000AE009A30AF006F30B0009A3098
:101CB000B100AE30B2009830B300AE30B40098300E
:101CC000B5008431752488319331B2238831933142
:101CD000A623883100309431AA24883111302000A5
:101CE000D5003C30D400CB30890B742ED40B742E2D
:101CF000D50B742E00308131DC218831003A031974
:101D0000822E832E842EA32E2100EE010C30200083
:101D1000C3009A30C400EE30D4005408C500ED3042
:101D2000D5005508C6008231FE228831EE302000F1
:101D3000D4005408CB00ED30D5005508CC00EC3071
:101D40008431C624883121006E080319A82EA92EDB
:101D5000172F15302000AE009A30AF005230B0007F
:101D60009930B100AE30B2009830B300C230B40048
:101D70009830B50084317524883101309431F824CD
:101D800088319331AE23883101309431DE2488319B
:101D900000309431AA24883111302000D5003C3025
:101DA000D400CB30890BD22ED40BD22ED50BD22E11
:101DB00021302000BF009830C00095316B2588315C
:101DC000EB302000D4005408A50021006C088031BD
:101DD000822088312000D50055082100ED006D08D3
:101DE000031DF32EF42E172F6B08031DF82EF92E6A
:101DF000172FEE0137302000C3009A30C400EE30B8
:101E0000D4005408C500ED30D5005508C600823115
:101E1000FE228831EE302000D4005408CB00ED3093
:101E2000D5005508CC00EC308431C624883121001F
:101E30006E0803191C2F1D2F8C2F6B08031D212FDB
:101E4000222F8C2F1E302000AE009A30AF0063305E
:101E5000B0009930B100AE30B2009830B300C2305B
:101E6000B4009830B5008431752488319331AE23A5
:101E7000883101309431DE24883101309431AA2434
:101E8000883111302000D5003C30D400CB30890B94
:101E9000472FD40B472FD50B472F00302000BF0012
:101EA0009830C00095316B258831EB302000D4008C
:101EB0005408A50021006C08803182208831200060
:101EC000D50055082100ED006D08031D682F692F0E
:101ED0008C2F6B08031D6D2F6E2F8C2FEE011E3083
:101EE0002000C3009A30C400EE30D4005408C5006E
:101EF000ED30D5005508C6008231FE228831EE3023
:101F00002000D4005408CB00ED30D5005508CC009B
:101F1000EC308431C624883121006E080319912FDA
:101F2000922F5C286B08031D962F972FB02FC83077
:101F30002000AE009930AF00DE30B0009830B10024
:101F40009330B2009930B3008730B4009830B500B8
:101F500084317524883101309431B7248831C72FFA
:101F6000C8302000AE009930AF00D430B0009930B6
:101F7000B100BB30B2009930B3008730B400983064
:101F8000B5008431752488319431EB248831943143
:101F90001A24883100309431AA24883122008C120E
:101FA0009631CC268831EC302000C3000030C400CC
:101FB000EE30C5000030C60083316E238831EE302C
:101FC0002000C3000030C400ED30C5000030C60062
:101FD000EC30C7000030C8008631A22688312100CD
:101FE000EB0129302000D5009630D4007F30890BDA
:101FF000F72FD40BF72FD50BF72F5C2880314A2809
:10200000BB3413343134143421341434CC34033419
:102010009C3405340C34143462340734C034133423
:10202000C5341334CA341334CF341334D434133492
:10203000D9341334DE341334E33413347C3417349A
:102040002D343E3420345434453453345434203405
:1020500043344F344E3446344F3452344D34453487
:1020600020342D34203441345434543445344E34E7
:102070005434453420344134433451345534493494
:102080005434543445344D3445344E3454340D3482
:042090000A340034DA
:1026E800080001300800240096140800240016157C
:1026F800080024009615080024001108080020008E
:1027080091150800963104269331080023001D1204
:102718001D160800240096161616080024009612A6
:1027280016160800873191279331080022008C146F
:102738000C100800163021009700080022000C1623
:102748008C11080022000C128C15080022000C12B3
:102758008C11080022000C148C10080022008C1028
:102768000C100800F00070082400910008002100F7
:10277800BC10BB010E300800933177239331013030
:10278800080093317723933102300800933177237F
:1027980093310130080093317A23933100300800D7
:1027A8009331922393310530080093318E2393316E
:1027B8000A30080093318E23933109300800210034
:1027C800BC10BB010E3008002400160E890C890CC1
:1027D8000139080094318524933124001614080027
:1027E80094318524933124001615080020000F1910
:1027F800FE2BFF2BFA2B0800640080010131890BA6
:10280800012C0034FE0012001E00FE0B072C0034C1
:1028180021003C1093317D239431043008002000BE
:10282800A50025089731D4279431080022000C1000
:102838008C100C118C110C12080021003C14363538
:102848009331B623943103300800F03021009E0004
:102858009B019C0101309D00080021003C140314D9
:10286800360D9331B6239431053008002000240832
:102878002100C400200023082100C3000800200014
:1028880024082100C800200023082100C7000800F0
:10289800200024082100C600200023082100C500CC
:1028A8000800200024082100CA0020002308210075
:1028B800C9000800200024082100CC0020002308BB
:1028C8002100CB00080001309531A825943135301E
:1028D800890B6C2C00000800C030240094000830DC
:1028E800950096014F309200951208002830240078
:1028F8009500960194012730920021008E150E163E
:10290800080024001419892C8A2C852C16081F39D4
:10291800031D8F2C902C852C080070302100990005
:1029280098012200960121001A1F9B2C9C2C972CA1
:1029380008007608F1007508F0007708F8007808B4
:10294800F200003097315627943108002000A30088
:1029580023080319B02CB12CB42C22000C17B62C68
:1029680022000C1308002000A30023080319BD2C23
:10297800BE2CC12C22001014C32C220010100800F9
:102988002000A30023080319CA2CCB2CCE2C22002C
:102998008D16D02C22008D1208002000A3002308D9
:1029A8000319D72CD82CDB2C22001015DD2C220083
:1029B800101108002000A30023080319E42CE52CBB
:1029C800E82C22000C15EA2C22000C11080001301A
:1029D8009431B724943101309431C42494310130B6
:1029E8009431D124943108002000A300230803194E
:1029F800FE2CFF2C032D22008C138C16062D220092
:102A08008C178C120800F3002100BC1D0C2D0D2D15
:102A1800162D7308F2007208B7007108B900700823
:102A2800B800BC1108002000A3009431852495311A
:102A380020002308240091002000911D242D252D1D
:102A4800202D911108000230F0000030F1007908C3
:102A58009531072595310030F500F600F7019431DE
:102A68009D249531043008000130F0000030F10059
:102A780079089531072595310030F500F600F70102
:102A880094319D249531023008000230F000003066
:102A9800F10079089531072595310030F500F600E9
:102AA800F70194319D249531023008000130F0007F
:102AB8000030F10079089531072595310030F5008F
:102AC800F600F70194319D24953104300800413017
:102AD8002000C1004108C2004008B8003F08B70004
:102AE8004230C1004108B90000308631D326953103
:102AF80008002000A4009331EE23953120005608E9
:102B08009531172595312000240821006F0495314F
:102B1800172595319331F423953108002000A6003C
:102B28007D08A5002508A6042608043895317D25CA
:102B3800953120002608FB3995317D2595314230A5
:102B4800890BA42D003208002000A800FD012808E8
:102B5800F03995319225953120002808A7000330D7
:102B6800A735FF3E031DB42D2735F0399531922541
:102B7800953108002000A800FD01FD0A2808F03959
:102B880095319225953120002808A7000330A735F4
:102B9800FF3E031DCB2D2735F03995319225953110
:102BA80008002000B4003108A9003008A800340843
:102BB80096311F26953120002308B2002408B3005F
:102BC800340832079631ED26953120003408080084
:102BD800790886008701403FF000413FF1007908FD
:102BE800023E86008701010895310725953100309E
:102BF800F500F600F70194319D2495310230080064
:102C080023001908F00020005908463E86000130CC
:102C18008700700881000130F0007008D90708307B
:102C28005902031C182E192E1A2ED9010130F00052
:102C38007008D70708002000A7002708A500250866
:102C4800A6002A2E0130A5002508A7072708860018
:102C5800013087000108031D322E332E262E260848
:102C68002702A300A401A31BA40308002000A400BA
:102C7800A30124080319412E422E482E8F1B452EEE
:102C8800462E482EA301A30A2408031D4C2E4D2EC0
:102C9800532E8F1F502E512E532EA301A30A230803
:102CA80008002000A400A301240803195C2E5D2E4F
:102CB800632E0F19602E612E632EA301A30A240828
:102CC800031D672E682E6E2E0F1D6B2E6C2E6E2E1A
:102CD800A301A30A230808002D343E3420344534C8
:102CE800523452344534553452343A342034003452
:102CF800003400340034003400340034003400342C
:102D08000D340A3400340034003400340034003404
:102D180000340034220090018F018C018D018E0156
:102D28000830210090008C01CF308D00BF308E001C
:102D3800FF308F0023008F013F308D0090013C3021
:102D48008C00240090018D012100951722009D011F
:102D580008002000AC01AD01C02E29082C07840012
:102D68002A082D3D850000089531BE259631013091
:102D78002000AC070030AD3D29082C0784002A0844
:102D88002D3D85001200031DCA2ECB2EB12E080042
:102D980020302000BF009030C00095316B2596315F
:102DA8002000C401C501883103209631013020007C
:102DB800C4070030C53D4508803AC300803043024F
:102DC800031DE82E02304402031CEB2EEC2ED72EF6
:102DD80008002000AF002908AD002808AC002F0823
:102DE800AA002A08AE002E08860001308700AE0A25
:102DF8002D08AB002C08AA00AC0A0319AD0A2A0852
:102E080084002B0885000008C03F8908031D0D2F8A
:102E18000E2FF72E0800083020005A020318152F2D
:102E2800162F2F2F5B084E3E8600013087000108C1
:102E380023009A000130F00070082000DB070830FA
:102E48005B02031C282F292F2A2FDB010130F000F9
:102E58007008DA07312F2100111208002000A5019F
:102E6800A6010F1C382F392F3D2F0130A500003047
:102E7800A6008F1C402F412F452F0230A50000309F
:102E8800A6000F1C482F492F512F8F1C4C2F4D2F58
:102E9800512F0330A5000030A6002608A4002508FD
:102EA800A3000800F4007008710403195C2F5D2F5B
:102EB8006E2F7435A03E860087017008C03F7108E8
:102EC800C13F7208F3007408AC3E8600870173089E
:102ED80081007B2F7435A03E860087017530C03F86
:102EE8001330C13F7408AC3E860087018101080099
:102EF80021003C100230FA007A08BB008B2F933176
:102F0800CA239731A72F9331CF239731A72F2E08A4
:102F1800FA007A08F9000430A03E86008701413F94
:102F28008A00403F0A009731FB00FC017C08003A08
:102F380003199F2F872F7B08023A0319832F013A21
:102F48000319832F872F08002000A401A501220060
:102F58000D1606302000A3003030890BB12FA30BCB
:102F6800B12F000022000D1206302000A3003030DF
:102F7800890BBC2FA30BBC2F000001302000A40735
:102F88000030A53D2508803AA30080302302031DA8
:102F9800CF2F32302402031CD22FD32FAB2F08009F
:102FA8002000A4005A080319DA2FDB2FD62F21009E
:102FB800111ADF2FE02FE52F2000240823009A00A4
:102FC800FD2F111220002408A3005C084E3E860045
:102FD80001308700230881000130A3002308DC07A3
:102FE80008305C02031CF92FFA2FFB2FDC0101309B
:102FF800DA0221001116080041347434743465343F
:103008006E34743465342034763461346C34693405
:1030180064346134743469346F346E3420346C34FD
:10302800653464347334203462346C3465347534F4
:10303800653473340D340A340034413474347434D0
:1030480065346E34743465342034763461346C34C9
:10305800693464346134743469346F346E342034C0
:103068006C346534643420347634653472347434A2
:10307800653473340D340A3400342D343E3420342E
:10308800543445345334543420344D3441344E345C
:10309800553445344C34203445344E34203443348C
:1030A8004F345534523453340D340A3400344D34CB
:1030B800413449344E34543445344E3441344E341A
:1030C8004334453420344E34453443344534533442
:1030D8005334413449345234453400342D343E3469
:1030E8002034463449344E3420345434453453342F
:1030F800543420344D3441344E34553445344C34F2
:103108000D340A34003441345434543445344E3484
:1031180054344534203441344334513455344934DB
:103128005434543445344D3445344E3454340034D6
:103138002D343E34203454344534533454342034FC
:103148004134433451345534493454345434453477
:103158000D340A3400345434453453345434203450
:1031680043344134523454344534203444343834AC
:1031780035343534453444343234003441345034F1
:10318800503455345934453452342034533455343A
:10319800523420344F344B342F344E344F344B3464
:1031A8000034543445345334543420344E344F347A
:1031B8004E34203443344F344E3446344F34523432
:1031C8004D34453400344434453446344134553460
:1031D80054342034433450343134203420342034AF
:1031E80020342034203420340034443445344634E8
:1031F8004134553454342034433450343234203438
:103208002034203420342034203420340034443412
:1032180045344634413455345434203443345034DE
:103228003134203445345434203443345034323427
:10323800003441345434543445344E3454344534D1
:103248002034443445344D344134523452344134BA
:1032580047344534003450344F34533449345434AB
:1032680049344F344E344E34453452342034433488
:103278004134523454344534003450344C3441349D
:103288004334453452342034433441345234543472
:1032980045342034523445344634003454344534AB
:1032A8005334543420344C34453444345334203467
:1032B8005634453452345434453453340034543439
:1032C80045345334543420344C3445344434533422
:1032D800203442344C344534553445345334003466
:1032E80052344534443445344D34413452345234E4
:1032F80045345A342034423441344E344334003453
:1033080041345034503455345934453452342034CF
:1033180053345534523420344F344B3400345234FF
:1033280045345434493452344534523420344334C7
:10333800413452345434453400342D343E3420342E
:10334800543445345334543420344F344E340D34CB
:103358000A340034543445345334543420344D340E
:103368004F344434453420344234503400345234D9
:10337800453450344534543445345234203454346C
:103388004534533454340034463449344E342034AC
:10339800443445342034543445345334543400349C
:1033A80048344F34523453342034443445344C3444
:1033B800413449340034453454344134503445346C
:1033C80020343134303400344534543441345034AA
:1033D80045342034313431340034453454344134A4
:1033E8005034453420343134323400344534543484
:1033F8004134503445342034313433340034453486
:103408005434413450344534203431343434003465
:10341800453454344134503445342034313435340F
:103428000034453454344134503445342034313434
:10343800363400344534543441345034453420341F
:1034480031343734003445345434413450344534FD
:103458002034313400344534543441345034453404
:1034680020343234003445345434413450344534F3
:1034780020343334003445345434413450344534E2
:1034880020343434003445345434413450344534D1
:1034980020343534003445345434413450344534C0
:1034A80020343634003445345434413450344534AF
:1034B800203437340034453454344134503445349E
:1034C800203438340034453454344134503445348D
:1034D8002034393400344D344F34443445342034A6
:0634E800543443340034AB
:020000040001F9
:08000000FF3FFF3FFF3FFF3F00
:04000E00E43FFF3F8D
:00000001FF
