:1000000080314A28013008007E1480310B1F0928F6
:100010000A2848282100111E0E280F281B2820001E
:10002000111E132814281B28210066088A00650861
:100030000A00803148282100911E1F2820282C28E2
:100040002000911E242825282C28210064088A00DD
:1000500063080A00803148282100921D3028312889
:100060003D282000921D352836283D2821006A08A9
:100070008A0069080A00803148282100911D412822
:10008000422848282000911D46284728482836281D
:100090007E10090080314C2821009731462780319D
:1000A000EF00113084008A30850040308600013036
:1000B00087001E309731D3278031FD012000E901F0
:1000C000EA01EB01EC01A0308400003085004F30E4
:1000D0009731CD27803120308400013085002030D9
:1000E0009731CD2780317E102000803177288931EB
:1000F0003D2180318B170B178831472080314E30DE
:1001000087312A2780312200E001DF01DE01A130A2
:100110002000AE009030AF00D830B0009030B10079
:10012000EA30B2009030B300A030B4009030B50097
:100130008E313726803115302000E8004B30E70043
:10014000BE30890BA128E70BA128E80BA1280000ED
:10015000A1302000AE009030AF00C630B00090302B
:10016000B100A030B2009030B300EA30B40090305B
:10017000B5008E313726803103302000E80008308A
:10018000E7007730890BC228E70BC228E80BC228AA
:1001900060302000E7006708C3005E308E31DD2646
:1001A00080318B311923803100302000AE0098302F
:1001B000AF001430B0009130B100A030B2009030E8
:1001C000B300A030B4009030B5008E3137268031B6
:1001D0002200E001E00A00308831912080310030B7
:1001E00088319E20803101308831AB20803103304E
:1001F0002000E8000830E7007730890BFD28E70B86
:10020000FD28E80BFD2801308831B8208031973176
:100210007527803100308831772080310030883177
:100220008420803111302000E8003C30E700CB30E2
:10023000890B1829E70B1829E80B182900308A3197
:10024000D0228031003A0319262927292829472955
:100250002200E00100302000C3009830C40060306C
:10026000E7006708C5005F30E8006808C6008F3106
:100270009127803160302000E7006708CB005F30B5
:10028000E8006808CC005E308D31EA25803122001C
:10029000600803194C294D29A12908302000AE001F
:1002A0009830AF001930B0009130B100A030B200EA
:1002B0009030B300A030B4009030B5008E313726B6
:1002C000803197316D27803100308831772080313F
:1002D000013088318420803111302000E8003C302A
:1002E000E700CB30890B7229E70B7229E80B7229E2
:1002F00001308A31D0228031003A031980298129C6
:100300008229A1292200E00108302000C300983092
:10031000C4006030E7006708C5005F30E800680887
:10032000C6008F319127803160302000E7006708D8
:10033000CB005F30E8006808CC005E308D31EA25E4
:100340008031220060080319A629A729FB29103053
:100350002000AE009830AF001930B0009130B100ED
:10036000A030B2009030B300A030B4009030B5009F
:100370008E313726803197316D27803101308831B9
:100380007720803100308831842080311130200086
:10039000E8003C30E700CB30890BCC29E70BCC29B7
:1003A000E80BCC2900308A31D0228031003A031981
:1003B000DA29DB29DC29FB292200E00110302000AA
:1003C000C3009830C4006030E7006708C5005F30A4
:1003D000E8006808C6008F31912780316030200026
:1003E000E7006708CB005F30E8006808CC005E30AB
:1003F0008D31EA258031220060080319002A012A84
:10040000552A18302000AE009830AF001930B000E7
:100410009130B100A030B2009030B300A030B400F1
:100420009030B5008E313726803197317527803175
:10043000003088317720803100308831842080314D
:1004400011302000E8003C30E700CB30890B262A31
:10045000E70B262AE80B262A00308A31D022803189
:10046000003A0319342A352A362A552A2200E00197
:1004700010302000C3009830C4006030E7006708E7
:10048000C5005F30E8006808C6008F3191278031D1
:1004900060302000E7006708CB005F30E8006808A4
:1004A000CC005E308D31EA258031220060080319CE
:1004B0005A2A5B2AAF2A20302000AE009830AF00C5
:1004C0001930B0009130B100A030B2009030B300CC
:1004D000A030B4009030B5008E313726803197318E
:1004E00071278031003088317720803101308831A8
:1004F0008420803111302000E8003C30E700CB3010
:10050000890B802AE70B802AE80B802A01308A3188
:10051000D0228031003A03198E2A8F2A902AAF2ADE
:100520002200E00120302000C3009830C400603079
:10053000E7006708C5005F30E8006808C6008F3133
:100540009127803160302000E7006708CB005F30E2
:10055000E8006808CC005E308D31EA258031220049
:1005600060080319B42AB52A092B28302000AE00F0
:100570009830AF001930B0009130B100A030B20017
:100580009030B300A030B4009030B5008E313726E3
:100590008031973171278031013088317720803167
:1005A000003088318420803111302000E8003C3058
:1005B000E700CB30890BDA2AE70BDA2AE80BDA2AD4
:1005C00000308A31D0228031003A0319E82AE92A22
:1005D000EA2A092B2200E00128302000C3009830CD
:1005E000C4006030E7006708C5005F30E8006808B5
:1005F000C6008F319127803160302000E700670806
:10060000CB005F30E8006808CC005E308D31EA2511
:1006100080312200600803190E2B0F2B632B303022
:100620002000AE009830AF001930B0009130B1001A
:10063000A030B2009030B300A030B4009030B500CC
:100640008E313726803197317527803100308831DF
:1006500077208031003088318420803111302000B3
:10066000E8003C30E700CB30890B342BE70B342B10
:10067000E80B342B00308A31D0228031003A031944
:10068000422B432B442B632B2200E001303020000F
:10069000C3009830C4006030E7006708C5005F30D1
:1006A000E8006808C6008F31912780316030200053
:1006B000E7006708CB005F30E8006808CC005E30D8
:1006C0008D31EA258031220060080319682B692BDF
:1006D000C02B38302000AE009830AF004830B0005A
:1006E0009830B100A030B2009030B300A030B40018
:1006F0009030B5008E313726803100308831B820F7
:1007000080319731752780319731852780310030CE
:1007100088318420803111302000E8003C30E7002F
:10072000CB30890B912BE70B912BE80B912B0030F1
:100730008A31D0228031003A03199F2BA02BA12BA4
:10074000C02B2200E00138302000C3009830C400E4
:100750006030E7006708C5005F30E8006808C60041
:100760008F319127803160302000E7006708CB008F
:100770005F30E8006808CC005E308D31EA258031BA
:10078000220060080319C52BC62B192C403020000D
:10079000AE009830AF004830B0009830B100A030C3
:1007A000B2009030B300A030B4009030B5008E316C
:1007B0003726803197316D27803197317D27803101
:1007C000013088318420803111302000E8003C3035
:1007D000E700CB30890BEA2BE70BEA2BE80BEA2B7F
:1007E00001308A31D0228031003A0319F82BF92BDD
:1007F000FA2B192C2200E00140302000C300983071
:10080000C4006030E7006708C5005F30E800680892
:10081000C6008F319127803160302000E7006708E3
:10082000CB005F30E8006808CC005E308D31EA25EF
:1008300080312200600803191E2C1F2C722C2D30D1
:100840002000AE009130AF004830B0009830B100C9
:10085000A030B2009030B300A030B4009030B500AA
:100860008E313726803197316D278031973185273A
:100870008031003088318420803111302000E80040
:100880003C30E700CB30890B432CE70B432CE80BC3
:10089000432C00308A31D0228031003A0319512C88
:1008A000522C532C722C2200E0012D302000C3006A
:1008B0009130C4006030E7006708C5005F30E80091
:1008C0006808C6008F319127803160302000E70032
:1008D0006708CB005F30E8006808CC005E308D31DF
:1008E000EA258031220060080319772C782CCB2C64
:1008F00036302000AE009130AF004830B000983064
:10090000B100A030B2009030B300A030B4009030FD
:10091000B5008E3137268031973175278031973178
:1009200085278031003088318420803111302000CB
:10093000E8003C30E700CB30890B9C2CE70B9C2C6B
:10094000E80B9C2C00308A31D0228031003A031908
:10095000AA2CAB2CAC2CCB2C2200E0013630200092
:10096000C3009130C4006030E7006708C5005F3005
:10097000E8006808C6008F31912780316030200080
:10098000E7006708CB005F30E8006808CC005E3005
:100990008D31EA258031220060080319D02CD12C3A
:1009A000242D3F302000AE009130AF004830B00021
:1009B0009830B100A030B2009030B300A030B40045
:1009C0009030B5008E3137268031973171278031D4
:1009D0009731852780310030883184208031113073
:1009E0002000E8003C30E700CB30890BF52CE70B0A
:1009F000F52CE80BF52C00308A31D0228031003AFA
:100A00000319032D042D052D242D2200E0013F3074
:100A10002000C3009130C4006030E7006708C500C3
:100A20005F30E8006808C6008F3191278031603060
:100A30002000E7006708CB005F30E8006808CC00C2
:100A40005E308D31EA258031220060080319292D9E
:100A50002A2D7D2D48302000AE009130AF00483067
:100A6000B0009830B100A030B2009030B300A03098
:100A7000B4009030B5008E31372680319731712720
:100A80008031973181278031013088318420803155
:100A900011302000E8003C30E700CB30890B4E2DB0
:100AA000E70B4E2DE80B4E2D01308A31D0228031DC
:100AB000003A03195C2D5D2D5E2D7D2D2200E00195
:100AC00048302000C3009130C4006030E700670860
:100AD000C5005F30E8006808C6008F31912780317B
:100AE00060302000E7006708CB005F30E80068084E
:100AF000CC005E308D31EA25803122006008031978
:100B0000822D832DD62D51302000AE009130AF00C4
:100B10004830B0009830B100A030B2009030B3003F
:100B2000A030B4009030B5008E3137268031973137
:100B300071278031973185278031003088318420BA
:100B4000803111302000E8003C30E700CB30890BC9
:100B5000A72DE70BA72DE80BA72D00308A31D02257
:100B60008031003A0319B52DB62DB72DD62D2200B0
:100B7000E00151302000C3009130C4006030E70034
:100B80006708C5005F30E8006808C6008F3191270C
:100B9000803160302000E7006708CB005F30E8005C
:100BA0006808CC005E308D31EA2580312200600873
:100BB0000319DB2DDC2D2F2E5A302000AE00913092
:100BC000AF004830B0009830B100A030B200903093
:100BD000B300A030B4009030B5008E31372680319C
:100BE00097317527803197318127803100308831E6
:100BF0008420803111302000E8003C30E700CB3009
:100C0000890B002EE70B002EE80B002E00308A31F6
:100C1000D0228031003A03190E2E0F2E102E2F2EC7
:100C20002200E0015A302000C3009130C40060303F
:100C3000E7006708C5005F30E8006808C6008F312C
:100C40009127803160302000E7006708CB005F30DB
:100C5000E8006808CC005E308D31EA258031220042
:100C600060080319342E352EA82821302000AE004C
:100C70009130AF00BD30B0009030B100F930B2001B
:100C80009030B3007930B4009030B5008E31372603
:100C900080310130883191208031883100208031CD
:100CA0008A31AF2280315E302000C3000130C400A1
:100CB0006030C5000130C6008F313327803160308D
:100CC0002000C3000130C4005F30C5000130C60001
:100CD0005E30C7000130C8008C31AD24803129302E
:100CE0002000E8009630E7007F30890B752EE70B77
:100CF000752EE80B752EA82880314A282000B600F2
:100D00002E0886008701403FB000413FB100300807
:100D10008400310885001200253A031D902E912E83
:100D2000062F2E0886008701013081074131031804
:100D3000810A2100D701D801DB01DC01FF30D90095
:100D4000FF30DA0020002E0886008701403FB00007
:100D5000413FB100300884003108850012006E3A2E
:100D6000031DB32EB42ED32E2E088600870101302A
:100D7000810741310318810A2F0886008701403F0F
:100D800084008501810A0008B0003008B5003508EC
:100D90008600870121005508C03F5608C13F20004A
:100DA000AE01AF01292F2E0886008701403FB00019
:100DB000413FB10030088400310885001200253A17
:100DC000031DE32EE42EFD2E2E0886008701013040
:100DD000810741310318810A2530A6000030A700A1
:100DE0003608B0003008A8008D311B25863101304F
:100DF0002000AE000030AF00292F2E0886008701AA
:100E00000130810741310318810ACF2E2E08860058
:100E10008701403FB000413FB100300884003108F5
:100E200085000008B200B3013208A6003308A7000D
:100E30003608B4003408A8008D311B258631200007
:100E40002E08860087010130810741310318810A8D
:100E5000F72E08002000AB002B08A900290821006C
:100E6000EB0000308931502187319C302000A900EF
:100E7000D730890B392FA90B392F03308931AC2199
:100E800087311A302000A900F830890B452FA90BB3
:100E9000452F000003308931AC2187311A30200002
:100EA000A900F830890B522FA90B522F00000330F4
:100EB0008931AC2187311A302000A900F830890B24
:100EC0005F2FA90B5F2F000002308931AC218731E1
:100ED0001A302000A900F830890B6C2FA90B6C2F59
:100EE000000028308931AC21873102302000AA006F
:100EF0000430A900BA30890B7B2FA90B7B2FAA0BDA
:100F00007B2F00000C308931AC218731023020006A
:100F1000AA000430A900BA30890B8C2FA90B8C2FA2
:100F2000AA0B8C2F000001308931AC2187310230AF
:100F30002000AA000430A900BA30890B9D2FA90B0C
:100F40009D2FAA0B9D2F000006308931AC218731DF
:100F500002302000AA000430A900BA30890BAE2F5D
:100F6000A90BAE2FAA0BAE2F000008002000A8018D
:100F7000A9012000AA01AB018B316B2387310B3013
:100F80002000A7002630A6005D30890BC52FA60BD8
:100F9000C52FA70BC52F003201302000AA07003053
:100FA000AB3D2B08803AA60080302602031DDA2FC5
:100FB00004302A02031CDD2FDE2FBC2F0B30200053
:100FC000A7002630A6005D30890BE42FA60BE42F86
:100FD000A70BE42F003201302000A8070030A93D04
:100FE0002908803AA60080302602031DF92F04301C
:100FF0002802031CFC2FFD2FB92F08000530080024
:1010000022000C108C100C118C110C120800200006
:1010100024082100DE00200023082100DD00080054
:10102000200024082100E200200023082100E10024
:101030000800200024082100E000200023082100EF
:10104000DF000800200024082100E400200023081D
:101050002100E3000800200024082100E600200011
:1010600023082100E500080001308931AC218831D6
:101070003530890B392800000800C0302400940066
:101080000830950096014F309200951208002830E4
:1010900024009500960194012730920021008E15BE
:1010A0000E1608002400141956285728522816082E
:1010B0001F39031D5C285D2852280800703021006C
:1010C000990098012200960121001A1F68286928BA
:1010D000642808007608F1007508F0007708F80029
:1010E0007808F20000308A31F322883108002000AD
:1010F000A300230803197D287E28812822000C15CF
:10110000832822000C1108002000A30023080319E3
:101110008A288B288E2822000C17902822000C1376
:1011200008002000A30023080319972898289B286B
:10113000220010149D282200101008002000A30097
:1011400023080319A428A528A82822009014AA2857
:101150002200901008002000A30023080319B128E2
:10116000B228B52822001015B72822001011080057
:101170002000A30023080319BE28BF28C32822008B
:101180008C138C16C62822008C178C120800F300D2
:101190002100BC1DCC28CD28D6287308F200720887
:1011A000B7007108B9007008B800BC110800200031
:1011B000A3008831522088312000230824009100A8
:1011C0002000911DE428E528E02891110800023054
:1011D000F0000030F10079088831C72088310030F4
:1011E000F500F600F70188316A20883104300800E4
:1011F0000130F0000030F10079088831C7208831D3
:101200000030F500F600F70188316A20883102309D
:1012100008000230F0000030F10079088831C72062
:1012200089310030F500F600F70188316A208931F4
:10123000023008000130F0000030F10079088831F8
:10124000C72089310030F500F600F70188316A20A7
:1012500089310430080041302000C1004108C2003B
:101260004008B8003F08B7004230C1004108B9004B
:1012700000308C317C248931080088313D2089314F
:101280008A312F22893188315E208931973179273F
:1012900089319731EF2789318D31A22589310800B5
:1012A0002000A4009731C127893121006B088831C3
:1012B000D72089312000240821006F048831D720ED
:1012C00089319731C727893108002000B4003108DF
:1012D000A9003008A80034088931F721893120009D
:1012E0002308B2002408B300340832078A318E2262
:1012F0008931200034080800790886008701403FC2
:10130000F000413FF1007908023E860087010108A4
:101310008831C72089310030F500F600F7018831A7
:101320006A208931023008002000A60021006C08E4
:101330002000A5002508A60426080438893150217C
:10134000893120002608FB3989315021893142300A
:10135000890BA829003208002000A8002100EC0118
:1013600020002808F039893194218931200028088B
:10137000A7000330A735FF3E031DBA292735F039F2
:1013800089319421893108002000A8002100EC0156
:10139000EC0A20002808F039893194218931200095
:1013A0002808A7000330A735FF3E031DD3292735A2
:1013B000F039893194218931080023001908F0009F
:1013C00020006B08C53E860087017008810001304F
:1013D000F0007008EB0708306B02031CF029F129BC
:1013E000F229EB010130F0007008E9070800200045
:1013F000A7002708A5002508A600022A0130A5009D
:101400002508A7072708860087010108031D092A68
:101410000A2AFE2926082702A300A401A31BA4036D
:1014200008002D343E34203445345234523445348F
:10143000553452343A34203400340034003400340B
:10144000003400340034003400340D340A340034E5
:1014500000340034003400340034003400342200FE
:1014600090018F018C018D018E01083021009000C8
:101470008C01EF308D00BF308E00FF308F002300D5
:101480008F013F308D0090013C308C002400900192
:101490008D012100951722009D0108002000AC015C
:1014A000AD01612A29082C0784002A082D3D8500FA
:1014B00000088931C4218A3101302000AC07003096
:1014C000AD3D29082C0784002A082D3D8500120017
:1014D000031D6B2A6C2A522A0800083021006E0274
:1014E0000318732A742A8C2A7D08CD3E8600870152
:1014F000010823009A000130F0007008FD07083051
:101500007D02031C842A852A862AFD010130F00011
:1015100070082100EE078D2A111208002000AF008C
:101520002908AD002808AC002F08AA002A08AE0040
:101530002E0886008701AE0A2D08AB002C08AA00F1
:10154000AC0A0319AD0A2A0884002B08850000089C
:10155000C03F8908031DAD2AAE2A982A0800203012
:101560002000BF009030C00089312B218A3120003B
:10157000C401C5018B3119238A3101302000C40711
:101580000030C53D4508803AC30080304302031D4A
:10159000CB2A02304402031CCE2ACF2ABA2A0800E2
:1015A0002000A400A30124080319D72AD82AE22A7C
:1015B0000F1CDB2ADC2AE22A8F1CDF2AE02AE22A1F
:1015C000A301A30A2408031DE62AE72AF12A0F181B
:1015D000EA2AEB2AF12A8F18EE2AEF2AF12AA30130
:1015E000A30A23080800F400700871040319F92AFB
:1015F000FA2A0B2B7435A03E860087017008C03F85
:101600007108C13F7208F3007408AC3E8600870180
:1016100073088100182B7435A03E860087010230C4
:10162000C03F0030C13F7408AC3E86008701810195
:1016300008002000A801A9018B316B238B310B30EE
:101640002000A7002630A6005D30890B252BA60BB5
:10165000252BA70B252B003201302000A8070030D6
:10166000A93D2908803AA60080302602031D3A2BA6
:1016700002302802031C3D2B3E2B1C2B08002100AE
:101680003C100230FA007A08BB004E2B97319D27A0
:101690008B316A2B9731A2278B316A2B2E08FA00E7
:1016A0007A08F9000430A03E86008701413F8A0095
:1016B000403F0A008B31FB00FC017C08003A031913
:1016C000622B4A2B7B08023A0319462B013A031975
:1016D000462B4A2B08002000A401A50122000D166C
:1016E00006302000A3003030890B742BA30B742B21
:1016F000000022000D1206302000A3003030890BBC
:101700007F2BA30B7F2B000001302000A4070030AB
:10171000A53D2508803AA30080302302031D922BAB
:1017200032302402031C952B962B6E2B08002000D0
:10173000A40021006E0803199E2B9F2B992B111AD0
:10174000A22BA32BA82B2000240823009A00C02B37
:10175000111220002408A3006C08CD3E86008701EA
:10176000230881000130A3002308EC0708306C0235
:10177000031CBB2BBC2BBD2BEC0101302100EE0266
:10178000210011160800200069080319C82BC92B75
:10179000C32B6A08BD3E860087010108A300230809
:1017A0002100ED0020006A08C53E8600870101087F
:1017B000A3002308A4000130A3002308EA0708308F
:1017C0006A02031CE42BE52BE62BEA0121009112AF
:1017D00001302000E90221009116200024080800B1
:1017E000973156278B3121003C1CF72BF82B062C08
:1017F0009731BB278B31003A0319FF2B002C062CA5
:101800000F302000A00020082100BA0021003A0873
:101810002000A000A101A035A10D00302007840008
:101820009030213D8500013F8A00003F0A008C3145
:101830002000A20022082100BA0008002100BC15E7
:101840002E2C97319D278C314C2C973153278C317E
:1018500003304C2C9731A2278C314C2C2C08FA00E9
:101860007A08F90021088A0020080A008C31FB0060
:10187000FC017C08003A03193E2C2A2C7B08013A13
:1018800003192A2C033A0319212C013A0319212C9C
:10189000073A0319252C2A2C08002000AC00682CDC
:1018A0002908BF3E8931AC218C317B2C2908933E1D
:1018B0008931AC218C317B2C2908D33E8931AC2174
:1018C0008C317B2C29087F3E8931AC218C317B2CDB
:1018D0002C08AA00AB012B08003A0319702C622CCB
:1018E0002A08023A0319502C013A0319562C073AD8
:1018F00003195C2C622C08002000BC003808BE00D4
:101900003708BD002100D501D6019A2C3D30BA0020
:101910003A08AE003908BB003B08AF003C088631EE
:101920007E268C3120002E082100D50720002F08AC
:101930002100D63D20003D0884003E0885001200AD
:10194000031DA32CA42C862C210056082000B800CF
:10195000210055082000B700080020004708860035
:10196000480887000108031DB62CB72CBE2C643034
:10197000BF009030C00089312B218C3120004308FA
:1019800086004408870081014508860046088700D4
:1019900081014708860048088700810100308831AE
:1019A00091208C31003088319E208C31003088317C
:1019B000AB208C31883100208C31080020006B086E
:1019C000BD3E86008701810123001D1DE82CE92C06
:1019D000F52C20006B08BD3E860087018114210094
:1019E00062088A0061080A008C3123009D1CF92CD2
:1019F000FA2C062D20006B08BD3E860087010115DC
:101A0000210060088A005F080A008D3120006B0801
:101A1000BD3E86008701010803190F2D102D172DDB
:101A200021005E088A005D080A008D311A2D893177
:101A3000DD218C310800200028080319202D212DDC
:101A4000262D2808031D252D262D2B2D2608973100
:101A5000E0278D315B2D2808033E860087011600A4
:101A600001040319342D352D522D2808033E86001C
:101A70008701403FA900413FAA00280A860087014C
:101A8000403FAB00413FAC002C08803AAD002A0833
:101A9000803A2D02031D4E2D29082B020318512DCB
:101AA000522D5B2D2000280A860087010130810716
:101AB00041310318810A0800973150278D31FA000F
:101AC00021003708860087017A0881000130FA007A
:101AD0007A08B7070130B8020030B93B380839043A
:101AE0000319732D742D792D973165278D310530AC
:101AF000A12DBC15832D9731B1278D31A12D9731A3
:101B0000AC278D31A12D2C08FA007A08F9002108A4
:101B10008A0020080A008D31FB00FC017C08003A95
:101B20000319932D7F2D7B08013A03197F2D033A6A
:101B300003197B2D013A03197B2D073A03197F2DD9
:101B40007F2D080021009112DE302000A3000C3010
:101B5000A400883122208D31210011126D30200027
:101B6000A3000A30A40088312B208D3108302300D7
:101B70009F0090309D0024309E0040309B00033039
:101B80009C0045302000A3001730A40088311020AD
:101B90008D315D302000A3001730A400883119205A
:101BA0008D3159302000A3001730A4008831072060
:101BB0008D312100ED012000EC01FD010830A50070
:101BC00025082100EE002000EB01EA01E9012100D7
:101BD000911608002000D3005308860001308700CA
:101BE0000108CD00CE014D08C3004E08C4004B08CB
:101BF0008600013087000108CF00D0014F08C500E2
:101C00005008C6008F3133278D3120004B088600E5
:101C1000013087000108CD00CE014D08C3004E08F9
:101C2000C4004C088600013087000108CF00D001B5
:101C30004F08C5005008C6005308860001308700D1
:101C40000108D100D2015108C7005208C8008C31E8
:101C5000AD248D3129302000CE009630CD007F306C
:101C6000890B302ECD0B302ECE0B302E0800883154
:101C700034208E3106308931AC218E310230200083
:101C8000B7000430B600BA30890B442EB60B442E90
:101C9000B70B442E00002000A901A90A01308C31A5
:101CA0004D248E3120002F08AA002E08A9008A3169
:101CB0004E228E312000A901A90A02308C314D2418
:101CC0008E3120003108AA003008A9008A314E2246
:101CD0008E312000A901A90A03308C314D248E31A8
:101CE00020003308AA003208A9008A314E228E3122
:101CF0002000A901A90A04308C314D248E31200026
:101D00003508AA003408A9008A314E228E31080015
:101D10009731BB278E31003A03198F2E902EC02E9B
:101D20009D2E973193278E31DC2E973198278E3157
:101D3000DC2E9731A2278E31DC2E21002F08FA00ED
:101D40007A08F9000630A03E86008701413F8A00EC
:101D5000403F0A008E31FB00FC017C08003A031969
:101D6000B22E992E7B08013A0319992E033A0319D2
:101D7000912E013A0319952E073A0319992E992E9F
:101D800021003C101730A03E86008701403F8400B0
:101D90008501810A0008973189278E3101302100A1
:101DA000B8020030B93B38083904031DD82ED92EAB
:101DB000DB2E0630DC2E033008002000C800C701EF
:101DC0002D2F0F19E42EE52EF42E4A30BF0090304F
:101DD000C00089312B218E312000C701C70A480875
:101DE000860001308700810169080319F82EF92E59
:101DF0002D2F8B31C3238E312000C4004408C60030
:101E0000202F0730BF009130C00089312B218E3147
:101E1000200048088600013087008101810A0230D5
:101E20002000C5000430C400BA30890B152FC40B44
:101E3000152FC50B152F00002000C701C70A2D2F35
:101E40004608C400C5014508003A0319282F2D2F64
:101E50004408313A0319012F2D2F47080319312F58
:101E6000322FE12E08002000CA018B2F0F19392FC5
:101E70003A2F4E2F6430BF009030C00089312B21A3
:101E80008F312000CA01CA0A43088600440887002F
:101E90008101450886004608870081016908031909
:101EA000522F532F8B2F8B31C3238F312000C7002C
:101EB0004708C9007E2F8E30BF009030C0008931A6
:101EC0002B218F31200043088600440887008101C0
:101ED0004508860046088700810102302000C800BE
:101EE0000430C700BA30890B732FC70B732FC80B90
:101EF000732F00002000CA01CA0A8B2F4908C700AF
:101F0000C8014808003A0319862F8B2F4708343A36
:101F100003195B2F8B2F4A0803198F2F902F362F11
:101F200008004030860001308700483084000030CF
:101F3000850014302000C70016001A00C70B9C2F24
:101F400054308600013087005C308400003085000A
:101F50000A30C70016001A00C70BAA2F01308831BB
:101F60009E208F3101308831AB208F310030883195
:101F700091208F31883100208F3120004408AF003C
:101F80004308AE00B430B0009030B1007930B200F8
:101F90009030B300A030B4009030B5008E313726B9
:101FA0008F3120004408B1004308B0004830893127
:101FB00065218F312000C7004708E6005C30B00083
:101FC0000030B1006608893165218F312000BF00E3
:101FD0000030C00089312B218F318731B6278F31F6
:101FE00020000F1DF42FF52FF02F4508860001303B
:101FF00087008101460886000130870081010800C2
:102000008E341734F7341734E734173488340E34E9
:102010005C340D34D93417341E340C3493341734F3
:10202000983417349D341734A2341734A734173436
:10203000AC341734B1341734B63417343F340B345E
:102040002D343E3420345434453453345434203405
:1020500043344F344E3446344F3452344D34453487
:1020600020342D34203441345434543445344E34E7
:102070005434453420344134433451345534493494
:102080005434543445344D3445344E3454340D3482
:102090000A3400342D343E3420345434453453341F
:1020A000543420344D3441344E34553445344C345A
:1020B000203445344E34203443344F345534523474
:1020C00053340D340A3400342D343E342034463435
:1020D00049344E3420345434453453345434203449
:1020E0004D3441344E34553445344C340D340A3477
:1020F000003441345434543445344E34543445342B
:1021000020344134433451345534493454345434F4
:1021100045344D3445344E34543400342D343E343B
:10212000203454344534533454342034413443340B
:102130005134553449345434543445340D340A340C
:10214000003454344534533454342034433441340B
:1021500052345434453420344434383435343534EE
:1021600045344434323400345434453453345434D4
:1021700020344E344F344E34203443344F344E34B4
:1021800046344F3452344D344534003441345434A1
:10219000543445344E345434453420344434453476
:1021A0004D34413452345234413447344534003490
:1021B00050344F3453344934543449344F344E340A
:1021C0004E34453452342034433441345234543440
:1021D0004534003441345034503455345934453446
:1021E0005234203453345534523420344F344B3429
:1021F0000034523445345434493452344534523422
:1022000020344334413452345434453400342D3472
:102210003E342034543445345334543420344F3411
:102220004E340D340A340034543445345334543469
:1022300020344D344F344434453420344234503407
:102240000034463449344E34203444344534203448
:1022500054344534533454340034453454344134C4
:10226000503445342034313430340034453454341F
:102270004134503445342034313431340034453421
:102280005434413450344534203431343234003401
:1022900045345434413450344534203431343334AB
:1022A00000344534543441345034453420343134CE
:1022B00034340034453454344134503445342034BB
:0622C00031343534003416
:102E8A0008000834240096140800240016150800C7
:102E9A002400961508002400110808002000911546
:102EAA0008002000911108008931DD2197310800BE
:102EBA0023001D121D160800240096161616080077
:102ECA0024009612161608008B31F0239731080059
:102EDA0022008C140C10080022000C148C1008001C
:102EEA0022008C100C1008001630210097000800F0
:102EFA0022000C168C11080022000C128C150800F6
:102F0A0022000C128C110800F000700824009100B5
:102F1A0008002100BC10BB010E300800973147277A
:102F2A00973101300800973147279731023008005E
:102F3A009731472797310130080097314A2797314F
:102F4A00003008009731652797310530080097311E
:102F5A00612797310A300800973161279731093084
:102F6A0008002100BC10BB010E3008002400160E18
:102F7A00890C890C013908008831522097312400C4
:102F8A0016140800883152209731240016150800BB
:102F9A00640080010131890BCE2F0034FE0012003B
:102FAA001E00FE0BD42F003421003C1097314D2710
:102FBA009731043008002000A50025088B3197239B
:102FCA009731080021003C1436359731892797310B
:102FDA0003300800F03021009E009B019C01013063
:102FEA009D00080021003C140314360D97318927EF
:102FFA00973105300800453454344134503445344F
:10300A002034313400344534543441345034453456
:10301A002034323400344534543441345034453445
:10302A002034333400344534543441345034453434
:10303A002034343400344534543441345034453423
:10304A002034353400344534543441345034453412
:10305A002034363400344534543441345034453401
:10306A0020343734003445345434413450344534F0
:10307A0020343834003445345434413450344534DF
:10308A002034393400344D344F34443445342034F8
:06309A00543443340034FD
:020000040001F9
:08000000FF3FFF3FFF3FFF3F00
:04000E00E43FFF3F8D
:00000001FF
