:1000000080314A28053008007E1480310B1F0928F2
:100010000A2848282100111E0E280F281B2820001E
:10002000111E132814281B2821004C088A004B0895
:100030000A00803148282100911E1F2820282C28E2
:100040002000911E242825282C2821004A088A00F7
:1000500049080A00803148282100921D30283128A3
:100060003D282000921D352836283D2821005008C3
:100070008A004F080A00803148282100911D41283C
:10008000422848282000911D46284728482836281D
:100090007E10090080314C2821008731FF278031F4
:1000A000EF000A3084009630850020308600013051
:1000B00087001E3093318D238031FD01563084003E
:1000C000003085000730933187238031A0308400D1
:1000D0000030850032309331872380313E308400F8
:1000E000013085001A30933187238031A03084009D
:1000F0000130850020309331872380317E1020002D
:10010000883129282000A900AE01AF012908031970
:100110008A288B28D128CC285708031990289128A1
:10012000CC2887317D2780312000A6002608A80032
:10013000BC2802302000A7000430A600BA30890B8A
:100140009F28A60B9F28A70B9F2800002000AE0128
:10015000AE0AAF01AF0ACC2802302000A70004305D
:10016000A600BA30890BB228A60BB228A70BB2287A
:1001700000002000AE01A9282808A600A701270832
:10018000003A0319C428CC282608323A03199928C2
:10019000013A0319AC28CC282F080319D028D128FC
:1001A0008C282908031DD528D62867290030AD00E2
:1001B0000030AC000030AB000030AA003F29013015
:1001C0002000AA070030AB3D0030AC3D0030AD3D13
:1001D000013094313E248031003094314B24803101
:1001E00007302000A7001730A6006A30890BF628D8
:1001F000A60BF628A70BF6280000003094313E2409
:100200008031013094314B24803107302000A70029
:100210001730A6006A30890B0B29A60B0B29A70BF8
:100220000B29000001309531D4258031003A0319A3
:100230001A291B2928292000AE01AF01AF0A01307D
:100240009531D4258031003A031D272928291F29FB
:1002500001309531EF258031003A031930293129D9
:100260003F292000AE01AE0AAF01AF0A013095313F
:10027000EF258031003A031D3E293F293629200011
:100280002F08031D442945295529AD1B54292D0844
:10029000031D55292C08031D552990302A020130D1
:1002A0002B3B031C54295529DF28903020002A06B7
:1002B000031D60292B032C042D04031D60296129D3
:1002C000672920002508860087018101810A003006
:1002D00094313E248031003094314B248031200011
:1002E0002E0808002000A600A701A801A9012608E1
:1002F00003197B297C29D6290F1C7F29802987296E
:100300008F1C832984298729A701A70AD62994311C
:10031000722481312000AA01AA0AB72905302000E1
:10032000A5000F30A400F130890B9429A40B942967
:10033000A50B942920000F1C9E299F29B2298F1CF0
:10034000A229A329B229A701A70AAA010030943142
:100350003E24813101309431582481310030943170
:100360004B24813101302000A8070030A93D2A0824
:100370000319BB29BC29C9292908803AA400803067
:100380002402031DC52903302802031CC829C929DA
:100390008E2915302000A5004B30A400BE30890BFB
:1003A000CF29A40BCF29A50BCF29000020002608B8
:1003B000031DDB29DC29362A0F18DF29E029E7296C
:1003C0008F18E329E429E729A701A70A362A9431DF
:1003D000722481312000AA01AA0A172A05302000C0
:1003E000A5000F30A400F130890BF429A40BF429E7
:1003F000A50BF42920000F18FE29FF29122A8F18B7
:10040000022A032A122AA701A70AAA01003094315E
:100410003E248131013094315824813100309431AF
:100420004B24813101302000A8070030A93D2A0863
:1004300003191B2A1C2A292A2908803AA400803083
:100440002402031D252A03302802031C282A292AF6
:10045000EE2915302000A5004B30A400BE30890BDA
:100460002F2AA40B2F2AA50B2F2A000020002708D3
:1004700008002000B6002E0886008701403FB0002B
:10048000413FB10030088400310885001200253A50
:10049000031D4B2A4C2AC22A2E08860087010130F0
:1004A000810741310318810A2200D601D7012100BA
:1004B000C101C201FF30BF00FF30C00020002E0884
:1004C00086008701403FB000413FB1003008840002
:1004D0003108850012006E3A031D6F2A702A8F2A98
:1004E0002E08860087010130810741310318810AF7
:1004F0002F0886008701403F84008501810A00089B
:10050000B0003008B50035088600870121003D089D
:10051000C03F3E08C13F2000AE01AF01E52A2E08D2
:1005200086008701403FB000413FB10030088400A1
:10053000310885001200253A031D9F2AA02AB92AF6
:100540002E08860087010130810741310318810A96
:100550002530A6000030A7003608B0003008A800FB
:1005600086315B26823101302000AE000030AF00C2
:10057000E52A2E08860087010130810741310318E2
:10058000810A8B2A2E0886008701403FB000413F38
:10059000B10030088400310885000008B200B301C2
:1005A0003208A6003308A7003608B4003408A800B3
:1005B00086315B26823120002E08860087010130BB
:1005C000810741310318810AB32A08002000AB00DB
:1005D0002B08A9002908D600003095311725823153
:1005E0009C302000A900D730890BF42AA90BF42AEB
:1005F00003309531422582311A302000A900F830AD
:10060000890B002BA90B002B0000033095314225EC
:1006100082311A302000A900F830890B0D2BA90B6C
:100620000D2B000003309531422582311A30200015
:10063000A900F830890B1A2BA90B1A2B00000230E5
:100640009531422582311A302000A900F830890BFB
:10065000272BA90B272B000028309531422582310A
:1006600002302000AA000430A900BA30890B362BD2
:10067000A90B362BAA0B362B00000C3095314225E6
:10068000823102302000AA000430A900BA30890B60
:10069000472BA90B472BAA0B472B000001309531A4
:1006A0004225823102302000AA000430A900BA306D
:1006B000890B582BA90B582BAA0B582B000006307E
:1006C00095314225823102302000AA000430A90071
:1006D000BA30890B692BA90B692BAA0B692B000077
:1006E00008002030860001308700C03084000130CF
:1006F000850014302000C70016001A00C70B7C2BA1
:100700003430860001308700D43084000130850009
:100710000A30C70016001A00C70B8A2B013094312B
:100720004B2483310130943158248331003094318B
:100730003E2483319331A12383310030943131241D
:10074000833122008C1220004408AF004308AE0021
:10075000D530B0009830B1008730B2009830B30087
:10076000AE30B4009830B5008431EE2483312000DF
:100770004408B1004308B000C03095316F25833183
:100780002000C70047082300DE00D4302000B0005E
:100790000130B10023005E0895316F2583312000C0
:1007A000BF000130C0009431F224833185318725A8
:1007B000833120000F1DDD2BDE2BD92B4508860051
:1007C0008701810146088600870181010800200019
:1007D000CA013F2C0F19ED2BEE2B022C7230BF00FB
:1007E0009830C0009431F22483312000CA01CA0A33
:1007F00043088600440887008101450886004608B2
:100800008700810157080319062C072C3F2C8731DC
:100810007D2783312000C7004708C900322C9C3057
:10082000BF009830C0009431F22483312000430887
:100830008600440887008101450886004608870035
:10084000810102302000C8000430C700BA30890B93
:10085000272CC70B272CC80B272C00002000CA010F
:10086000CA0A3F2C4908C700C8014808003A0319C2
:100870003A2C3F2C4708343A03190F2C3F2C4A08D6
:100880000319432C442CEA2B080093316F23843145
:10089000003A03194C2C4D2C7D2C5A2C93314723B4
:1008A0008431992C93314C238431992C93315623E4
:1008B0008431992C21002F08FA007A08F9000630BB
:1008C000A03E86008701413F8A00403F0A008431F4
:1008D000FB00FC017C08003A03196F2C562C7B08A6
:1008E000013A0319562C033A03194E2C013A031905
:1008F000522C073A0319562C562C21003C10173065
:10090000A03E86008701403F84008501810A0008DF
:1009100093313D23843101302100B8020030B93BCE
:1009200038083904031D952C962C982C0630992CE8
:10093000033008002000C800C701E82C0F19A12CC3
:10094000A22CB02C4130BF009830C0009431F2246A
:1009500084312000C701C70A480886008701810149
:1009600057080319B42CB52CE82C87317D27843126
:100970002000C4004408C600DB2CA130BF00993021
:10098000C0009431F2248431200048088600870199
:100990008101810A02302000C5000430C400BA3051
:1009A000890BD02CC40BD02CC50BD02C0000200000
:1009B000C701C70AE82C4608C400C5014508003A2B
:1009C0000319E32CE82C4408313A0319BD2CE82C18
:1009D00047080319EC2CED2C9E2C08009331EE23D4
:1009E0008431063095314225843102302000B70031
:1009F0000430B600BA30890BFB2CB60BFB2CB70BBE
:100A0000FB2C00002000A901A90A01308731AC2786
:100A1000843120002F08AA002E08A900963147260D
:100A200084312000A901A90A02308731AC27843122
:100A300020003108AA003008A900963147268431E9
:100A40002000A901A90A03308731AC278431200096
:100A50003308AA003208A9009631472684312000C5
:100A6000A901A90A04308731AC2784312000350858
:100A7000AA003408A90096314726843108002000D6
:100A8000D3005308860087010108CD00CE014D0830
:100A9000C3004E08C4004B08860087010108CF0040
:100AA000D0014F08C5005008C6008331E7238531C7
:100AB00020004B08860087010108CD00CE014D08BB
:100AC000C3004E08C4004C08860087010108CF000F
:100AD000D0014F08C5005008C600530886008701A2
:100AE0000108D100D2015108C7005208C80087315F
:100AF0001B27853129302000CE009630CD007F3075
:100B0000890B802DCD0B802DCE0B802D0800200071
:100B1000A801A9012000AA01AB0197311E27853148
:100B20000B302000A7002630A6005D30890B962DE3
:100B3000A60B962DA70B962D003201302000AA0798
:100B40000030AB3D2B08803AA60080302602031D02
:100B5000AB2D04302A02031CAE2DAF2D8D2D0B3092
:100B60002000A7002630A6005D30890BB52DA60B0E
:100B7000B52DA70BB52D003201302000A80700309D
:100B8000A93D2908803AA60080302602031DCA2DFF
:100B900004302802031CCD2DCE2D8A2D0800210003
:100BA00091129C302000A3000630A4009331DC2376
:100BB000853121001112A9302000A3001630A400B5
:100BC0009331E5238531083023009F0090309D004C
:100BD00024309E0040309B0003309C00FB302000FE
:100BE000A3001230A4009331CA23853111302000B4
:100BF000A3001330A4009331D32385310D3020009E
:100C0000A3001330A4009331C12385312100D10109
:100C10002000DC01DB010830A5002508DA00D9013D
:100C2000D801D7012100911608009331072386319E
:100C3000FA0021003708860087017A088100013018
:100C4000FA007A08B7070130B8020030B93B38081B
:100C5000390403192C2E2D2E322E9331192386316F
:100C600005305A2EBC153C2E9331652386315A2E01
:100C70009331602386315A2E2C08FA007A08F90045
:100C800021088A0020080A008631FB00FC017C084C
:100C9000003A03194C2E382E7B08013A0319382EDE
:100CA000033A0319342E013A0319342E073A031973
:100CB000382E382E0800200028080319602E612ED7
:100CC000662E2808031D652E662E6B2E260893318E
:100CD0009A2386319B2E2808033E86008701160042
:100CE00001040319742E752E922E2808033E8600E7
:100CF0008701403FA900413FAA00280A86008701DA
:100D0000403FAB00413FAC002C08803AAD002A08C0
:100D1000803A2D02031D8E2E29082B020318912ED6
:100D2000922E9B2E2000280A860087010130810721
:100D300041310318810A0800200059083E3E860010
:100D400001308700810123001D1DA72EA82EB52E7E
:100D5000200059083E3E86000130870081142100A2
:100D600048088A0047080A00863123009D1CB92ED6
:100D7000BA2EC72E200059083E3E8600013087005B
:100D80000115210046088A0045080A008631200026
:100D900059083E3E86000130870001080319D12E14
:100DA000D22ED92E210044088A0043080A00863139
:100DB000DC2E95319E25863108002000A9002908E7
:100DC000A7002708AA00FF2E0130A5020030A63B8D
:100DD0002A0886008701AA0A2408A8002308A70079
:100DE000A30A0319A40A270884002808850000081C
:100DF000C03F8908031DFD2EFE2EFF2E0E2F250855
:100E00002604031D042F052FE42E0E2F2A0886002A
:100E1000870181010130A7002708AA070130A50238
:100E20000030A63B250A031D192F260A031D192F82
:100E30001A2F062F08002000470886004808870060
:100E40000108031D242F252F2C2F7230BF0098304E
:100E5000C0009431F2248731200043088600440802
:100E60008700810145088600460887008101470800
:100E70008600480887008101003094313E24873184
:100E8000003094314B24873100309431582487311D
:100E90009331A123873108002000BC003808BE0030
:100EA0003708BD002100BD01BE016A2F3D30BA00E8
:100EB0003A08AE003908BB003B08AF003C0882315D
:100EC0003922873120002E082100BD0720002F087D
:100ED0002100BE3D20003D0884003E088500120030
:100EE000031D732F742F562F21003E082000B800D9
:100EF00021003D082000B700080020005708031912
:100F0000822F832F7D2F58083E3E860001308700B8
:100F10000108A30023082100D10020005808463E04
:100F20008600013087000108A3002308A4000130D7
:100F3000A3002308D80708305802031CA02FA12FB4
:100F4000A22FD8012100911201302000D7022100E8
:100F500091162000240808002000AC00C72F2908A3
:100F6000BF3E953142258731DA2F2908933E9531CE
:100F700042258731DA2F2908D33E95314225873122
:100F8000DA2F29087F3E953142258731DA2F2C0848
:100F9000AA00AB012B08003A0319CF2FC12F2A0852
:100FA000023A0319AF2F013A0319B52F073A031973
:100FB000BB2FC12F08002000A501A6010F1CE12FA7
:100FC000E22FE62F0130A5000030A6008F1CE92F8C
:100FD000EA2FEE2F0230A5000030A6000F1CF12FE3
:100FE000F22FFA2F8F1CF52FF62FFA2F0330A500C2
:100FF0000030A6002608A4002508A3000800083435
:101000002000911108002000A801A90197311E2796
:1010100088310B302000A7002630A6005D30890BF8
:101020000F28A60B0F28A70B0F2800320130200035
:10103000A8070030A93D2908803AA6008030260282
:10104000031D242802302802031C272828280628EC
:1010500008009531042588318B170B179431012432
:1010600088314E308231E62288312100EE01ED01D7
:10107000EC01E801EB01AF302000AE009830AF008A
:101080002F30B0009930B1008430B2009930B300F5
:10109000AE30B4009830B5008431EE24883115307C
:1010A0002000D5004B30D400BE30890B5528D40B1E
:1010B0005528D50B552800008731DB2788312000C3
:1010C00024082100EA00200023082100E900690823
:1010D0006A0403196C286D2811299431722488310F
:1010E0008531872588312100E601E701DA28E730DC
:1010F0002000A3009830A4001430A5000030A60002
:10110000D2308631DD268831B128F9302000A300A5
:101110009830A4001430A5000030A600D2308631EB
:10112000DD268831B1280B302000A3009930A400BF
:101130001430A5000030A600D2308631DD2688317B
:10114000B1286A08003A0319A628B1286908013AAB
:1011500003197728033A03198528013A03199328BC
:10116000B128AF302000AE009830AF00D230B000D0
:101170000030B1004130B2009930B3008730B40084
:101180009830B5008431EE24883193318123883141
:101190009731762788318731DB2788312000240872
:1011A0002100EA00200023082100E9000130E607C1
:1011B0000030E73D6708803A2000D40080305402B8
:1011C000031DE5280230210066020318E828E928FB
:1011D000F028210069086A04031DEF28F028A128DF
:1011E000210069086A040319F628F7281129E80183
:1011F000E80A8531872588311129AF302000AE00FB
:101200009830AF00D230B0000030B1005B30B20097
:101210009830B3007430B4009930B5008431EE24B6
:10122000883121006808031D16291729FD28680840
:10123000031D1B291C295C28AF302000AE0098300C
:10124000AF001D30B0009930B100AE30B200983020
:10125000B3008430B4009930B5008431EE24883175
:1012600003302000D5000830D4007730890B3629B0
:10127000D40B3629D50B3629EE302000D400540883
:10128000C300EC3084319A248831883103208831BE
:1012900027302000AE009A30AF00AE30B000993059
:1012A000B100AE30B2009830B300AE30B400983028
:1012B000B5008431EE2488312100EE01EE0A0030C1
:1012C00094313E248831003094314B2488310130F0
:1012D00094315824883103302000D5000830D400E0
:1012E0007730890B7129D40B7129D50B7129013005
:1012F00094317F24883193313923883100309431FF
:101300006524883100309431312488311130200037
:10131000D5003C30D400CB30890B8C29D40B8C29E0
:10132000D50B8C290030813172218831003A0319A4
:101330009A299B299C29BB292100EE0127302000F6
:10134000C3009A30C400EE30D4005408C500ED301C
:10135000D5005508C600833171238831EE30200056
:10136000D4005408CB00ED30D5005508CC00EC304B
:1013700085313F25883121006E080319C029C12914
:10138000152A2F302000AE009A30AF00B330B000E5
:101390009930B100AE30B2009830B300AE30B40036
:1013A0009830B5008431EE2488319331212388317F
:1013B00000309431652488310130943131248831F2
:1013C00011302000D5003C30D400CB30890BE62909
:1013D000D40BE629D50BE629013081317221883101
:1013E000003A0319F429F529F629152A2100EE01FE
:1013F0002F302000C3009A30C400EE30D4005408CF
:10140000C500ED30D5005508C60083317123883101
:10141000EE302000D4005408CB00ED30D500550844
:10142000CC00EC3085313F25883121006E0803194E
:101430001A2A1B2A6F2A37302000AE009A30AF00DC
:10144000B330B0009930B100AE30B2009830B30084
:10145000AE30B4009830B5008431EE248831933139
:101460002123883101309431652488310030943152
:101470003124883111302000D5003C30D400CB30ED
:10148000890B402AD40B402AD50B402A00308131E9
:1014900072218831003A03194E2A4F2A502A6F2AA6
:1014A0002100EE0137302000C3009A30C400EE3036
:1014B000D4005408C500ED30D5005508C60083316E
:1014C00071238831EE302000D4005408CB00ED3079
:1014D000D5005508CC00EC3085313F2588312100FE
:1014E0006E080319742A752AC92A3F302000AE00FD
:1014F0009A30AF00B330B0009930B100AE30B200D6
:101500009830B300AE30B4009830B5008431EE248A
:101510008831933139238831003094316524883102
:10152000003094313124883111302000D5003C3016
:10153000D400CB30890B9A2AD40B9A2AD50B9A2A3D
:101540000030813172218831003A0319A82AA92A72
:10155000AA2AC92A2100EE0137302000C3009A30A0
:10156000C400EE30D4005408C500ED30D500550855
:10157000C600833171238831EE302000D400540836
:10158000CB00ED30D5005508CC00EC3085313F253F
:10159000883121006E080319CE2ACF2A232B473029
:1015A0002000AE009A30AF00B330B0009930B100E7
:1015B000AE30B2009830B300AE30B4009830B50011
:1015C0008431EE24883193313523883100309431D1
:1015D0006524883101309431312488311130200064
:1015E000D5003C30D400CB30890BF42AD40BF42A3C
:1015F000D50BF42A0130813172218831003A031968
:10160000022B032B042B232B2100EE01473020005B
:10161000C3009A30C400EE30D4005408C500ED3049
:10162000D5005508C600833171238831EE30200083
:10163000D4005408CB00ED30D5005508CC00EC3078
:1016400085313F25883121006E080319282B292B6D
:101650007D2B4F302000AE009A30AF00B330B00089
:101660009930B100AE30B2009830B300AE30B40063
:101670009830B5008431EE24883193313523883198
:10168000013094316524883100309431312488311F
:1016900011302000D5003C30D400CB30890B4E2BCC
:1016A000D40B4E2BD50B4E2B00308131722188315B
:1016B000003A03195C2B5D2B5E2B7D2B2100EE0184
:1016C0004F302000C3009A30C400EE30D4005408DC
:1016D000C500ED30D5005508C6008331712388312F
:1016E000EE302000D4005408CB00ED30D500550872
:1016F000CC00EC3085313F25883121006E0803197C
:10170000822B832BD72B57302000AE009A30AF00AE
:10171000B330B0009930B100AE30B2009830B300B1
:10172000AE30B4009830B5008431EE248831933166
:101730003923883100309431652488310030943168
:101740003124883111302000D5003C30D400CB301A
:10175000890BA82BD40BA82BD50BA82B00308131DB
:1017600072218831003A0319B62BB72BB82BD72B2F
:101770002100EE0157302000C3009A30C400EE3043
:10178000D4005408C500ED30D5005508C60083319B
:1017900071238831EE302000D4005408CB00ED30A6
:1017A000D5005508CC00EC3085313F25883121002B
:1017B0006E080319DC2BDD2B342C5F302000AE00CB
:1017C0009A30AF006F30B0009A30B100AE30B20046
:1017D0009830B300AE30B4009830B5008431EE24B8
:1017E0008831003094317F24883193313923883116
:1017F00093313123883100309431312488311130D4
:101800002000D5003C30D400CB30890B052CD40B04
:10181000052CD50B052C0030813172218831003A1E
:101820000319132C142C152C342C2100EE015F30DD
:101830002000C3009A30C400EE30D4005408C50024
:10184000ED30D5005508C600833171238831EE3064
:101850002000D4005408CB00ED30D5005508CC0052
:10186000EC3085313F25883121006E080319392C71
:101870003A2C8D2C67302000AE009A30AF006F30CC
:10188000B0009A30B100AE30B2009830B300AE3044
:10189000B4009830B5008431EE248831933121238F
:1018A00088319331292388310130943131248831B2
:1018B00011302000D5003C30D400CB30890B5E2C99
:1018C000D40B5E2CD50B5E2C013081317221883116
:1018D000003A03196C2C6D2C6E2C8D2C2100EE011E
:1018E00067302000C3009A30C400EE30D4005408A2
:1018F000C500ED30D5005508C6008331712388310D
:10190000EE302000D4005408CB00ED30D50055084F
:10191000CC00EC3085313F25883121006E08031959
:10192000922C932CE62CDF302000AE009930AF00D3
:101930006F30B0009A30B100AE30B2009830B300D2
:10194000AE30B4009830B5008431EE248831933144
:10195000212388319331312388310030943131246F
:10196000883111302000D5003C30D400CB30890BB9
:10197000B72CD40BB72CD50BB72C0030813172218A
:101980008831003A0319C52CC62CC72CE62C21003F
:10199000EE01DF302000C3009930C400EE30D400E7
:1019A0005408C500ED30D5005508C60083317123B9
:1019B0008831EE302000D4005408CB00ED30D50043
:1019C0005508CC00EC3085313F25883121006E0868
:1019D0000319EB2CEC2C3F2DE8302000AE009930A1
:1019E000AF006F30B0009A30B100AE30B200983026
:1019F000B300AE30B4009830B5008431EE248831A5
:101A00009331392388319331312388310030943137
:101A10003124883111302000D5003C30D400CB3047
:101A2000890B102DD40B102DD50B102D00308131CA
:101A300072218831003A03191E2D1F2D202D3F2DB4
:101A40002100EE01E8302000C3009930C400EE30E0
:101A5000D4005408C500ED30D5005508C6008331C8
:101A600071238831EE302000D4005408CB00ED30D3
:101A7000D5005508CC00EC3085313F258831210058
:101A80006E080319442D452D982DF1302000AE002D
:101A90009930AF006F30B0009A30B100AE30B20074
:101AA0009830B300AE30B4009830B5008431EE24E5
:101AB0008831933135238831933131238831003097
:101AC00094313124883111302000D5003C30D400CD
:101AD000CB30890B692DD40B692DD50B692D0030C6
:101AE000813172218831003A0319772D782D792DB3
:101AF000982D2100EE01F1302000C3009930C40080
:101B0000EE30D4005408C500ED30D5005508C600AD
:101B1000833171238831EE302000D4005408CB008B
:101B2000ED30D5005508CC00EC3085313F258831AB
:101B300021006E0803199D2D9E2DF12DFA302000F5
:101B4000AE009930AF006F30B0009A30B100AE30C7
:101B5000B2009830B300AE30B4009830B500843194
:101B6000EE24883193313523883193312D23883108
:101B7000013094313124883111302000D5003C30BF
:101B8000D400CB30890BC22DD40BC22DD50BC22D66
:101B90000130813172218831003A0319D02DD12DC5
:101BA000D22DF12D2100EE01FA302000C300993032
:101BB000C400EE30D4005408C500ED30D5005508FF
:101BC000C600833171238831EE302000D4005408E0
:101BD000CB00ED30D5005508CC00EC3085313F25E9
:101BE000883121006E080319F62DF72D4A2E033097
:101BF0002000AE009A30AF006F30B0009A30B100D4
:101C0000AE30B2009830B300AE30B4009830B500BA
:101C10008431EE2488319331352388319331312357
:101C20008831003094313124883111302000D500C2
:101C30003C30D400CB30890B1B2ED40B1B2ED50B84
:101C40001B2E0030813172218831003A0319292E70
:101C50002A2E2B2E4A2E2100EE0103302000C30035
:101C60009A30C400EE30D4005408C500ED30D500E1
:101C70005508C600833171238831EE302000D4002E
:101C80005408CB00ED30D5005508CC00EC30853140
:101C90003F25883121006E0803194F2E502EA32EA8
:101CA0000C302000AE009A30AF006F30B0009A3098
:101CB000B100AE30B2009830B300AE30B40098300E
:101CC000B5008431EE248831933139238831933142
:101CD0002D23883100309431312488311130200097
:101CE000D5003C30D400CB30890B742ED40B742E2D
:101CF000D50B742E0030813172218831003A0319DE
:101D0000822E832E842EA32E2100EE010C30200083
:101D1000C3009A30C400EE30D4005408C500ED3042
:101D2000D5005508C600833171238831EE3020007C
:101D3000D4005408CB00ED30D5005508CC00EC3071
:101D400085313F25883121006E080319A82EA92E60
:101D5000172F15302000AE009A30AF005230B0007F
:101D60009930B100AE30B2009830B300C230B40048
:101D70009830B5008431EE248831013094317F24CD
:101D8000883193313523883101309431652488318D
:101D9000003094313124883111302000D5003C309E
:101DA000D400CB30890BD22ED40BD22ED50BD22E11
:101DB00021302000BF009830C0009431F2248831D7
:101DC000EB302000D4005408A50021006C088031BD
:101DD000822088312000D50055082100ED006D08D3
:101DE000031DF32EF42E172F6B08031DF82EF92E6A
:101DF000172FEE0137302000C3009A30C400EE30B8
:101E0000D4005408C500ED30D5005508C600833114
:101E100071238831EE302000D4005408CB00ED301F
:101E2000D5005508CC00EC3085313F2588312100A4
:101E30006E0803191C2F1D2F8C2F6B08031D212FDB
:101E4000222F8C2F1E302000AE009A30AF0063305E
:101E5000B0009930B100AE30B2009830B300C2305B
:101E6000B4009830B5008431EE24883193313523A5
:101E70008831013094316524883101309431312426
:101E8000883111302000D5003C30D400CB30890B94
:101E9000472FD40B472FD50B472F00302000BF0012
:101EA0009830C0009431F2248831EB302000D40007
:101EB0005408A50021006C08803182208831200060
:101EC000D50055082100ED006D08031D682F692F0E
:101ED0008C2F6B08031D6D2F6E2F8C2FEE011E3083
:101EE0002000C3009A30C400EE30D4005408C5006E
:101EF000ED30D5005508C600833171238831EE30AE
:101F00002000D4005408CB00ED30D5005508CC009B
:101F1000EC3085313F25883121006E080319912F5F
:101F2000922F5C286B08031D962F972FB02FC83077
:101F30002000AE009930AF00DE30B0009830B10024
:101F40009330B2009930B3008730B4009830B500B8
:101F50008431EE248831013094313E248831C72FFA
:101F6000C8302000AE009930AF00D430B0009930B6
:101F7000B100BB30B2009930B3008730B400983064
:101F8000B5008431EE248831943172248831933144
:101F9000A1238831003094313124883122008C1201
:101FA000963166268831EC302000C3000030C40032
:101FB000EE30C5000030C6008331E7238831EE30B3
:101FC0002000C3000030C400ED30C5000030C60062
:101FD000EC30C7000030C80087311B278831210052
:101FE000EB0129302000D5009630D4007F30890BDA
:101FF000F72FD40BF72FD50BF72F5C2880314A2809
:1020000042341334B8341334A8341334453404340C
:102010001534063493341334D1341734473413341D
:102020004C34133451341334563413345B34133476
:1020300060341334653413346A341334F234163490
:102040002D343E3420345434453453345434203405
:1020500043344F344E3446344F3452344D34453487
:1020600020342D34203441345434543445344E34E7
:102070005434453420344134433451345534493494
:102080005434543445344D3445344E3454340D3482
:042090000A340034DA
:1025F600080001300800240096140800240016156F
:102606000800240096150800240011080800200080
:102616009115080095319E259331080023001D125F
:102626001D16080024009616161608002400961299
:10263600161608009731A3279331080022008C1440
:102646000C100800163021009700080022000C1616
:102656008C11080022000C128C15080022000C12A6
:102666008C11080022000C148C10080022008C101B
:102676000C100800F00070082400910008002100EA
:10268600BC10BB010E3008009231FE22933101309E
:1026960008009231FE229331023008009231FE2268
:1026A6009331013008009331012393310030080043
:1026B6009331192393310530080093311523933153
:1026C6000A300800933115239331093008002100A0
:1026D600BC10BB010E3008002400160E890C890CB4
:1026E6000139080094310C24933124001614080093
:1026F60094310C24933124001615080020000F197C
:10270600852B862B812B0800640080010131890B03
:10271600882B0034FE0012001E00FE0B8E2B0034A8
:1027260021003C109331042393310430080020002B
:10273600A500250897314A279331080022000C107E
:102746008C100C118C110C12080021003C1436352B
:1027560093313D23933103300800F03021009E0071
:102766009B019C0101309D00080021003C140314CC
:10277600360D93313D23933105300800200024089F
:102786002100C400200023082100C3000800200007
:1027960024082100C800200023082100C7000800E3
:1027A600200024082100C600200023082100C500BF
:1027B6000800200024082100CA0020002308210068
:1027C600C9000800200024082100CC0020002308AE
:1027D6002100CB0008000130953142259331353078
:1027E600890BF32B00000800C03024009400083049
:1027F600950096014F30920095120800283024006B
:102806009500960194012730920021008E150E1630
:10281600080024001419102C112C0C2C16081F3932
:10282600031D162C172C0C2C080070302100990063
:1028360098012200960121001A1F222C232C1E2CFF
:1028460008007608F1007508F0007708F8007808A7
:10285600F20000309631CC26943108002000A30007
:1028660023080319372C382C3B2C22000C173D2C3F
:1028760022000C1308002000A30023080319442C8F
:10288600452C482C220010144A2C22001010080057
:102896002000A30023080319512C522C552C22008A
:1028A6008D16572C22008D1208002000A300230845
:1028B60003195E2C5F2C622C22001015642C22005A
:1028C600101108002000A300230803196B2C6C2CA0
:1028D6006F2C22000C15712C22000C1108000130FF
:1028E60094313E249431013094314B24943101309B
:1028F60094315824943108002000A30023080319BA
:10290600852C862C8A2C22008C138C168D2C22006A
:102916008C178C120800F3002100BC1D932C942CFC
:102926009D2C7308F2007208B7007108B900700890
:10293600B800BC1108002000A30094310C24943187
:1029460020002308240091002000911DAB2CAC2C04
:10295600A72C911108000230F0000030F100790830
:1029660094318E2494310030F500F600F70194314D
:1029760024249431043008000130F0000030F100C6
:10298600790894318E2494310030F500F600F70171
:10299600943124249431023008000230F0000030D3
:1029A600F100790894318E2494310030F500F60058
:1029B600F701943124249431023008000130F000EC
:1029C6000030F100790894318E2494310030F500FE
:1029D600F600F70194312424943104300800413084
:1029E6002000C1004108C2004008B8003F08B700F7
:1029F6004230C1004108B900003087314C2794317C
:102A060008009331F7239531963128269531943174
:102A1600182495319331252395319331B02395317F
:102A26008531CF25953108002000A4009331752308
:102A360095312000560894319E24953120002408B3
:102A460021006F0494319E24953193317B23953177
:102A560008002000A6007D08A5002508A604260873
:102A6600043895311725953120002608FB39953114
:102A7600172595314230890B3E2D00320800200083
:102A8600A800FD012808F03995312C259531200044
:102A96002808A7000330A735FF3E031D4E2D273516
:102AA600F03995312C25953108002000A800FD014C
:102AB600FD0A2808F03995312C2595312000280883
:102AC600A7000330A735FF3E031D652D2735F039D6
:102AD60095312C25953108002000B4003108A90055
:102AE6003008A80034089531B9259531200023080F
:102AF600B2002408B3003408320796318726953190
:102B0600200034080800790886008701403FF0005D
:102B1600413FF1007908023E8600870101089431A1
:102B26008E2495310030F500F600F7019431242407
:102B360095310230080023001908F00020005908DA
:102B4600463E860001308700700881000130F000A3
:102B56007008D90708305902031CB22DB32DB42DC5
:102B6600D9010130F0007008D70708002000A7003F
:102B76002708A5002508A600C42D0130A5002508B4
:102B8600A70727088600013087000108031DCC2D02
:102B9600CD2DC02D26082702A300A401A31BA40344
:102BA60008002000A400A30124080319DB2DDC2D56
:102BB600E22D8F1BDF2DE02DE22DA301A30A2408B1
:102BC600031DE62DE72DED2D8F1FEA2DEB2DED2DA7
:102BD600A301A30A230808002000A400A3012408D7
:102BE6000319F62DF72DFD2D0F19FA2DFB2DFD2DB1
:102BF600A301A30A2408031D012E022E082E0F1D71
:102C0600052E062E082EA301A30A230808002D343C
:102C16003E342034453452345234453455345234DB
:102C26003A342034003400340034003400340034A4
:102C36000034003400340D340A34003400340034D7
:102C460000340034003400340034220090018F0137
:102C56008C018D018E010830210090008C01CF304F
:102C66008D00BF308E00FF308F0023008F013F3074
:102C76008D0090013C308C00240090018D012100D4
:102C8600951722009D0108002000AC01AD015A2EC7
:102C960029082C0784002A082D3D85000008953157
:102CA6005825963101302000AC070030AD3D29088B
:102CB6002C0784002A082D3D85001200031D642E72
:102CC600652E4B2E080020302000BF009030C0003B
:102CD6009431F22496312000C401C50188310320C5
:102CE600963101302000C4070030C53D4508803AC2
:102CF600C30080304302031D822E02304402031CAF
:102D0600852E862E712E08002000AF002908AD0002
:102D16002808AC002F08AA002A08AE002E08860054
:102D260001308700AE0A2D08AB002C08AA00AC0AB9
:102D36000319AD0A2A0884002B0885000008C03F45
:102D46008908031DA72EA82E912E08000830200002
:102D56005A020318AF2EB02EC92E5B084E3E8600CF
:102D660001308700010823009A000130F000700846
:102D76002000DB0708305B02031CC22EC32EC42EC4
:102D8600DB010130F0007008DA07CB2E21001112AA
:102D96000800F400700871040319D22ED32EE42E15
:102DA6007435A03E860087017008C03F7108C13F98
:102DB6007208F3007408AC3E860087017308810030
:102DC600F12E7435A03E86008701FC30C03F1230DC
:102DD600C13F7408AC3E86008701810108002100CE
:102DE6003C100230FA007A08BB00012F93315123C0
:102DF60096311D2F9331562396311D2F2E08FA003A
:102E06007A08F9000430A03E86008701413F8A0017
:102E1600403F0A009731FB00FC017C08003A031989
:102E2600152FFD2E7B08023A0319F92E013A0319D4
:102E3600F92EFD2E08002000A401A50122000D1682
:102E460006302000A3003030890B272FA30B272F35
:102E5600000022000D1206302000A3003030890B3E
:102E6600322FA30B322F000001302000A4070030C0
:102E7600A53D2508803AA30080302302031D452F77
:102E860032302402031C482F492F212F080020002E
:102E9600A4005A080319502F512F4C2F2100111A44
:102EA600552F562F5B2F2000240823009A00732FDE
:102EB600111220002408A3005C084E3E8600013053
:102EC6008700230881000130A3002308DC070830AF
:102ED6005C02031C6F2F702F712FDC010130DA02A8
:102EE600210011160800013094317F249731933167
:102EF600352397310B302000A5002630A4005D3025
:102F0600890B832FA40B832FA50B832F003201304F
:102F16009431652497310B302000A5002630A4009B
:102F26005D30890B942FA40B942FA50B942F0032A0
:102F36000130943165249731933139239731080054
:102F460088310020973121003C1CAA2FAB2FB92FC6
:102F560093316F239731003A0319B22FB32FB92F4C
:102F66000F302000A00020082100BA0021003A08F6
:102F76002000A000A101A035A10D0030200784008B
:102F86009030213D8500013F8A00003F0A009731BD
:102F96002000A20022082100BA0008002100BC156A
:102FA600E12F933151239731FF2F93310A23973124
:102FB6000330FF2F933156239731FF2F2C08FA0049
:102FC6007A08F90021088A0020080A009731FB00D8
:102FD600FC017C08003A0319F12FDD2F7B08013A2A
:102FE6000319DD2F033A0319D42F013A0319D42FFD
:102FF600073A0319D82FDD2F08004134743474348E
:1030060065346E34743465342034763461346C340B
:10301600693464346134743469346F346E34203402
:103026006C34653464347334203462346C346534FF
:103036007534653473340D340A34003441347434D1
:10304600743465346E3474346534203476346134C3
:103056006C34693464346134743469346F346E3476
:1030660020346C34653464342034763465347234F8
:103076007434653473340D340A3400342D343E34DC
:103086002034543445345334543420344D3441348C
:103096004E34553445344C34203445344E34203483
:1030A60043344F345534523453340D340A340034D7
:1030B6004D34413449344E34543445344E3441341D
:1030C6004E344334453420344E3445344334453449
:1030D60053345334413449345234453400342D3456
:1030E6003E342034463449344E3420345434453446
:1030F6005334543420344D3441344E3455344534ED
:103106004C340D340A340034413454345434453488
:103116004E345434453420344134433451345534D8
:1031260049345434543445344D3445344E3454348F
:1031360000342D343E34203454344534533454341E
:10314600203441344334513455344934543454349E
:1031560045340D340A34003454344534533454342D
:1031660020344334413452345434453420344434C6
:10317600383435343534453444343234003441340B
:103186005034503455345934453452342034533441
:103196005534523420344F344B342F344E344F345C
:1031A6004B340034543445345334543420344E3480
:1031B6004F344E34203443344F344E3446344F3437
:1031C60052344D3445340034443445344634413465
:1031D600553454342034433450343134203420347C
:1031E6002034203420342034203400344434453410
:1031F6004634413455345434203443345034323414
:103206002034203420342034203420342034003438
:1032160044344534463441345534543420344334EC
:10322600503431342034453454342034433450340B
:103236003234003441345434543445344E345434E6
:1032460045342034443445344D34413452345234B8
:10325600413447344534003450344F3453344934C0
:10326600543449344F344E344E3445345234203479
:1032760043344134523454344534003450344C349D
:103286004134433445345234203443344134523487
:10329600543445342034523445344634003454349E
:1032A60045345334543420344C3445344434533444
:1032B600203456344534523454344534533400346F
:1032C600543445345334543420344C344534443423
:1032D6005334203442344C34453455344534533415
:1032E600003452344534443445344D344134523438
:1032F600523445345A342034423441344E34433403
:1033060000344134503450345534593445345234F1
:10331600203453345534523420344F344B34003433
:1033260052344534543449345234453452342034BA
:103336004334413452345434453400342D343E340D
:103346002034543445345334543420344F344E34BA
:103356000D340A3400345434453453345434203450
:103366004D344F34443445342034423450340034E0
:103376005234453450344534543445345234203470
:1033860054344534533454340034463449344E347A
:10339600203444344534203454344534533454347E
:1033A600003448344F345234533420344434453492
:1033B6004C34413449340034453454344134503467
:1033C60045342034313430340034453454344134B7
:1033D6005034453420343134313400344534543497
:1033E6004134503445342034313432340034453499
:1033F6005434413450344534203431343334003479
:103406004534543441345034453420343134343422
:103416000034453454344134503445342034313446
:103426003534003445345434413450344534203432
:103436003134363400344534543441345034453410
:103446002034313437340034453454344134503424
:103456004534203431340034453454344134503406
:1034660045342034323400344534543441345034F5
:1034760045342034333400344534543441345034E4
:1034860045342034343400344534543441345034D3
:1034960045342034353400344534543441345034C2
:1034A60045342034363400344534543441345034B1
:1034B60045342034373400344534543441345034A0
:1034C600453420343834003445345434413450348F
:1034D60045342034393400344D344F344434453483
:0834E600203454344334003457
:020000040001F9
:08000000FF3FFF3FFF3FFF3F00
:04000E00E43FFF3F8D
:00000001FF
