:1000000080314A28053008007E1480310B1F0928F2
:100010000A2848282100111E0E280F281B2820001E
:10002000111E132814281B2821004C088A004B0895
:100030000A00803148282100911E1F2820282C28E2
:100040002000911E242825282C2821004A088A00F7
:1000500049080A00803148282100921D30283128A3
:100060003D282000921D352836283D2821005008C3
:100070008A004F080A00803148282100911D41283C
:10008000422848282000911D46284728482836281D
:100090007E10090080314C28210094317424803175
:1000A000EE006130840097308500203086000130FA
:1000B00087001E30953109258031FD0156308400BE
:1000C000003085000730953103258031A030840051
:1000D0000030850032309531032580313E30840078
:1000E000013085001A30953103258031A03084001D
:1000F0000130850020309531032580317E102000AD
:10010000883172282000B6002E0886008701403F03
:10011000B000413FB1003008840031088500120072
:10012000253A031D942895280B292E08860087015F
:100130000130810741310318810A2200D601D7011D
:100140002100C101C201FF30BF00FF30C00020000C
:100150002E0886008701403FB000413FB1003008C3
:1001600084003108850012006E3A031DB828B928B2
:10017000D8282E08860087010130810741310318F5
:10018000810A2F0886008701403F84008501810A8B
:100190000008B0003008B50035088600870121004E
:1001A0003D08C03F3E08C13F2000AE01AF012E29EF
:1001B0002E0886008701403FB000413FB100300863
:1001C0008400310885001200253A031DE828E9283B
:1001D00002292E088600870101308107413103186A
:1001E000810A2530A6000030A7003608B00030088C
:1001F000A80085311625803101302000AE00003086
:10020000AF002E292E088600870101308107413179
:100210000318810AD4282E0886008701403FB000C9
:10022000413FB10030088400310885000008B20069
:10023000B3013208A6003308A7003608B40034081A
:10024000A80085311625803120002E088600870100
:100250000130810741310318810AFC280800200081
:10026000AB002B08A9002908D600003096316E2675
:1002700081319C302000A900D730890B3D29A90B82
:100280003D2903309631992681311A302000A9008A
:10029000F830890B4929A90B492900000330963110
:1002A000992681311A302000A900F830890B56298F
:1002B000A90B5629000003309631992681311A3056
:1002C0002000A900F830890B6329A90B63290000DD
:1002D00002309631992681311A302000A900F83079
:1002E000890B7029A90B70290000283096319926B6
:1002F000813102302000AA000430A900BA30890BF5
:100300007F29A90B7F29AA0B7F2900000C30963189
:100310009926813102302000AA000430A900BA30A9
:10032000890B9029A90B9029AA0B90290000013074
:1003300096319926813102302000AA000430A900AC
:10034000BA30890BA129A90BA129AA0BA129000068
:10035000063096319926813102302000AA000430FF
:10036000A900BA30890BB229A90BB229AA0BB2296C
:10037000000008002000A800A901AA01280803190C
:10038000C229C329092A042A57080319C829C929D7
:10039000042A8631382681312000A5002508A700CF
:1003A000F42902302000A6000430A500BA30890BE1
:1003B000D729A50BD729A60BD72900002000A90112
:1003C000A90AAA01AA0A042A02302000A6000430C1
:1003D000A500BA30890BEA29A50BEA29A60BEA2960
:1003E00000002000A901E1292708A500A601260890
:1003F000003A0319FC29042A2508323A0319D129A5
:10040000013A0319E429042A2A080319082A092AA7
:10041000C4292808031D0D2A0E2A302A2A2A013051
:1004200097312B278131003A0319172A182A1C2AE1
:100430002000A901AA01AA0A01309731462781317B
:10044000003A0319242A252A2A2A2000A901A90AE8
:10045000AA01AA0A20002A0803192F2A302A0F2AE3
:10046000290808002030860001308700C030840051
:100470000130850014302000C70016001A00C70B99
:100480003D2A3430860001308700D43084000130AA
:1004900085000A30C70016001A00C70B4B2A01302E
:1004A0009531BF25823101309531CC258231003024
:1004B0009531B225823195311D25823120004408C5
:1004C000AF004308AE00D530B0009830B10087309F
:1004D000B2009830B300AE30B4009830B50083312C
:1004E000A923823120004408B1004308B000C03085
:1004F0009631C62682312000C70047082300DE005F
:10050000D4302000B0000130B10023005E089631E5
:10051000C62682312000BF000130C0009631492636
:10052000823184314224823120000F1D982A992A79
:10053000942A4508860087018101460886008701C4
:10054000810108002000CA01FA2A0F19A82AA92A45
:10055000BD2A7230BF009830C000963149268231E2
:100560002000CA01CA0A43088600440887008101A6
:100570004508860046088700810157080319C12AEB
:10058000C22AFA2A8631382682312000C70047085D
:10059000C900ED2A9C30BF009830C0009631492632
:1005A0008231200043088600440887008101450805
:1005B000860046088700810102302000C800043010
:1005C000C700BA30890BE22AC70BE22AC80BE22A1D
:1005D00000002000CA01CA0AFA2A4908C700C80157
:1005E0004808003A0319F52AFA2A4708343A031949
:1005F000CA2AFA2A4A080319FE2AFF2AA52A08004D
:100600009431EB248331003A0319072B082B382B44
:10061000152B9431C3248331542B9431C824833156
:10062000542B9431D2248331542B21002F08FA000B
:100630007A08F9000630A03E86008701413F8A0013
:10064000403F0A008331FB00FC017C08003A03199B
:100650002A2B112B7B08013A0319112B033A03199A
:10066000092B013A03190D2B073A0319112B112BF2
:1006700021003C101730A03E86008701403F8400D7
:100680008501810A00089431B924833101302100A9
:10069000B8020030B93B38083904031D502B512BE8
:1006A000532B0630542B033008002000C800C7012C
:1006B000A32B0F195C2B5D2B6B2B4130BF009830A7
:1006C000C0009631492683312000C701C70A480877
:1006D000860087018101570803196F2B702BA32B0C
:1006E0008631382683312000C4004408C600962B8A
:1006F000A130BF009930C0009631492683312000D7
:100700004808860087018101810A02302000C50067
:100710000430C400BA30890B8B2BC40B8B2BC50B58
:100720008B2B00002000C701C70AA32B4608C4007A
:10073000C5014508003A03199E2BA32B4408313A02
:100740000319782BA32B47080319A72BA82B592B88
:100750000800953162258331063096319926833120
:1007600002302000B7000430B600BA30890BB62B37
:10077000B60BB62BB70BB62B00002000A901A90AB7
:10078000013086316726833120002F08AA002E0809
:10079000A90097319E2783312000A901A90A0230C0
:1007A00086316726833120003108AA003008A9006D
:1007B00097319E2783312000A901A90A0330863191
:1007C0006726833120003308AA003208A900973138
:1007D0009E2783312000A901A90A043086316726AB
:1007E000833120003508AA003408A90097319E27DC
:1007F000833108002000D3005308860087010108D8
:10080000CD00CE014D08C3004E08C4004B08860041
:1008100087010108CF00D0014F08C5005008C6006D
:100820008231A222833120004B0886008701010813
:10083000CD00CE014D08C3004E08C4004C08860010
:1008400087010108CF00D0014F08C5005008C6003D
:100850005308860087010108D100D2015108C70062
:100860005208C8008531D625833129302000CE00BA
:100870009630CD007F30890B3B2CCD0B3B2CCE0B23
:100880003B2C08002000A801A9012000AA01AB010F
:1008900087314C2784310B302000A7002630A6007A
:1008A0005D30890B512CA60B512CA70B512C00321B
:1008B00001302000AA070030AB3D2B08803AA6008B
:1008C00080302602031D662C04302A02031C692C8A
:1008D0006A2C482C0B302000A7002630A6005D3083
:1008E000890B702CA60B702CA70B702C00320130DA
:1008F0002000A8070030A93D2908803AA6008030D2
:100900002602031D852C04302802031C882C892C08
:10091000452C08002100911257302000A30005301B
:10092000A400953150258431210011120830200097
:10093000A3000830A40095315925843108302300E4
:100940009F0090309D0024309E0040309B0003307B
:100950009C0073302000A3001430A40095313E2584
:1009600084318D302000A3001430A4009531472538
:10097000843189302000A3001430A400953135253E
:1009800084312100D1012000DC01DB010830A50009
:100990002508DA00D901D801D701210091160800F5
:1009A000943180248431FA002100370886008701C1
:1009B0007A0881000130FA007A08B7070130B802DE
:1009C0000030B93B380839040319E72CE82CED2C2A
:1009D0009431952484310530152DBC15F72C9431B4
:1009E000E1248431152D9431DC248431152D2C081B
:1009F000FA007A08F90021088A0020080A008431E8
:100A0000FB00FC017C08003A0319072DF32C7B083E
:100A1000013A0319F32C033A0319EF2C013A031995
:100A2000EF2C073A0319F32CF32C080020002808B8
:100A300003191B2D1C2D212D2808031D202D212DD0
:100A4000262D2608953116258531562D2808033E7A
:100A5000860087011600010403192F2D302D4D2D1E
:100A60002808033E86008701403FA900413FAA00B5
:100A7000280A86008701403FAB00413FAC002C08AC
:100A8000803AAD002A08803A2D02031D492D29081D
:100A90002B0203184C2D4D2D562D2000280A8600C0
:100AA00087010130810741310318810A08002000C5
:100AB00059083E3E860001308700810123001D1D3C
:100AC000622D632D702D200059083E3E86000130B6
:100AD00087008114210048088A0047080A008531F0
:100AE00023009D1C742D752D822D200059083E3E3B
:100AF0008600013087000115210046088A0045085C
:100B00000A008531200059083E3E860001308700EA
:100B1000010803198C2D8D2D942D210044088A0085
:100B200043080A008531972D9631F5268531080056
:100B30002000A9002908A7002708AA00BA2D013023
:100B4000A5020030A63B2A0886008701AA0A2408CD
:100B5000A8002308A700A30A0319A40A27088400F1
:100B6000280885000008C03F8908031DB82DB92D4D
:100B7000BA2DC92D25082604031DBF2DC02D9F2D7C
:100B8000C92D2A088600870181010130A7002708A6
:100B9000AA070130A5020030A63B250A031DD42D6B
:100BA000260A031DD42DD52DC12D0800200047088D
:100BB0008600480887000108031DDF2DE02DE72D82
:100BC0007230BF009830C000963149268531200030
:100BD00043088600440887008101450886004608CE
:100BE000870081014708860048088700810100309E
:100BF0009531B225853100309531BF2585310030E2
:100C00009531CC25853195311D2585310800200091
:100C1000BC003808BE003708BD002100BD01BE0180
:100C2000252E3D30BA003A08AE003908BB003B081B
:100C3000AF003C0880318220863120002E08210040
:100C4000BD0720002F082100BE3D20003D08840084
:100C50003E0885001200031D2E2E2F2E112E21007E
:100C60003E082000B80021003D082000B700080021
:100C70002000570803193D2E3E2E382E58083E3EC0
:100C80008600013087000108A30023082100D1005D
:100C900020005808463E8600013087000108A30066
:100CA0002308A4000130A3002308D8070830580205
:100CB000031C5B2E5C2E5D2ED801210091120130A9
:100CC0002000D702210091162000240808002000EF
:100CD000AC00822E2908BF3E963199268631952E8A
:100CE0002908933E963199268631952E2908D33EC0
:100CF000963199268631952E29087F3E9631992680
:100D00008631952E2C08AA00AB012B08003A031956
:100D10008A2E7C2E2A08023A03196A2E013A0319F8
:100D2000702E073A0319762E7C2E08002100BC1580
:100D3000A62E9431CD248631C42E9431832486315D
:100D40000330C42E9431D2248631C42E2C08FA00EC
:100D50007A08F90021088A0020080A008631FB0081
:100D6000FC017C08003A0319B62EA22E7B08013A3A
:100D70000319A22E033A0319992E013A0319992E49
:100D8000073A03199D2EA22E08009431862486313D
:100D900021003C1CCC2ECD2EDB2E9431EB24863151
:100DA000003A0319D42ED52EDB2E0F302000A000E0
:100DB00020082100BA0021003A082000A000A1016B
:100DC000A035A10D0030200784009030213D850022
:100DD000013F8A00003F0A0086312000A20022085D
:100DE0002100BA00080001309531E62586319431A2
:100DF000B12486310B302000A5002630A4005D30E0
:100E0000890B002FA40B002FA50B002F00320130FF
:100E10009531D92586310B302000A5002630A4005D
:100E20005D30890B112FA40B112FA50B112F003250
:100E300001309531D92586319431B52486310800A9
:100E40002000A4005A080319262F272F222F210043
:100E5000111A2B2F2C2F312F2000240823009A0049
:100E6000492F111220002408A3005C084E3E860082
:100E700001308700230881000130A3002308DC072C
:100E800008305C02031C452F462F472FDC01013040
:100E9000DA022100111608002000A401A501220099
:100EA0000D1606302000A3003030890B552FA30B00
:100EB000552F000022000D1206302000A300303014
:100EC000890B602FA30B602F000001302000A407C6
:100ED0000030A53D2508803AA30080302302031D81
:100EE000732F32302402031C762F772F4F2F0800E8
:100EF00021003C100230FA007A08BB00872F9431A1
:100F0000CD248731A32F9431D2248731A32F2E08EB
:100F1000FA007A08F9000430A03E86008701413FBC
:100F20008A00403F0A008731FB00FC017C08003A40
:100F300003199B2F832F7B08023A03197F2F013A55
:100F400003197F2F832F08002000A801A9018731F2
:100F50004C2787310B302000A7002630A6005D30DB
:100F6000890BB02FA60BB02FA70BB02F003201308A
:100F70002000A8070030A93D2908803AA60080304B
:100F80002602031DC52F02302802031CC82FC92FBB
:100F9000A72F0800F400700871040319D02FD12F77
:100FA000E22F7435A03E860087017008C03F7108AB
:100FB000C13F7208F3007408AC3E860087017308D5
:100FC0008100EF2F7435A03E860087017530C03F49
:100FD0001430C13F7408AC3E8600870181010800CF
:100FE0002000A300953180258731200023082400AC
:100FF00091002000911DFD2FFE2FF92F9111080067
:10100000F03021009E009B019C0101309D000800F2
:10101000083020005A0203180E280F2828285B08E1
:101020004E3E860001308700010823009A000130FF
:10103000F00070082000DB0708305B02031C212849
:1010400022282328DB010130F0007008DA072A2863
:101050002100111208002000A400A3012408031994
:10106000322833283D280F1C362837283D288F1C6E
:101070003A283B283D28A301A30A2408031D412840
:1010800042284C280F18452846284C288F184928F4
:101090004A284C28A301A30A230808002000A50120
:1010A000A6010F1C5428552859280130A5000030EE
:1010B000A6008F1C5C285D2861280230A500003046
:1010C000A6000F1C642865286D288F1C68286928D5
:1010D0006D280330A5000030A6002608A4002508CE
:1010E000A300080096315B2688318B170B179531CA
:1010F000752588314E3081312F2188312100ED0155
:10110000EC01EB01E801AF302000AE009830AF00F9
:101110002F30B0009930B1008430B2009930B30064
:10112000AE30B4009830B5008331A9238831153032
:101130002000D5004B30D400BE30890B9D28D40B45
:101140009D28D50B9D28000088314E208831200035
:1011500024082100EA00200023082100E900690892
:101160006A040319B428B5284F29E601E7011B29B1
:10117000E7302000A3009830A4001430A500003010
:10118000A600D230853198258831F228F930200028
:10119000A3009830A4001430A5000030A600D2307F
:1011A000853198258831F2280B302000A300993032
:1011B000A4001430A5000030A600D2308531982557
:1011C0008831F2286A08003A0319E728F2286908EA
:1011D000013A0319B828033A0319C628013A03193A
:1011E000D428F228AF302000AE009830AF00D230C3
:1011F000B0000030B1004130B2009930B300873008
:10120000B4009830B5008331A92388319431FD248E
:1012100088318631F326883188314E20883120008C
:1012200024082100EA00200023082100E900013001
:10123000E6070030E73D6708803A2000D4008030A0
:101240005402031D262902302100660203182929B1
:101250002A293129210069086A04031D302931290E
:10126000E228210069086A040319372938294F291F
:10127000E801E80A4F29AF302000AE009830AF00F7
:10128000D230B0000030B1005B30B2009830B30013
:101290007430B4009930B5008331A923883121001E
:1012A0006808031D542955293B296808031D59293D
:1012B0005A29A428AF302000AE009830AF001D306E
:1012C000B0009930B100AE30B2009830B300843035
:1012D000B4009930B5008331A92388310330200050
:1012E000D5000830D4007730890B7429D40B7429C9
:1012F000D50B7429ED302000D4005408C300EB3026
:101300008331552388318731A42788310F3020005D
:10131000AE009A30AF00AE30B0009930B100AE30C0
:10132000B2009830B300AE30B4009830B5008331CD
:10133000A92388312100ED01ED0A00309531B22555
:10134000883100309531BF25883101309531CC2569
:10135000883103302000D5000830D4007730890B65
:10136000AF29D40BAF29D50BAF2901309531E62534
:1013700088319431B524883100309531D9258831B0
:1013800000309531A525883111302000D5003C3042
:10139000D400CB30890BCA29D40BCA29D50BCA2952
:1013A000003088312B208831003A0319D829D929F7
:1013B000DA29F9292100ED010F302000C3009A300D
:1013C000C400ED30D4005408C500EC30D5005508F9
:1013D000C600823132228831ED302000D40054081A
:1013E000CB00EC30D5005508CC00EB308331FA232C
:1013F000883121006D080319FE29FF29532A17306F
:101400002000AE009A30AF00B330B0009930B10088
:10141000AE30B2009830B300AE30B4009830B500B2
:101420008331A923883194319D248831003095314E
:10143000D925883101309531A5258831113020001A
:10144000D5003C30D400CB30890B242AD40B242A7D
:10145000D50B242A013088312B208831003A03191A
:10146000322A332A342A532A2100ED011730200072
:10147000C3009A30C400ED30D4005408C500EC30ED
:10148000D5005508C600823132228831ED30200067
:10149000D4005408CB00EC30D5005508CC00EB301C
:1014A0008331FA23883121006D080319582A592AFB
:1014B000AD2A1F302000AE009A30AF00B330B0002C
:1014C0009930B100AE30B2009830B300AE30B40005
:1014D0009830B5008331A923883194319D24883117
:1014E00001309531D925883100309531A5258831D5
:1014F00011302000D5003C30D400CB30890B7E2A3F
:10150000D40B7E2AD50B7E2A003088312B208831DF
:10151000003A03198C2A8D2A8E2AAD2A2100ED016A
:101520001F302000C3009A30C400ED30D4005408AE
:10153000C500EC30D5005508C60082313222883112
:10154000ED302000D4005408CB00EC30D500550815
:10155000CC00EB308331FA23883121006D08031968
:10156000B22AB32A072B27302000AE009A30AF00F2
:10157000B330B0009930B100AE30B2009830B30053
:10158000AE30B4009830B5008331A923883194314E
:10159000B524883100309531D92588310030953116
:1015A000A525883111302000D5003C30D400CB3047
:1015B000890BD82AD40BD82AD50BD82A00308831E9
:1015C0002B208831003A0319E62AE72AE82A072B5C
:1015D0002100ED011F302000C3009A30C400ED301F
:1015E000D4005408C500EC30D5005508C60082313F
:1015F00032228831ED302000D4005408CB00EC308A
:10160000D5005508CC00EB308331FA238831210016
:101610006D0803190C2B0D2B612B2F302000AE0011
:101620009A30AF00B330B0009930B100AE30B200A4
:101630009830B300AE30B4009830B5008331A923A0
:1016400088319431B124883100309531D9258831E1
:1016500001309531A525883111302000D5003C306E
:10166000D400CB30890B322BD40B322BD50B322B41
:10167000013088312B208831003A0319402B412B4F
:10168000422B612B2100ED012F302000C3009A3046
:10169000C400ED30D4005408C500EC30D500550826
:1016A000C600823132228831ED302000D400540847
:1016B000CB00EC30D5005508CC00EB308331FA2359
:1016C000883121006D080319662B672BBB2B37303F
:1016D0002000AE009A30AF00B330B0009930B100B6
:1016E000AE30B2009830B300AE30B4009830B500E0
:1016F0008331A92388319431B12488310130953167
:10170000D925883100309531A52588311130200048
:10171000D5003C30D400CB30890B8C2BD40B8C2BD8
:10172000D50B8C2B003088312B208831003A0319DF
:101730009A2B9B2B9C2BBB2B2100ED0137302000DB
:10174000C3009A30C400ED30D4005408C500EC301A
:10175000D5005508C600823132228831ED30200094
:10176000D4005408CB00EC30D5005508CC00EB3049
:101770008331FA23883121006D080319C02BC12B56
:10178000152C3F302000AE009A30AF00B330B000CF
:101790009930B100AE30B2009830B300AE30B40032
:1017A0009830B5008331A92388319431B52488312C
:1017B00000309531D925883100309531A525883103
:1017C00011302000D5003C30D400CB30890BE62B03
:1017D000D40BE62BD50BE62B003088312B2088313B
:1017E000003A0319F42BF52BF62B152C2100ED01F3
:1017F0003F302000C3009A30C400ED30D4005408BC
:10180000C500EC30D5005508C6008231322288313F
:10181000ED302000D4005408CB00EC30D500550842
:10182000CC00EB308331FA23883121006D08031995
:101830001A2C1B2C722C47302000AE009A30AF00BF
:101840005730B0009A30B100AE30B2009830B300DB
:10185000AE30B4009830B5008331A9238831003010
:101860009531E62588319431B52488319431AD2401
:10187000883100309531A525883111302000D50000
:101880003C30D400CB30890B432CD40B432CD50BEC
:10189000432C003088312B208831003A0319512C19
:1018A000522C532C722C2100ED0147302000C30034
:1018B0009A30C400ED30D4005408C500EC30D50097
:1018C0005508C600823132228831ED302000D40024
:1018D0005408CB00EC30D5005508CC00EB308331F8
:1018E000FA23883121006D080319772C782CCB2C32
:1018F0004F302000AE009A30AF005730B0009A3021
:10190000B100AE30B2009830B300AE30B4009830C1
:10191000B5008331A923883194319D2488319431D5
:10192000A524883101309531A5258831113020005A
:10193000D5003C30D400CB30890B9C2CD40B9C2C94
:10194000D50B9C2C013088312B208831003A0319AB
:10195000AA2CAB2CAC2CCB2C2100ED014F3020005D
:10196000C3009A30C400ED30D4005408C500EC30F8
:10197000D5005508C600823132228831ED30200072
:10198000D4005408CB00EC30D5005508CC00EB3027
:101990008331FA23883121006D080319D02CD12C12
:1019A000242DC7302000AE009930AF005730B00072
:1019B0009A30B100AE30B2009830B300AE30B4000F
:1019C0009830B5008331A923883194319D24883122
:1019D0009431AD24883100309531A52588311130FE
:1019E0002000D5003C30D400CB30890BF52CD40B33
:1019F000F52CD50BF52C003088312B208831003A9E
:101A00000319032D042D052D242D2100ED01C730D0
:101A10002000C3009930C400ED30D4005408C50044
:101A2000EC30D5005508C600823132228831ED30C5
:101A30002000D4005408CB00EC30D5005508CC0071
:101A4000EB308331FA23883121006D080319292DE9
:101A50002A2D7D2DD0302000AE009930AF005730B8
:101A6000B0009A30B100AE30B2009830B300AE3062
:101A7000B4009830B5008331A92388319431B5245E
:101A800088319431AD24883100309531A5258831D5
:101A900011302000D5003C30D400CB30890B4E2DC6
:101AA000D40B4E2DD50B4E2D003088312B20883194
:101AB000003A03195C2D5D2D5E2D7D2D2100ED0179
:101AC000D0302000C3009930C400ED30D400540859
:101AD000C500EC30D5005508C6008231322288316D
:101AE000ED302000D4005408CB00EC30D500550870
:101AF000CC00EB308331FA23883121006D080319C3
:101B0000822D832DD62DD9302000AE009930AF0024
:101B10005730B0009A30B100AE30B2009830B30008
:101B2000AE30B4009830B5008331A92388319431A8
:101B3000B12488319431AD24883100309531A52508
:101B4000883111302000D5003C30D400CB30890BD7
:101B5000A72DD40BA72DD50BA72D003088312B2016
:101B60008831003A0319B52DB62DB72DD62D210099
:101B7000ED01D9302000C3009930C400ED30D4000D
:101B80005408C500EC30D5005508C6008231322219
:101B90008831ED302000D4005408CB00EC30D50063
:101BA0005508CC00EB308331FA23883121006D08D1
:101BB0000319DB2DDC2D2F2EE2302000AE009930F2
:101BC000AF005730B0009A30B100AE30B20098305C
:101BD000B300AE30B4009830B5008331A92388310A
:101BE0009431B12488319431A92488310130953160
:101BF000A525883111302000D5003C30D400CB30F1
:101C0000890B002ED40B002ED50B002E013088310D
:101C10002B208831003A03190E2E0F2E102E2F2E56
:101C20002100ED01E2302000C3009930C400ED3006
:101C3000D4005408C500EC30D5005508C6008231E8
:101C400032228831ED302000D4005408CB00EC3033
:101C5000D5005508CC00EB308331FA2388312100C0
:101C60006D080319342E352E882EEB302000AE007F
:101C70009930AF005730B0009A30B100AE30B200AA
:101C80009830B300AE30B4009830B5008331A9234A
:101C900088319431B12488319431AD2488310030B9
:101CA0009531A525883111302000D5003C30D40075
:101CB000CB30890B592ED40B592ED50B592E003011
:101CC00088312B208831003A0319672E682E692E3F
:101CD000882E2100ED01EB302000C3009930C400B4
:101CE000ED30D4005408C500EC30D5005508C600CE
:101CF000823132228831ED302000D4005408CB00EC
:101D0000EC30D5005508CC00EB308331FA23883114
:101D100021006D0803198D2E8E2EE12EF430200047
:101D2000AE009930AF005730B0009A30B100AE30FD
:101D3000B2009830B300AE30B4009830B5008331B3
:101D4000A92388319431B52488319431A92488316C
:101D500000309531A525883111302000D5003C3068
:101D6000D400CB30890BB22ED40BB22ED50BB22EB1
:101D7000003088312B208831003A0319C02EC12E43
:101D8000C22EE12E2100ED01F4302000C300993075
:101D9000C400ED30D4005408C500EC30D50055081F
:101DA000C600823132228831ED302000D400540840
:101DB000CB00EC30D5005508CC00EB308331FA2352
:101DC000883121006D080319E62EE72E4B2FFD30D8
:101DD0002000AE009930AF005230B0009930B10011
:101DE000AE30B2009830B300C230B4009830B500C5
:101DF0008331A923883101309531E625883194312A
:101E0000B124883101309531D925883100309531A0
:101E1000A525883111302000D5003C30D400CB30CE
:101E2000890B102FD40B102FD50B102F2130200031
:101E3000BF009830C00096314926883121006B08D8
:101E40008131BA2188312000D40054082100EC00EF
:101E50006C08031D2C2F2D2F4B2FED011F30200060
:101E6000C3009A30C400ED30D4005408C500EC30F3
:101E7000D5005508C600823132228831ED3020006D
:101E8000D4005408CB00EC30D5005508CC00EB3022
:101E90008331FA23883121006D080319502F512F07
:101EA000B12F06302000AE009A30AF006330B00092
:101EB0009930B100AE30B2009830B300C230B400F7
:101EC0009830B5008331A92388319431B124883109
:101ED00001309531D925883101309531A5258831DA
:101EE00011302000D5003C30D400CB30890B762F48
:101EF000D40B762FD50B762F00302000BF00983002
:101F0000C00096314926883121006B088131BA2101
:101F100088312000D40054082100EC006C08031D17
:101F2000922F932FB12FED0106302000C3009A307D
:101F3000C400ED30D4005408C500EC30D50055087D
:101F4000C600823132228831ED302000D40054089E
:101F5000CB00EC30D5005508CC00EB308331FA23B0
:101F6000883121006D080319B62FB72FA428BB3084
:101F70002000AE009930AF00DE30B0009830B100E4
:101F80009330B2009930B3008730B4009830B50078
:101F90008331A923883101309531B22588319531BB
:101FA0001D2588319731BD278831EB302000C300D3
:101FB0000030C400ED30C5000030C6008231A222DE
:101FC0008831ED302000C3000030C400EC30C50083
:101FD0000030C600EB30C7000030C8008531D62580
:101FE000883129302000D5009630D4007F30890B0D
:101FF000F72FD40BF72FD50BF72FA42880314A28C1
:10200000BE3414342C3415342434153400340334E1
:10201000D03404340F34153496340634C3341434B5
:10202000C8341434CD341434D2341434D734143482
:10203000DC341434E1341434E634143478340734A2
:102040002D343E3420345434453453345434203405
:1020500043344F344E3446344F3452344D34453487
:1020600020342D34203441345434543445344E34E7
:102070005434453420344134433451345534493494
:102080005434543445344D3445344E3454340D3482
:042090000A340034DA
:1028E600080008340130080024009614080024006B
:1028F6001615080024009615080024001108080083
:102906002000911508002000911108009631F52647
:102916009431080023001D121D1608002400961687
:102926001616080024009612161608008631C526CB
:102936009431080022008C140C1008001630210077
:102946009700080022000C168C11080022000C12B9
:102956008C15080022000C128C11080022000C14A1
:102966008C10080022008C100C100800F000700873
:102976002400910008002100BC10BB010E300800A5
:1029860094317724943101300800943177249431BE
:1029960002300800943177249431013008009431D4
:1029A6007A2494310030080094319524943105300E
:1029B60008009431912494310A300800943191240E
:1029C6009431093008002100BC10BB010E3008000C
:1029D6002400160E890C890C0139080095318025D2
:1029E6009431240016140800953180259431240072
:1029F6001615080020000F19012D022DFD2C0800C8
:102A0600640080010131890B042D0034FE001200A0
:102A16001E00FE0B0A2D003421003C1094317D244B
:102A26009531043008002000A500250887312027AD
:102A36009531080022000C108C100C118C110C1210
:102A4600080021003C1436359431B9249531033001
:102A5600080021003C140314360D9431B924953135
:102A660005300800200024082100C40020002308A7
:102A76002100C3000800200024082100C80020000F
:102A860023082100C7000800200024082100C600F2
:102A9600200023082100C50008002000240821008A
:102AA600CA00200023082100C900080020002408CD
:102AB6002100CC00200023082100CB0008000130B3
:102AC6009631992695313530890B672D000008001F
:102AD600C030240094000830950096014F309200D3
:102AE600951208002830240095009601940127309D
:102AF600920021008E150E16080024001419842D4C
:102B0600852D802D16081F39031D8A2D8B2D802DAE
:102B160008007030210099009801220096012100DA
:102B26001A1F962D972D922D08007608F10075082C
:102B3600F0007708F8007808F20000308731CA27DD
:102B4600953108002000A30023080319AB2DAC2DF6
:102B5600AF2D22000C17B12D22000C130800200007
:102B6600A30023080319B82DB92DBC2D220010147B
:102B7600BE2D2200101008002000A3002308031910
:102B8600C52DC62DC92D22009014CB2D22009010E4
:102B960008002000A30023080319D22DD32DD62D1B
:102BA60022001015D82D2200101108002000A300C5
:102BB60023080319DF2DE02DE32D22000C15E52D4A
:102BC60022000C1108002000A30023080319EC2D95
:102BD600ED2DF12D22008C138C16F42D22008C176E
:102BE6008C120800F3002100BC1DFA2DFB2D042ECB
:102BF6007308F2007208B7007108B9007008B800CF
:102C0600BC1108000230F0000030F100790895315F
:102C1600F52596310030F500F600F7019531982537
:102C26009631043008000130F0000030F1007908D8
:102C36009531F52596310030F500F600F70195310E
:102C460098259631023008000230F0000030F1007D
:102C560079089531F52596310030F500F600F70133
:102C6600953198259631023008000130F000003089
:102C7600F10079089531F52596310030F500F6001A
:102C8600F70195319825963104300800413020002F
:102C9600C1004108C2004008B8003F08B7004230F2
:102CA600C1004108B9000030863107269631080078
:102CB60095316B25963197317F27963195318C2545
:102CC60096319431A1249631883100209631843191
:102CD6008A24963108002000A4009431F12496310C
:102CE600200056088731F02796312000240821005D
:102CF6006E048731F02796319431F7249631080017
:102D06002000A6007D08A5002508A604260804388C
:102D160096316E26963120002608FB3996316E26AE
:102D260096314230890B952E003208002000A8000B
:102D3600FD012808F03996318326963120002808AF
:102D4600A7000330A735FF3E031DA52E2735F03912
:102D560096318326963108002000A800FD01FD0A61
:102D66002808F03996318326963120002808A700D6
:102D76000330A735FF3E031DBC2E2735F0399631AB
:102D86008326963108002000B4003108A9003008D7
:102D9600A800340897311027963120002308B20086
:102DA6002408B300340832079731DE279631200015
:102DB60034080800790886008701403FF000413F4B
:102DC600F1007908023E8600870101089531F52554
:102DD60096310030F500F600F701953198259631C9
:102DE6000230080023001908F00020005908463E6A
:102DF600860001308700700881000130F0007008FD
:102E0600D90708305902031C092F0A2F0B2FD901A5
:102E16000130F0007008D70708002000A700270837
:102E2600A5002508A6001B2F0130A5002508A70729
:102E360027088600013087000108031D232F242F51
:102E4600172F26082702A300A401A31BA40308002A
:102E56002000A400A30124080319322F332F392F91
:102E66008F1B362F372F392FA301A30A2408031DE2
:102E76003D2F3E2F442F8F1F412F422F442FA3015A
:102E8600A30A230808002000A400A30124080319AC
:102E96004D2F4E2F542F0F19512F522F542FA30160
:102EA600A30A2408031D582F592F5F2F0F1D5C2FCF
:102EB6005D2F5F2FA301A30A230808002D343E349B
:102EC60020344534523452344534553452343A342D
:102ED600203400340034003400340034003400342C
:102EE600003400340D340A34003400340034003425
:102EF6000034003400340034220090018F018C012C
:102F06008D018E010830210090008C01EF308D007C
:102F1600BF308E00FF308F0023008F013F308D00C1
:102F260090013C308C00240090018D012100951702
:102F360022009D0108002000AC01AD01B12F290837
:102F46002C0784002A082D3D850000089631AF26FF
:102F5600973101302000AC070030AD3D29082C0721
:102F660084002A082D3D85001200031DBB2FBC2FAF
:102F7600A22F080020302000BF009030C0009631FC
:102F8600492697312000C401C5018731A42797310E
:102F960001302000C4070030C53D4508803AC30013
:102FA60080304302031DD92F02304402031CDC2F5C
:102FB600DD2FC82F08002000AF002908AD00280823
:102FC600AC002F08AA002A08AE002E0886000130A1
:102FD6008700AE0A2D08AB002C08AA00AC0A03191C
:102FE600AD0A2A0884002B0885000008C03F89081E
:102FF600031DFE2FFF2FE82F08004134743474346C
:1030060065346E34743465342034763461346C340B
:10301600693464346134743469346F346E34203402
:103026006C34653464347334203462346C346534FF
:103036007534653473340D340A34003441347434D1
:10304600743465346E3474346534203476346134C3
:103056006C34693464346134743469346F346E3476
:1030660020346C34653464342034763465347234F8
:103076007434653473340D340A3400342D343E34DC
:103086002034543445345334543420344D3441348C
:103096004E34553445344C34203445344E34203483
:1030A60043344F345534523453340D340A340034D7
:1030B6004D34413449344E34543445344E3441341D
:1030C6004E344334453420344E3445344334453449
:1030D60053345334413449345234453400342D3456
:1030E6003E342034463449344E3420345434453446
:1030F6005334543420344D3441344E3455344534ED
:103106004C340D340A340034413454345434453488
:103116004E345434453420344134433451345534D8
:1031260049345434543445344D3445344E3454348F
:1031360000342D343E34203454344534533454341E
:10314600203441344334513455344934543454349E
:1031560045340D340A34003454344534533454342D
:1031660020344334413452345434453420344434C6
:10317600383435343534453444343234003441340B
:103186005034503455345934453452342034533441
:103196005534523420344F344B342F344E344F345C
:1031A6004B340034543445345334543420344E3480
:1031B6004F344E34203443344F344E3446344F3437
:1031C60052344D3445340034443445344634413465
:1031D600553454342034433450343134203420347C
:1031E6002034203420342034203400344434453410
:1031F6004634413455345434203443345034323414
:103206002034203420342034203420342034003438
:1032160044344534463441345534543420344334EC
:10322600503431342034453454342034433450340B
:103236003234003441345434543445344E345434E6
:1032460045342034443445344D34413452345234B8
:10325600413447344534003450344F3453344934C0
:10326600543449344F344E344E3445345234203479
:1032760043344134523454344534003450344C349D
:103286004134433445345234203443344134523487
:10329600543445342034523445344634003454349E
:1032A60045345334543420344C3445344434533444
:1032B600203456344534523454344534533400346F
:1032C600543445345334543420344C344534443423
:1032D6005334203442344C34453455344534533415
:1032E600003452344534443445344D344134523438
:1032F600523445345A342034423441344E34433403
:1033060000344134503450345534593445345234F1
:10331600203453345534523420344F344B34003433
:1033260052344534543449345234453452342034BA
:103336004334413452345434453400342D343E340D
:103346002034543445345334543420344F344E34BA
:103356000D340A3400345434453453345434203450
:103366004D344F34443445342034423450340034E0
:10337600463449344E3420344434453420345434AD
:103386004534533454340034453454344134503481
:1033960045342034313430340034453454344134E7
:1033A60050344534203431343134003445345434C7
:1033B60041345034453420343134323400344534C9
:1033C60054344134503445342034313433340034A9
:1033D6004534543441345034453420343134343453
:1033E6000034453454344134503445342034313477
:1033F6003534003445345434413450344534203463
:103406003134363400344534543441345034453440
:103416002034313437340034453454344134503454
:103426004534203431340034453454344134503436
:103436004534203432340034453454344134503425
:103446004534203433340034453454344134503414
:103456004534203434340034453454344134503403
:1034660045342034353400344534543441345034F2
:1034760045342034363400344534543441345034E1
:1034860045342034373400344534543441345034D0
:1034960045342034383400344534543441345034BF
:1034A60045342034393400344D344F3444344534B3
:0834B600203454344334003487
:020000040001F9
:08000000FF3FFF3FFF3FFF3F00
:04000E00E43FFF3F8D
:00000001FF
